:10C00000C040022055DC000077B9010075DA00005D
:10C0100075DA000075DA000075DA000075DA0000E4
:10C0200075DA000075DA000075DA000035D9000015
:10C0300075DA000075DA000085D8000067B90100E4
:10C0400015DC000015DC000015DC000015DC00002C
:10C0500015DC000015DC000015DC000015DC00001C
:10C0600015DC000015DC000015DC000015DC00000C
:10C0700015DC000015DC000015DC000015DC0000FC
:10C0800015DC000015DC000015DC000015DC0000EC
:10C0900015DC000015DC000015DC000015DC0000DC
:10C0A00015DC000015DC000015DC000015DC0000CC
:10C0B0000DF90000ABC9010015DC000015DC000023
:10C0C00015DC000015DC000015DC000015DC0000AC
:10C0D00015DC000015DC000015DC000015DC00009C
:10C0E00015DC000015DC0000C9C9010015DC0000EA
:10C0F00015DC000015DC000015DC000015DC00007C
:10C1000015DC000015DC000015DC000015DC00006B
:10C1100015DC000015DC000015DC000015DC00005B
:10C1200015DC000015DC000015DC000015DC00004B
:10C1300015DC000015DC000015DC000015DC00003B
:10C1400015DC0000000000000000000000000000FE
:10C1500000000000000000000000000000000000DF
:10C1600000000000000000000000000000000000CF
:10C1700000000000000000000000000000000000BF
:10C1800000000000000000000000000000000000AF
:10C19000000000000000000000000000000000009F
:10C1A000000000000000000000000000000000008F
:10C1B000000000000000000000000000000000007F
:10C1C000000000000000000000000000000000006F
:10C1D000000000000000000000000000000000005F
:10C1E000000000000000000000000000000000004F
:10C1F000000000000000000000000000000000003F
:10C20000DEE61E284CBBCE8F025B00003C00000027
:10C21000444501000100000000C0000000C0000013
:10C22000FFFF02910000000000000000000000007D
:0CC2300000000000000000000000000002
:10C23C0053B94AB9002908BF00281CBF4FF0FF3181
:10C24C004FF0FF3000F070B9ADF1080C6DE904CE81
:10C25C0000F006F8DDF804E0DDE9022304B07047D5
:10C26C002DE9F04F099E04468946002B40F083804F
:10C27C008A42154645D9B2FA82F24AB1C2F1200778
:10C28C0001FA02F39540944020FA07F747EA0309B4
:10C29C004FEA154E230C1FFA85F8B9FBFEFC0EFB7A
:10C2AC001C990CFB08F143EA094399420AD9EB1893
:10C2BC002CBF01200020994202D9002800F01D81DA
:10C2CC000CF1FF3C591AA3B2B1FBFEF00EFB10119E
:10C2DC0000FB08F843EA0144A04505D92C1902D209
:10C2EC00A04500F20E810138A4EB080440EA0C4092
:10C2FC0000271EB1D4400023C6E900433946BDE8EF
:10C30C00F08F002A51D0B2FA82F2002A40F0AF80AE
:10C31C00491B4FEA154E1FFA85F80127230CB1FB78
:10C32C00FEFC0EFB1C1108FB0CF043EA0143984287
:10C33C000AD9EB182CBF01210021984202D90029FF
:10C34C0000F0D7800CF1FF3C191AA3B2B1FBFEF040
:10C35C000EFB101108FB00F843EA0144A04505D977
:10C36C002C1902D2A04500F2C1800138A4EB0804BC
:10C37C0040EA0C40BDE78B4208D9002E74D0002750
:10C38C00C6E9000138463946BDE8F08FB3FA83F7A9
:10C39C0067B98B42C0F0A480824240F2A18038463B
:10C3AC00002EABD0C6E90049A8E7FFDEC7F1200597
:10C3BC00BB4002FA07FC01FA07F4EA4020FA05F840
:10C3CC00E94000FA07FE1A4348EA04044FEA12480F
:10C3DC00200C1FFA82F9B1FBF8FA08FB1A110AFBC0
:10C3EC0009FB40EA01418B450AD951182CBF0123A6
:10C3FC0000238B4502D9002B00F088800AF1FF3A0C
:10C40C00A1EB0B01A4B2B1FBF8F008FB101100FB7F
:10C41C0009F944EA0141894504D9511801D28945E9
:10C42C007BD8013840EA0A40A1EB0901A0FB0C893A
:10C43C00494544464B4602D306D1C64504D2013881
:10C44C00B8EB0C0469EB0203002E5DD0BEEB0402CA
:10C45C0061EB030101FA05F522FA07F3F940002715
:10C46C001D43C6E9005149E73746304646E7C2F15D
:10C47C002000954001FA02F721FA00F34FEA154E1D
:10C48C0024FA00F11FFA85F894403943B3FBFEF00F
:10C49C000F0C0EFB103300FB08FC47EA03439C45D2
:10C4AC0007D9EB182CBF012700279C4500D98FB367
:10C4BC000138A3EB0C0389B2B3FBFEF70EFB173369
:10C4CC0007FB08FC41EA03418C4504D9691801D2E9
:10C4DC008C4525D8013FA1EB0C0147EA00471DE72D
:10C4EC00841A61EB03030120994659E702382C4466
:10C4FC003CE7ACF1020C2B4426E7ACF1020C2B44CC
:10C50C00E0E602382C44EFE63746F7E6AAF1020AD9
:10C51C00114475E702382B44CBE70238114481E70C
:10C52C00023F2944D7E700BF704700BF014B18807A
:10C53C00704700BF346802200D4B19680131196037
:10C54C000C4B1A68B1FBF2F302FB131313B9012263
:10C55C00094B1A7003234FF00002084863F30702DB
:10C56C00074B1B1ADB0863F38F1206480FF0A8B8B1
:10C57C008408022080080220EA1E02202CE0010020
:10C58C002CE00100D0E601000140CA0710B526D509
:10C59C0003234FF00001154C63F30701144B1548AE
:10C5AC00E41AC4F3C90464F38F110FF07CF803236D
:10C5BC004FF0000263F3070264F38F120E4C0F4826
:10C5CC0021680FF07DF82168B1F5106F09D20C4B82
:10C5DC00186800F0CBFB23680533236010BD8B0774
:10C5EC00FCD50022044B1A60F8E700BF2CE00100D8
:10C5FC002CE0010000E70100146802201BE7010099
:10C60C001068022001234FF00002064963F3070271
:10C61C00054B5B1ADB08014663F38F1203480FF0DE
:10C62C004FB800BF2CE001002CE00100E2E6010055
:10C63C004EF66022014811460EF0EEBBFC6802205B
:10C64C002DE9FF4175480EF0B6FF03234FF00001B2
:10C65C00734C63F30701734B7348E41AC4F3C904B6
:10C66C0064F38F110FF01FF8704803F009FD0146B9
:10C67C0048B14FF00002012363F3070264F38F12F9
:10C68C006B480FF01DF803F0A1FC014648B14FF0C8
:10C69C000002012363F3070264F38F1265480FF065
:10C6AC000FF80F21002010F080FD014648B14FF02B
:10C6BC000002012363F3070264F38F125E480EF04D
:10C6CC00FFFF04F089FE5D4804F08CFE5C4804F02A
:10C6DC0051FE03234FF0000163F3070164F38F1144
:10C6EC0058480EF0E0FF10F004FF03234FF0000158
:10C6FC0063F3070164F38F1153480EF0D4FF04F079
:10C70C006BFE4E4804F06EFE4D4804F033FE00F014
:10C71C005DFB00F089FB00287BD003234FF0000168
:10C72C0063F3070164F38F1148480EF0BCFF032339
:10C73C004FF0000163F30701454D64F38F11454839
:10C74C000EF0B1FF4449042004F07EFD03A92846F5
:10C75C0004F00EFC4FF000070323404863F3070777
:10C76C0000F09CFC80463E4800F098FC64F38F1768
:10C77C003B46024641463B480EF0B6FF03224FF0C3
:10C78C00000362F30703296864F38F13039A364896
:10C79C000EF0AAFF3C2329684FF0000291FBF3F145
:10C7AC00032363F3070264F38F12304829600EF001
:10C7BC0087FFFFF73DFF2E4D274FDFF8BC8002F0BF
:10C7CC0057FEFF23B0FBF3F318442B788DF80B00C6
:10C7DC00D3B101210DF10B0000F0C8FA26F03F0394
:10C7EC0043F00303384663F3070600F057FC64F389
:10C7FC008F16ADF8006000230146B8F800201D48E4
:10C80C000EF08AFF00232B704FF47A700EF00AF8AA
:10C81C00D5E764200EF006F87BE700BF32E7010095
:10C82C002CE001002CE001005AE7010095C5000046
:10C83C0082E70100AEE70100D7E70100000002200B
:10C84C0039C50000FFE7010018E801002DE80100E0
:10C85C00800802203FE80100861E02205BE80100F0
:10C86C0064E801006DE801008AE80100A2E801001B
:10C87C00EA1E0220BBE80100346802202DE9F041D9
:10C88C00844890B00FF072FE20220124824F0021C8
:10C89C000DEB02000FF05DFA3B6800215D6BCDE9FA
:10C8AC00094403AB08AA7D48A8477D4D7D4B014642
:10C8BC00ED1AC5F3C9057C4E002833D04FF00002A9
:10C8CC0064F3070265F38F1278480EF0F9FE714C91
:10C8DC00774B7848A3646663E0620FF0DEF90422BC
:10C8EC0084F85E20744A0023E2648022734920633A
:10C8FC002046C4E91512C4E90E33226584F82430AD
:10C90C000FF04DFE0146002842D04FF000020123EB
:10C91C006B4863F3070265F38F120EF0D1FE10B073
:10C92C00BDE8F081039BFBB11969082921D15B6932
:10C93C0034805B68736045F6073373801023311DB8
:10C94C000DEB0302204602F06BFB4FF000040323B7
:10C95C0004A863F3070400F0A1FB65F38F140146F0
:10C96C00224658480EF0ACFE3B6803989B6B9847E8
:10C97C00ADE702224FF0000362F3070365F38F1358
:10C98C00ADF80030082218234F480EF0C5FEEBE737
:10C99C0094F8243053B14FF00002012363F30702E3
:10C9AC0065F38F126FF022014848B6E7484EA36A30
:10C9BC00B04633600123B38020460FF004FF3B6880
:10C9CC0002469B69012140469847002826DA01233C
:10C9DC004FF0000463F3070465F38F140DF010F8A7
:10C9EC00224601683B480EF06BFE03234FF000011A
:10C9FC0063F3070165F38F1137480EF054FE254899
:10CA0C000FF03FFE0146002889D04FF000020123B1
:10CA1C0063F3070265F38F1230487EE720460FF070
:10CA2C00ABFE014658B110F10B0F08D04FF00002CD
:10CA3C00012363F3070265F38F122948D3E7F388C8
:10CA4C00D9070DD520460FF0D5FE014640B14FF069
:10CA5C000002012363F3070265F38F122148C2E73A
:10CA6C00F3881A070AD54FF0000101231E4863F31F
:10CA7C00070165F38F110EF016FEB6E79B069BD5EA
:10CA8C004FF00001012363F3070165F38F11174881
:10CA9C00F1E700BF88080220D80A022039F3010010
:10CAAC0034E001002CE00100641E02204AF3010076
:10CABC00FDCA0000A3F301006C1F0220EC1F022032
:10CACC00B1F3010068F301007FF30100C9F3010029
:10CADC00EC080220DDF301002BF4010049F4010005
:10CAEC00EDF3010002F4010018F4010021F401003F
:10CAFC002DE9F04788B00B7802AF06460C46072BA1
:10CB0C0052D8DFE813F0080055006F00D700510031
:10CB1C0051005100E800814C814BC969E41AC4F3FF
:10CB2C00C90451B14FF0000202237E4863F307029F
:10CB3C0064F38F120EF0C4FD36E001267A4B4FF0F1
:10CB4C0000051E700323794863F3070500F0A6FA6D
:10CB5C0064F38F152B46764D0146A72275480EF0CF
:10CB6C00C3FD2846FD600FF098F807F10C037B60BD
:10CB7C00714B3E75BB604FF00006032338612846AD
:10CB8C0063F3070600F08AFA64F38F16044628460E
:10CB9C000FF083F821460246334668480EF0A4FD98
:10CBAC00391D67480FF096FD1837BD46BDE8F08774
:10CBBC0002234FF000055A4A63F30705574B5B48B5
:10CBCC009B1ADB0863F38F1500F068FAADF8005080
:10CBDC00E369AD2201465B480EF09EFD0022524BEC
:10CBEC001A70E1E74B69584D802B05EB03085ED8B2
:10CBFC00DFF85891DFF870A1A84511D864696E462A
:10CC0C0004F1080323F00703ADEB030D02AD22463C
:10CC1C004D4928460FF073F800232B55B546C3E752
:10CC2C002946A8EB050230460FF005FE011E3BDA43
:10CC3C0011F10B0F0BD1DAF800304EF660229B6924
:10CC4C00012142489847002829DC6FF00401022397
:10CC5C004FF00002324863F30702304B1B1AC3F348
:10CC6C00C90464F38F123A480EF02AFD02234FF0E8
:10CC7C00000163F3070164F38F1136480EF013FDC6
:10CC8C0030460FF0FEFC014600288DD04FF000021C
:10CC9C00022363F3070264F38F122F484AE7B9F8B3
:10CCAC000630DB07A8D4D0E7CFD00D44A4E76FF053
:10CCBC002301CCE7C96900293FF476AF02234FF07A
:10CCCC000002174863F30702144B1B1ADB0863F3CB
:10CCDC008F1222482EE7114B114AC9699B1AC3F3D4
:10CCEC00C90341B102204FF0000260F3070263F365
:10CCFC008F121B481EE703224FF000050B4862F30E
:10CD0C00070563F38F1500F0C9F9A3880146ADF848
:10CD1C000050D72213480EF0FFFC45E734E0010029
:10CD2C002CE0010001F20100EB1E0220DBF10100FE
:10CD3C0039F2010019F201000100D20450F2010095
:10CD4C00880802206BF20100EC1E0220EC08022085
:10CD5C0090F201002BF40100B7F20100D1F20100B6
:10CD6C00E7F20100FDF20100D80A02200123F0B520
:10CD7C00054687B0134800AF0C463B7238600EF086
:10CD8C008CFFC7E90354786002F072FBBB7D6E46E2
:10CD9C0023F00303BB7504F1080323F00703ADEB89
:10CDAC00030DB8822246294668460EF0A8FF0023E0
:10CDBC0039460DF804300448B5460FF034FC1C37E6
:10CDCC00BD46F0BDECF10100880802207FB50323BD
:10CDDC004FF000010E4A63F307010E4B0E489B1AED
:10CDEC00DB0863F38F110EF05EFC00230822CDE903
:10CDFC000433CDE90232CDE900334FF40062074B26
:10CE0C00074908480DF0E2FD07B05DF804FB00BFD0
:10CE1C002CE0010034E001001BF3010089C8000084
:10CE2C00C0210220F4080220014B1878704700BF83
:10CE3C00EB1E02200B6801330B60014B1B6818477B
:10CE4C00186802202DE9F04F85B00E9C9B46012CF2
:10CE5C00B8BF0124012B0CBF302320231646824679
:10CE6C00884601250A270022DFF86C900293B6FB56
:10CE7C00F9F301930AB9B1451CD8019B414603F162
:10CE8C003000D04701220135019B013F09FB13669D
:10CE9C000A23012FB9FBF3F9E9D1414606F1300021
:10CEAC00D047BBF1030F02D1641B002C0EDC05B084
:10CEBC00BDE8F08FBC42E7DBBBF1020FE4D8414682
:10CECC00029803920135D047039ADDE741462020B2
:10CEDC00D047013CE9E700BF00CA9A3B002307B5E5
:10CEEC000246019303480B4601A90EF0F4F903B076
:10CEFC005DF804FB41CE00004FF02002EFF31183EC
:10CF0C0082F31188BFF36F8F0121044AC2F84015D8
:10CF1C0083F31188BFF36F8F00207047009003409C
:10CF2C0030B5002287B00D490D4810F0DCFD00240F
:10CF3C000E230C4DCDE90243CDE90444CDE9004468
:10CF4C00094B4FF44072094928460DF03FFD084942
:10CF5C00284610F0FFFC204607B030BD81CF000002
:10CF6C00B8090220000A022025D30000C0290220A3
:10CF7C008AF4010001480DF083BC00BF60690220F7
:10CF8C0008B500F025FA09480EF04AFB04233422B8
:10CF9C000749084810F0B8FA074B084A4FF400400C
:10CFAC001A60BDE8084000F089BA00BFB009022041
:10CFBC00004E0220E40902201C6802206BB601001E
:10CFCC00F8B500250C4BD3E8EF7FC3E8E25F002AED
:10CFDC00F9D10A4C0A4E361B3611B54200DBF8BDAE
:10CFEC0063685B792BB12368DB6813B13946204643
:10CFFC00984701351034F0E7A8090220B4E001008D
:10D00C00B4E00100044BD3E8EF2F0132C3E8E12F69
:10D01C000029F8D1704700BFA8090220094B4268CB
:10D02C00C31A1B11013310B5137101224368064C4E
:10D03C005A712278196012B904480DF021FC0123B1
:10D04C00237010BDB4E001006C2002206069022046
:10D05C0070B50F4BD3E8EF5F6A1CC3E8E12F0029D2
:10D06C00F8D12DB90B4C0C4E361B3611B54200DBEA
:10D07C0070BD237B43B123685B6903B198470422DD
:10D08C0000212046FFF7CAFF01351034EEE700BF40
:10D09C00AC090220B4E00100B4E00100144B37B538
:10D0AC009842044602D3134B98421BD3002201A989
:10D0BC0011480CF00FFE0546B8B90122019BD3E8CC
:10D0CC00EF1FC3E8E02F0028F9D1019821462D224B
:10D0DC0004300EF0C1FD7E23019C84F8313084F8BD
:10D0EC0032500434204603B030BD044CFAE700BF84
:10D0FC0064DD010038030200E409022092F401000F
:10D10C0048B1054B984205D3D03398422CBF002030
:10D11C000120704700207047004E02202DE9F84F87
:10D12C00444B05461B7803B940B34FF02003EFF393
:10D13C00118683F31188BFF36F8F3F480EF080FA8E
:10D14C00044686F31188BFF36F8F58B13B4BD3E87D
:10D15C00EF2F013AC3E8E12F0029F8D18DB1204619
:10D16C000EF020FB25B9364B1B680BB1FFF728FFDF
:10D17C0031480EF063FA051C18BF01252846BDE89E
:10D18C00F88F304B1B78ABB9237ADB0712D40EF037
:10D19C0018FB814620460EF0E5FA014648460EF093
:10D1AC0062FA0746284B294ADFF8B8B09B1AC3F33A
:10D1BC00C90A37B9264E274F4FF00008BF1B3F1145
:10D1CC0034E0B7FA87F6C6F11F06314620460EF05A
:10D1DC00CCFA214B0246984202D3204B984214D3EE
:10D1EC001046FFF78DFF80B91D4B9A420DD028F0E9
:10D1FC003F0343F0010363F307086AF38F184346B8
:10D20C004A46314658460EF06FFA012303FA06F6E9
:10D21C0027EA0607CDE773685B7923B133682146AB
:10D22C001B683046984708F101081036B845F2DB08
:10D23C0095E700BF6C200220B0090220A40902204F
:10D24C00A80902206D2002206CE001002CE00100F6
:10D25C00B4E00100B4E0010064DD01003803020019
:10D26C0092F40100B0F40100244B70B51B684181AD
:10D27C0005469847224CE860D4E8EF3F0133C4E8F8
:10D28C00E23F002AF8D14FF02003EFF3118683F32D
:10D29C001188BFF36F8F1B4829460EF0C5F986F332
:10D2AC001188BFF36F8F184B1A787AB14FF02003A7
:10D2BC00EFF3118483F31188BFF36F8F0020FFF716
:10D2CC002DFF84F31188BFF36F8F70BD0F49236856
:10D2DC0009680029F9D0012B06D1BDE870404FF444
:10D2EC007A710B480DF098BD0A2BEED1084810F05E
:10D2FC0006FCBDE8704007480DF0C2BA1C6802205D
:10D30C00A4090220B00902206D200220B00A0220DC
:10D31C00B80902206069022008B5FFF799FE0DF0EC
:10D32C00A9FA0B4B186030B10A4B1B68092B02DDB4
:10D33C0009480DF0A5FA084C0020FFF7EFFE002875
:10D34C00FAD14FF0FF3120460DF0C6FAF4E700BFDA
:10D35C00B00A0220A409022060690220F8B50E4F21
:10D36C003D7875B9FFF774FE0C4C0D4E361B36111B
:10D37C00B54207DB0020FFF7D1FE0028FAD10123CC
:10D38C003B70F8BD63685B791BB1236820461B6951
:10D39C00984701351034EBE76D200220B4E0010012
:10D3AC00B4E0010007B504380190D0E8EF3F5A1EF5
:10D3BC00C0E8E12F0029F8D1012B03D101A90348C2
:10D3CC000CF0B4FC03B05DF804FB00BFE4090220D0
:10D3DC00202302491A46024810F096B8D04E02207B
:10D3EC00B40A0220002337B5094D01930120FFF741
:10D3FC0095FE0446FFF706FE002201A928460CF014
:10D40C0069FC08B1002CF1D1019803B030BD00BF0C
:10D41C00B40A022007B5002201A9064801920CF0BB
:10D42C0059FC10B1FFF7DEFF0190019803B05DF8D5
:10D43C0004FB00BFB40A0220F0B5047A467A85B02A
:10D44C0014F0010401904FEA16160ED0019B1A7AC3
:10D45C00920704D55B69184C0393039B2BBB01A962
:10D46C0015480CF063FC05B0F0BD002EEED025463F
:10D47C0017E029460EF079F90746FFF741FE78B11F
:10D48C003CB9019B314618690EF0EDF804460028B2
:10D49C00DCD024FA05F3DB0702D53846FFF782FF10
:10D4AC000135AE420198E4D8D0E71D6803A92046A7
:10D4BC000CF03CFC0395D0E7B40A022001230021B8
:10D4CC00074A10B5074C1360A04204D801B1136091
:10D4DC00054B186010BD40085B000121F4E700BF4C
:10D4EC00D40A022040420F00D00A0220014B1860DF
:10D4FC00704700BFD80A022003682DE9F041D0F82C
:10D50C0008C005469F68CEB24AB10C2373435CF841
:10D51C0003309A425BD013B11B68002BF9D14FF04A
:10D52C002003EFF3118083F31188BFF36F8F0C216D
:10D53C0071430CEB01031C7A0134E4B21C7280F3CE
:10D54C001188BFF36F8F22B34FF0030E2248C0F83F
:10D55C0008E3587AA0B94FF0200EEFF311888EF340
:10D56C001188BFF36F8F1060D3F804E0BEF1000F89
:10D57C0020D15A604CF8012088F31188BFF36F8FCB
:10D58C000321154BC3F8041318B1D2E90131284615
:10D59C009847012C0CD14FEA061857F808306BB994
:10D5AC0001224744BB7A03F1804303F5A0431A6080
:10D5BC0000200EE0CEF800205A60DDE728469847A0
:10D5CC000028EDD1314628460EF0A1F9F0E76FF0B6
:10D5DC000F00BDE8F08100BF0050004010B50022E4
:10D5EC0004460121052000F0BFF9052000F0ACF93C
:10D5FC000222074B0020C3F818250322C3F804238A
:10D60C00A368C3E90000A368C3E9030010BD00BF11
:10D61C000050004008B5104B1A6862B10F4AD2F89E
:10D62C000423D10707D500220D481A608368597A64
:10D63C0009B90EF06CF90B4B1A6862B1074AD2F8B3
:10D64C000423920707D5002201211A600448BDE883
:10D65C0008400EF05CB908BD00510040005000407D
:10D66C006C6802200451004000220D4BC3F840218D
:10D67C004FF02002EFF3118182F31188BFF36F8F0B
:10D68C00084AD3F804051368C01A20F07F400344FD
:10D69C00136081F31188BFF36F8F0DF025BB00BFB2
:10D6AC0000500140F40A022070B515480CF082F9C4
:10D6BC0010B3436801211B689847002401264FF4DE
:10D6CC0080334FF400120F4D3146C5F80845C5F8AC
:10D6DC004065C5F804330C4B15201C600B4BC3F88C
:10D6EC008021224600F040F9152000F02DF920464B
:10D6FC00074B1E602E6070BD4FF0FF30FBE700BF84
:10D70C00ECF40100005001404051014000E100E008
:10D71C000850014070B5254CB0F1FF3F08BF2046C2
:10D72C004FF02003EFF3118583F31188BFF36F8F54
:10D73C001F4BD3F804151F4B1B68CA1A22F07F46E7
:10D74C0012021AD4421E22EAE272A242A8BF224658
:10D75C00701C1044A04294BF18181819411A21F0DB
:10D76C007F41134A20F07F430229C2F8403506D985
:10D77C0085F31188BFF36F8F70BD0022E8E7D2F8F4
:10D78C0004350D49C31A23F07F435C1E8C4205D926
:10D79C004FF40012094BC3F80021E9E7012B02BF3B
:10D7AC00023020F07F40C2F84005E1E7FEFFFF00A9
:10D7BC0000500140F40A0220FEFF7F0000E100E06F
:10D7CC004FF02002EFF3118382F31188BFF36F8FB8
:10D7DC00064AD2F80405064A1268801A20F07F40E7
:10D7EC0083F31188BFF36F8F704700BF0050014067
:10D7FC00F40A02204FF02003EFF3118283F3118817
:10D80C00BFF36F8F0649074B0868D3F8043582F3D2
:10D81C001188BFF36F8F1B1A23F07F431844704796
:10D82C00F40A02200050014004488168406A884292
:10D83C0003D003494FF080520A607047601D0220EC
:10D84C0004ED00E0094A0A4993680968586699662C
:10D85C0008494B6843F080534B60002383F31188D5
:10D86C00BFF36F8F9368986E704700BF601D0220E6
:10D87C00B8E6010000ED00E029498A684FF0280065
:10D88C001044EFF3098C80E8F01F4FF010001EEAF3
:10D89C00000F04D0D2F8AC0020F0040007E002F135
:10D8AC006C0080EC108AD2F8AC0050F00400C2F886
:10D8BC00AC00202080F31188BFF36F8F194F4FF00D
:10D8CC0000664A6A8A603E60506E0023536680F39D
:10D8DC001188D2F8AC0010F0040F05D10023E1EE52
:10D8EC00103A5EF0100E05E02EF0100E02F16C00F6
:10D8FC0090EC108AEFF3148323F0040383F3148861
:10D90C00BFF36F8F04B510460EF036F8BDE8044037
:10D91C0002F1280090E8F01F8CF309887047000092
:10D92C00601D022004ED00E01EF0040F0CBFEFF3AD
:10D93C000880EFF30980816911F8021C0229FFD0DD
:10D94C0001B50EF00EF801BD43B2002B08DB01222D
:10D95C0000F01F0002FA00F0024A5B0942F82300B3
:10D96C00704700BF00E100E043B2002B01F1010160
:10D97C00A8BF03F160434FEA4111B8BF054BC9B2D0
:10D98C00ABBF03F5614300F00F0083F8001319548B
:10D99C00704700BF14ED00E008B572B6044B186A6E
:10D9AC0018B100221A620FF0ADFD62B608BD00BFBF
:10D9BC00601D022073B51E460A9B05460093099B09
:10D9CC008C180FF0CCFF0C4AA4F1200323F00703B2
:10D9DC0022F001029A61069A1E605A60079A9A60B8
:10D9EC00089ADA604FF08072DA61AB6400236B66E0
:10D9FC00C5F8AC3002B070BDDDB501002DE9F041C9
:10DA0C001F4606460C4690460023E1EE103AEFF313
:10DA1C00148525F0040585F31488BFF36F8F00F08F
:10DA2C0019FC0A4B444430469E6024F007040DF068
:10DA3C00A3FF384684F30988002163B681F311886B
:10DA4C00BFF36F8F002200230DF0C2FD601D02207A
:10DA5C00014910220A60704710ED00E0404080F34D
:10DA6C00118830BF704700BFEFF30880EFF30981D6
:10DA7C00724601B500F0B0FA01BD00BF2DE9F047C8
:10DA8C0081468AB00C4600297AD001224FF000035F
:10DA9C003F4D62F307033F4A3F48AD1AC5F3C90532
:10DAAC0065F38F13ADF80030D1E9012309680DF04F
:10DABC0033FE01224FF0000362F3070365F38F136B
:10DACC00ADF80030D4E90423E16834480DF024FEAD
:10DADC0001234FF0000263F3070265F38F12E16933
:10DAEC002F480DF0EDFD27460026DFF8C0A0D7ED3E
:10DAFC00087AFCEEE77ACDED037AD7ED097AFCEEE5
:10DB0C00E77ACDED057AD7ED0A7AFCEEE77ACDED22
:10DB1C00077AD7ED0B7A0822FCEEE77A28F03F0360
:10DB2C0043F0010363F30708731C0493B31C0693BF
:10DB3C0065F38F18F31C029608930DEB0201434614
:10DB4C0050460436CDED097A0DF001FE102E07F18A
:10DB5C001007CCD101234FF0000263F3070265F3E9
:10DB6C008F12216E0F480DF0ABFD4FF00002012318
:10DB7C0063F3070265F38F12A1690B480DF0A0FD4A
:10DB8C00214648460BF042FF0AB0BDE8F08700BFC3
:10DB9C009CE001002CE0010016F5010045F50100A8
:10DBAC0074F50100C6F50100D5F5010083F50100FF
:10DBBC0030BFFFF7FDBF00BF114A08B5114B22F073
:10DBCC007F029A60BFF34F8FBFF36F8FD3F888201B
:10DBDC0042F4A002C3F888204FF04042C3F834222C
:10DBEC00BFF34F8FBFF36F8F0023E1EE103A0BF0B2
:10DBFC008DFF0BF095FF00F0FBFA0BF0C3FF00BF9D
:10DC0C0000C0000000ED00E001B572B60B4A106ACE
:10DC1C0000281EBF002111620FF074FC62B6EFF3F6
:10DC2C000580A0F110004FEAC0000549014409C964
:10DC3C009847BDE80140034908470000601D0220D9
:10DC4C0064DD010035D800000DF0E8FC202080F3E5
:10DC5C00118808484FF40061401880F30988EFF3ED
:10DC6C0014800221084380F31488BFF36F8FFFF7F1
:10DC7C00A3FF00000042022001234FF0000110B569
:10DC8C0063F307013A4C3B4B3B48E41AC4F3C90419
:10DC9C0064F38F110DF007FD384B9B6A990109D580
:10DCAC004FF00001012363F3070164F38F11344833
:10DCBC000DF0F9FC314B9B6ADA0109D54FF00001EC
:10DCCC00012363F3070164F38F112E480DF0EBFC75
:10DCDC002A4B9B6ADB0209D54FF00001012363F349
:10DCEC00070164F38F1128480DF0DDFC234B9B6A70
:10DCFC00180309D54FF00001012363F3070164F306
:10DD0C008F1122480DF0CFFC1C4B9B6A590309D58F
:10DD1C004FF00001012363F3070164F38F111C48DA
:10DD2C000DF0C1FC154B9B6A9A0309D54FF000010D
:10DD3C00012363F3070164F38F1116480DF0B3FC54
:10DD4C000E4B9B6ADB0309D54FF00001012363F3F3
:10DD5C00070164F38F1110480DF0A5FC074A002051
:10DD6C00936A6FEA03436FEA1343936210BD00BFDB
:10DD7C009CE001002CE0010063F7010000ED00E0E5
:10DD8C007BF701008EF70100A8F70100D2F7010024
:10DD9C00F0F7010015F801002FF80100F8B5012388
:10DDAC000E464FF00001374C63F30701364B074624
:10DDBC00E41AC4F3C90464F38F1134480DF073FCF6
:10DDCC00334B9B6AD90609D54FF00001012363F34D
:10DDDC00070164F38F112F480DF065FC2C4B9B6AE7
:10DDEC001A0709D54FF00001012363F3070164F30F
:10DDFC008F1129480DF057FC254DAB6A9B071CD59C
:10DE0C0001234FF0000163F3070164F38F112348E2
:10DE1C000DF049FC696BAB6A18060ED54FF0000289
:10DE2C00012363F3070264F38F121D480DF048FCC5
:10DE3C001FB1AB6A23F08003AB62154B9B6ADA0708
:10DE4C0009D54FF00001012363F3070164F38F112F
:10DE5C0014480DF028FC0E4B9B6A9B0609D54FF01D
:10DE6C000001012363F3070164F38F110E480DF0D9
:10DE7C001AFC0020064B9A6A9A6A42F0FF029A62D8
:10DE8C003070F8BD9CE001002CE001008BF6010025
:10DE9C0000ED00E0A1F60100D4F60100E7F6010068
:10DEAC00FFF6010015F7010034F70100F8B5012366
:10DEBC000E464FF000013D4C63F307013C4B074607
:10DECC00E41AC4F3C90464F38F113A480DF0EBFB68
:10DEDC00394B9B6AD90409D54FF00001012363F338
:10DEEC00070164F38F1135480DF0DDFB324B9B6A53
:10DEFC001A0509D54FF00001012363F3070164F300
:10DF0C008F112F480DF0CFFB2B4DAB6A9B051CD509
:10DF1C0001234FF0000163F3070164F38F112948CB
:10DF2C000DF0C1FBA96BAB6A18040ED54FF00002C3
:10DF3C00012363F3070264F38F1223480DF0C0FB37
:10DF4C001FB1AB6A23F40043AB621B4B9B6A5905B0
:10DF5C0009D54FF00001012363F3070164F38F111E
:10DF6C001A480DF0A0FB144B9A6AD20511D54FF04C
:10DF7C0000010123164863F3070164F38F110DF0C0
:10DF8C0092FB00200C4A936A43F47F4393623070F7
:10DF9C00F8BD9B6A9B04F4D54FF00001012363F399
:10DFAC00070164F38F110B48E9E700BF9CE0010007
:10DFBC002CE0010003F6010000ED00E019F6010071
:10DFCC00D4F601002AF6010043F6010058F60100D0
:10DFDC0073F6010034F701002DE9F043694B9DB055
:10DFEC00D3F80480064689461446C8F30807002572
:10DFFC0085F31188BFF36F8F02F07F43B3F17F4F2E
:10E00C0028D1D00726D4510603D4220712D40125D7
:10E01C0012E001234FF000015B4A63F307015B4BF5
:10E02C005B489B1ADB0863F38F110DF03CFB14F07B
:10E03C00040501D04E46002500238DF80730FB1E49
:10E04C00092B00F28280DFE803F0076B6F4E8080B3
:10E05C00808080732E46EFE701234FF000014FF0D4
:10E06C00000863F30701494F474B4A48FF1AC7F3AF
:10E07C00C90767F38F110DF016FB424B8DF8078023
:10E08C00DC6A14F002040BD04FF00001012342486B
:10E09C0063F3070167F38F110DF005FB002425E0F6
:10E0AC00DB6A5B0022D501234FF0000163F307010B
:10E0BC0067F38F1139480DF0F6FA394B1B782BB1F9
:10E0CC0001200DF10701FFF769FE0EE0354B1B78BF
:10E0DC002BB101200DF10701FFF7E8FE05E0324BF3
:10E0EC001B889BB213B1FFF7C7FD04469DF80730A0
:10E0FC009BB96822314602A80DF001FE099B002D48
:10E10C003AD0C3F3080222B96FEA53236FEA4323D0
:10E11C00099302A92046FFF7B1FC1DB0BDE8F083BE
:10E12C000DF107010020CEE70DF107010020D3E728
:10E13C0001234FF00001144A63F30701134B1B48F2
:10E14C009B1ADB0863F38F11A6E701224FF0000343
:10E15C000E4962F307030C4A1548891AC90818F4CA
:10E16C00F87F61F38F13A7F11002124918BF014613
:10E17C0011480DF0B9FA91E723F4FF7323F0010372
:10E18C00C6E700BF00ED00E02CE001009CE00100C0
:10E19C005AF801007DF8010094F80100B5F801006F
:10E1AC0028ED00E029ED00E02AED00E0D4F80100B4
:10E1BC001FF901000AF9010038F90100024A5369FC
:10E1CC0043F010035361704700ED00E0BFF34F8F35
:10E1DC000549064BCA6802F4E0621343CB60BFF3F7
:10E1EC004F8F00BFFDE700BF00ED00E00400FA0513
:10E1FC00002320210348C2180133412B82F800135D
:10E20C00F9D1704700E100E038B505464FF0200326
:10E21C00EFF3118483F31188BFF36F8F0CF054F973
:10E22C000A4B9B68AB420BD1094B5A68C2F30802EC
:10E23C0012B92046FFF706FB5A6842F080525A602A
:10E24C002046BDE838400FF0C1BA00BF601D022067
:10E25C0000ED00E010B50E4B88B002930D4B0E4C48
:10E26C0003930E4B0E4A049302AB019301A8234671
:10E27C00012100F051F9002307930A4B0121E41A04
:10E28C0005A80593069400F051F908B010BD00BF25
:10E29C000000022000000000000004200600010025
:10E2AC00000002200000022010B50B680C7A23F04D
:10E2BC001F0204F01F031A43CB68640923F01F03E9
:10E2CC00044943EA440343F001038860CA600B61CC
:10E2DC0010BD00BF90ED00E008B54FF00002012327
:10E2EC00074963F30702074B5B1ADB08014663F32C
:10E2FC008F1205480DF0E4F96FF0150008BD00BF52
:10E30C002CE001008CE0010095F901002DE9F04FA3
:10E31C0007468846144600265E4D85B046453DDAD4
:10E32C0057F82630D3F80490B9F1000F59D0B9F151
:10E33C001F0F22D919F01F0F1FD1D3F800A01AF00C
:10E34C001F0F1AD150460DF042FB834609EB0A0011
:10E35C0001380DF03CFB834524D06FF0150B0123E5
:10E36C004FF000024C4963F307024C4B4C485B1ACC
:10E37C00DB0863F38F1259460CE001234FF00002C7
:10E38C00454963F30702454B46485B1A3146DB08A7
:10E39C0063F38F120DF094F96FF01504204605B05D
:10E3AC00BDE8F08F1BF1160FD9D0631E5B45D6DB91
:10E3BC00C5F808B0E868C5F808B02B6957F82610FE
:10E3CC0020F01F0043F01F0AD1E900321A44984292
:10E3DC0002F1FF3918D1CA4505D15FFA8BF00DF067
:10E3EC00D3FA01369AE7C5F808B0EB6822F01F02A1
:10E3FC0003F01F031A43EA60E0B20DF0C5FA10F106
:10E40C00160FC9D0441CECE7C5F808B02A69013BCB
:10E41C0023F01F0302F01F021343CA45E0B22B6125
:10E42C00EBD00DF0B1FA10F1160FB5D0C5F808B05D
:10E43C00EA689DF808300AF1FF3A62F304038DF89C
:10E44C0008302B699DF808205B0863F3471257F8D6
:10E45C0026308DF80820D3E900130B44009323F0E9
:10E46C001F03441C5344A3EB0903E4B223F01F0322
:10E47C000F2C039308D92046FFF72EFF10F1160F2F
:10E48C00044689D00134ACE769462046FFF70CFFFF
:10E49C00F8E700BF90ED00E02CE001008CE00100FB
:10E4AC0072F901004FF901000522034B5A60BFF3CA
:10E4BC004F8FBFF36F8F704790ED00E0BFF35F8F0E
:10E4CC000022014B5A60704790ED00E070B50E4D84
:10E4DC002E68102E15D80024FFF7F0FF0B4B0C4ABA
:10E4EC001A63A64205D10B4B1E70FFF7DDFF00200F
:10E4FC0070BD6968204601EB0411FFF7D5FE0134AD
:10E50C00EFE74FF0FF30F3E700E1010090ED00E0A2
:10E51C00AAFF44006E20022010B5034C2278FFF7AE
:10E52C00F5FE207010BD00BF6E2002202DE9F74FC4
:10E53C00254C8A4680460027A1464FF0140B234DEC
:10E54C0057451ADAD8F804300193002B36D0D8F896
:10E55C000010084600910DF03AFADDE9001306466A
:10E56C00581801380DF033FA8642194A08D0142392
:10E57C005F436FF0150349F8073003B0BDE8F08F27
:10E58C0016F1160F2660F8D01378B342F5DD0BFBAD
:10E59C000793AE60AE60E868197B60F304011973F1
:10E5AC002969187B490861F347101873EB6823F04D
:10E5BC001F0363602B6923F01F032361013714349D
:10E5CC0008F10C08BCE700BFF80A022090ED00E04F
:10E5DC006E20022070B50C4B0E461C780546234667
:10E5EC0000210A4A0F2B0BDD094951F8040BFFF7E8
:10E5FC005BFE224631462846BDE87040FFF786BEDA
:10E60C00936011610133EDE76E20022090ED00E084
:10E61C00F80A02202DE9F04F1E460023A3B0CDE9E5
:10E62C0002010193134613F8010B089358B12528E6
:10E63C0000F085800399029B9847013040F01A84C2
:10E64C004FF0FF330193019823B0BDE8F08F232CDA
:10E65C006CD061D8002CF6D0202C0E9B08BF012367
:10E66C000E93CDF82080DDF82080B74818F8014BC8
:10E67C0021460DF004FB0028E9D12A2C66D156F86E
:10E68C00043B98F80040002B0993BFBF5B420993F1
:10E69C0001230F93089B03F102082E2C7BD198F8D1
:10E6AC0000302A2B74D156F8045B08F1010818F8D5
:10E6BC00014B2146A54827460DF0E1FA00286DD004
:10E6CC00434613F8014B682F089307D1682C05D1EA
:10E6DC00482708F1020398F801400893672C7BD86F
:10E6EC00652C80F03581472C5CD8452C80F030812E
:10E6FC00002CA8D0252C00F0B98303992520029B6F
:10E70C00984701309CD003992046029B98470130D2
:10E71C0096D0019B0233AFE32D2C0AD0302C0BD0BA
:10E72C002B2C0B9B08BF01230B939AE74FF0010B8B
:10E73C0097E701230F9394E701230A9391E70023B2
:10E74C000A930E930B930F939B468CE7A4F1300323
:10E75C00092B0990A1D80A22DDF8208018F8014B6A
:10E76C00A4F13003092B98D8099B02FB0344A4F1B4
:10E77C003003CDE90883EFE7904601FB0535303DCA
:10E78C00424612F8013BA3F130000928F4D98EE778
:10E79C0000250A21F4E74FF0FF358AE7CDF82080F9
:10E7AC0007469BE7632C59D020D8582CA5D16F2C49
:10E7BC0006F10409316840F02883BBF1000F00F02A
:10E7CC00178330238DF86C30002940F01B838DF8B3
:10E7DC006D100F46012625E0702C00F0F58227D82D
:10E7EC006E2C00F0DE82E2D8692C86D1376806F1F7
:10E7FC000409002F80F29A802D2379428DF86C3019
:10E80C000DF16D0630460A220DF0C5FA0B9B06443D
:10E81C001BA8361A002B40F032830E9B002B40F0C5
:10E82C002E83FF0F002D21DA0025AB46A846E1E030
:10E83C00752CBCD0782CBAD0732C7FF45EAFB1465B
:10E84C00002DB8BF6FF00045002659F8043BB542C7
:10E85C0040F0C9822E4600252F4608E00027B1461D
:10E86C003D46012659F8043B8DF86C301BABEA1978
:10E87C000025AB46A846921B22EAE272911906913A
:10E88C00099990190C1A0F9911B9002C00F31483E3
:10E89C0003EB070A534540F0138312F1FF3280F06B
:10E8AC001D83F61BB8F1000F11D09AF800000AEB8B
:10E8BC000607A0F13003092BA7EB0A0640F21983D7
:10E8CC00474617F1FF3780F01D83A6EB0806BBF116
:10E8DC00000F15D00AEB06071AF8018B0399404676
:10E8EC00029B984701303FF4ABAEB8F12E0FA7EB6B
:10E8FC000A06F1D15F46002F00F30D83A6EB0B0641
:10E90C0095B19AF800000AEB0607A0F13003092B29
:10E91C00A7EB0A0640F20A832E2800F007832F4645
:10E92C00002F00F30C83761B56441BE30B9B23B187
:10E93C002B238DF86C30394662E70E9B0BB12023EC
:10E94C00F7E739461BAE5DE7BBF90100C1F90100E1
:10E95C0006F1070929F00709F9E80223D80240EA71
:10E96C005250D60220F00040002AC3F30A510496FC
:10E97C00059073F10003DDE90467CDE9166741DA10
:10E98C002D238DF86C300DF16D0740F2FF73994219
:10E99C0053D1DDE904120A43A4F1410407F1030346
:10E9AC0040D1192C38D849223A704E227A7046221E
:10E9BC000025AB46A8461BAEBA70FD709B1B0B9A8C
:10E9CC00002A40F0EC810E9A002A40F0E8819DF874
:10E9DC006C70A7F12D025742574105EB08063344E2
:10E9EC0003EB0B0622AB3B4413F81C3C303B092BCE
:10E9FC0000F249820A9B002B00F04882099B9A1B6B
:10EA0C001BAB39E70B9B0BB12B23BAE70E9B0BB15E
:10EA1C002023B6E71BAFB8E769223A706E227A70F2
:10EA2C006622C5E7192C99BF4E2241216E22612125
:10EA3C0094BF3A703A707970BAE7049B05980B430F
:10EA4C001093CB170343462C119308BF6624DDE9C2
:10EA5C001023134300F01181002900F09B80002645
:10EA6C00179BA1F2FE3843F00043179318F1020FE5
:10EA7C00C0F2A480B8F1000F00F3DD8016A808F1F5
:10EA8C0001080DF0AAF9B8F1040FF7D1002D04F02C
:10EA9C00DF03B8BF0625472B40F0F880F11C02DBE2
:10EAAC00AE4240F3ED80023CE4B2002D00F0F48065
:10EABC00013DBBF1000F40F0EF80002DD4BF4FF0B3
:10EACC00000A4FF0010A662C40F0E88016EB0508AE
:10EADC0040F1EC80102366244FF0000815930022BF
:10EAEC004FF00063CDE9182318F1FF3880F0E08077
:10EAFC00169B189A19999B18179A41EB0202CDE9AB
:10EB0C00163202F07043129300231393DDE91223A3
:10EB1C00134306D016A80DF071F916A80DF05DF987
:10EB2C000136662C40F0E180002E40F3C880159B26
:10EB3C00002B07DD15A916A80DF08BF9013E07F87F
:10EB4C00010BF4D1B0463B460026BBF1000F01D1BE
:10EB5C00002D15DD2E2203F8012B002E00F0C080B5
:10EB6C00002D40F3BF80C6F1000BAB45A8BFAB46F0
:10EB7C00A5EB0B05002D03DD159A002A00F3A680EA
:10EB8C00BAF1000F40F0C68000221BAE1A709B1B1E
:10EB9C0015E70139049BDB180493059B5B41059336
:10EBAC00DDE90423002A73F10003F2DADDE9042322
:10EBBC00CDE9162353E716A80DF00FF9DDE916EC95
:10EBCC0000230021CDF830C00D93BC48DDE90C23A7
:10EBDC00994208BF904208F10108ECD30520AEFB26
:10EBEC000023CDE90623079B013E00FB0C334FF0BD
:10EBFC00000C0793DDE90623CDE916230021002341
:10EC0C006FF0004207988B4208BF824208D2BCF1D9
:10EC1C00000F3FF42BAFDDE90623CDE9162325E7E2
:10EC2C00069B08F1FF38DB180693079B4FF0010C8D
:10EC3C005B410793E2E716A80DF0E0F8DDE916AEAC
:10EC4C004FF0000C08F1FF380136002300216FF063
:10EC5C000040994208BF704506D2BCF1000F3FF44A
:10EC6C0009AFCDE916AE05E71AEB0A0A4EEB0E0E0C
:10EC7C0008F1FF384FF0010CE7E70026B046FDE63F
:10EC8C00AD1BBBF1000F04D1662416E74FF0000A50
:10EC9C0019E74FF0000A19E74FF0000A05F10108D7
:10ECAC00102398451593A8BF984618E76624F7E7F4
:10ECBC0018A80DF0A3F818A80DF08FF814E73B4630
:10ECCC0030224FF0000803F8012B3EE715A916A8D7
:10ECDC0006930DF0BEF8069B013D03F8010B49E7C6
:10ECEC00B34647E74FF0000B4AE715A916A80DF0FD
:10ECFC00B0F83028387018BF06F1FF36BBF1000FA2
:10ED0C0038D1002D36DC7B1CBAF1000F44D04FF00B
:10ED1C00000BD8461A4613F8011D3029FAD02E29BB
:10ED2C0018BF1346002504F0DF02452A7FF42CAFF0
:10ED3C00002EB4BF2D222B221946B8BF7642632E6B
:10ED4C0001F8024B5A7008DD642096FBF0F200FBD0
:10ED5C00126602F13004D91C9C700A2096FBF0F26A
:10ED6C000B4600FB126602F13004303603F8024BFE
:10ED7C004E7009E72E22BB1C7A70002DC4DD159A4B
:10ED8C00002AC1DD15A916A806930DF062F8069BA2
:10ED9C00013D03F8010BF0E7D346D046C3E701274A
:10EDAC001BE6B146682F59F8043B05D001DC482F0F
:10EDBC0007D0019A1A6001E0019A1A804E46089A0F
:10EDCC0030E4019A1A70F9E7B14647F63003102285
:10EDDC0059F8041B0DF16E00ADF86C300CF0DBFF34
:10EDEC000227861C1EE59A5D002A4AD001362EE5C4
:10EDFC001BAC082220460CF0CEFF1BAEA61B064413
:10EE0C0000270FE50DF16D04F3E7752C05D10A22EF
:10EE1C001BA80CF0C0FF0646F2E7BBF1000F12D0A6
:10EE2C0047F630030DF16E08ADF86C3010224046F9
:10EE3C000CF0B1FF582C09D01BAEA8EB060606440B
:10EE4C004FEA4B07EEE40DF16C08EFE71BAA12F842
:10EE5C00013BA3F16101192903D8203B02F8013CC5
:10EE6C00F5E712F8013C002BF1D1E5E703992046B8
:10EE7C00FFF7E1BB019B01330193B1469EE70127EC
:10EE8C00D0E41546E8E41BAB0022F7E41BAB0A9A6E
:10EE9C00F4E4CDE909320399029B20209847DDE97F
:10EEAC00093201303FF4CCAB1AF1FF3AF1D201999F
:10EEBC00214401915446EBE4A246F5E73233333357
:10EECC0013F8010B03990993029B0A929847DDE909
:10EEDC00093201307FF4DEACFFF7B2BB039930206E
:10EEEC00029B099298470130099A7FF4D6ACFFF740
:10EEFC00A7BBDDE90231984701303FF4A1AB1AF80A
:10EF0C00010FD6E403993020029B984701307FF41F
:10EF1C00D8ACFFF795BB03993020029B9847013082
:10EF2C0007F1FF377FF4E7ACFFF78ABBDDE902316D
:10EF3C00984701303FF484AB1AF8010FE5E40399CC
:10EF4C003020029B9847013007F1FF377FF4E8AC83
:10EF5C00FFF776BB03991AF8010B029B9847013017
:10EF6C003FF46EABA6EB0A03002BF3DC019B069A75
:10EF7C00002C134401937FF721AF254606E003993B
:10EF8C002020029B984701303FF45AAB15F1FF3516
:10EF9C00F5D2019B2344019310E700BF0CB41FB5BD
:10EFAC0009B90DF10300CDE9020107AB069A02A9DC
:10EFBC0005480193FFF72EFB0022029B1A7005B047
:10EFCC005DF804EB02B070478DBE010038B5074CFC
:10EFDC00074DAC4200D138BD23681B685B681BB180
:10EFEC001B680BB1204698472034F2E7E0690220F9
:10EFFC00006A022038B5084C084DAC4200D138BD2F
:10F00C00206803210C300CF061FF10B920460CF085
:10F01C0063FF2034F1E700BFE0690220006A0220A0
:10F02C0000232DE9F04F022889B081468A4690468C
:10F03C00CDE906333CD106AA10460491194606E0E8
:10F04C000478013101340470CCB2072C03D83AF89F
:10F05C001140002CF4D00133082B00F10100EDD14C
:10F06C004FF0FF360127002312F8011BB94288BF6D
:10F07C005EB203F10103DBB288BF0F46082BF3D15C
:10F08C000393012F4FF03A0308BF4FF0FF36029362
:10F09C00002244461546039B9D4219DB444509D08A
:10F0AC000023B9F1010F0CBF04F8013C237003E0FD
:10F0BC00012805D04FF00008404609B0BDE8F08F9C
:10F0CC002E2304224FF0FF36CDE902320746DFE74C
:10F0DC00039B042B34D11AF8051049B93023204670
:10F0EC0000F8023B029B63700135EDB20446D2E797
:10F0FC0009204FF0000BDFF8D8C00194B1FBFCFEE7
:10F10C000CFB1E138345059301DC614506D3834636
:10F11C00019B0EF1300E03F801EB01930A23013829
:10F12C00BCFBF3FC431C0599E8D14FF0000301999B
:10F13C000B700B1BDBB20299E0180130E154D3E7E2
:10F14C00AE420DD102B916B93A2304F8013B3A2369
:10F15C00204600F8013B7B1E1D44EDB20022C3E7A4
:10F16C0012B13A2304F8013B049B33F815301A0210
:10F17C0042EA132212B2C2F307235FFA82FBB3B145
:10F18C000F2BD9B20BD90023612220460CF0D5FEEF
:10F19C000123612259460CF0D0FE0122A4E75BB298
:10F1AC00092994BF30335733601C2370F0E7BBF14F
:10F1BC000F0F03D9612259462046ECE752B2BBF13E
:10F1CC00090F94BF30325732601C2270E5E700BF44
:10F1DC0000CA9A3B2DE9F0410F6890F860503B4B08
:10F1EC003B4A064690F85E00053704280CBF1046D3
:10F1FC0018460F600C460CF088FFC5F3400503461B
:10F20C0038B9D4E90020904296F85E1004D16FF022
:10F21C000B031846BDE8F081501C20601170D4E936
:10F22C0000829045F3D008F10102226088F800308A
:10F23C002146B6F85C000CF056FF03460028E8D1D6
:10F24C0006F12C000CF061FF03460028E1D1306C74
:10F25C006D00D8B196F8603045F0040503F0010359
:10F26C0045EA4315037A2146DB0003F018031D43DE
:10F27C000CF04BFF03460028CBD1736C214613B323
:10F28C0018460CF042FF03460028C2D1B06B38B1CF
:10F29C0021460CF03AFF03460028BAD145F0800510
:10F2AC00F06B38B121460CF030FF03460028B0D18A
:10F2BC0045F0400588F8005022463946BDE8F0413B
:10F2CC0010200CF03DBF0CF00EFFDCE728E1010034
:10F2DC0030E1010010B50446D0E900031B1A012BE4
:10F2EC0008D9022205490CF00AFD002023680233DC
:10F2FC00636010BD6FF00B00FBE700BFDCF9010091
:10F30C0010B50446D0E900031B1A012B08D90222C0
:10F31C0005490CF0F4FC002023680233636010BD37
:10F32C006FF00B00FBE700BFE8F9010070B5114D61
:10F33C00466B2B6804461B680622012130889847CF
:10F34C000028A06204DA0AF05BFB0068404270BD42
:10F35C003388616B012B2B6814BF182208225B6960
:10F36C009847002804DA2B68A06A5B689847EAE79C
:10F37C000020ECE7D80A02202DE9F84306460F4698
:10F38C0015460024DFF83080AC4201D300200EE09B
:10F39C00D8F800302A1BD3F82C9039190023B06A06
:10F3AC00C847002805DA0AF02BFB00684042BDE88C
:10F3BC00F8830444E8E700BFD80A0220002B084B6E
:10F3CC0010B51B68806A5C6A0CBF40230023A04701
:10F3DC00002803DA0AF014FB0068404210BD00BF9D
:10F3EC00D80A022008B5074B806A1B685B689847EF
:10F3FC00002804DA0AF004FB0068404208BD002033
:10F40C00FCE700BFD80A022090F82430014A1B0107
:10F41C00D358184738E1010010B4044B90F824403D
:10F42C0003EB04135B685DF8044B184738E10100EB
:10F43C0030B490F82450034C04EB0514A468A44693
:10F44C0030BC604738E10100C26808B542B1074BD7
:10F45C0082689B689A4206D10AF060FE002008BDC3
:10F46C006FF01500FBE74FF0FF30F8E7601D02204E
:10F47C0013B50A4C206818B909480AF09BFA2060A9
:10F48C00042243680DEB02011B689847002802DA3E
:10F49C00FEF7B0F90190019802B010BD0C0B0220E0
:10F4AC00EAF9010008B5094B1A786AB90121312033
:10F4BC0019700521FEF758FA3120FEF745FA4FF086
:10F4CC000042034BC3F80423002008BD6F20022028
:10F4DC000010034070B5036882689B68514C187922
:10F4EC0001F01F0343EA40130020D4F80453EDB29B
:10F4FC0000F5A27654F82660C6F30426B34270D108
:10F50C0025FA00F6F6076CD5850005F1804505F562
:10F51C004435D5F8106526F00106C5F810650125AF
:10F52C0005FA00F0C4F808033F4D05EB8305D5F848
:10F53C00000220F44030C5F800029068C84010F07A
:10F54C0001004DD0D068C84010F0010048D050697F
:10F55C00C84010F0010050D09069C840C00744D496
:10F56C001069D269C84022FA01F100F0010001F0E3
:10F57C000101884214BF01210221002505F5A27268
:10F58C0054F8220010F0030031D1AA0002F180429D
:10F59C0002F54432D2F810651B0203F4F85326F43A
:10F5AC00473626F4407643EA014105F14003C2F8A0
:10F5BC0010659B00D2F810659BB203F1804303F5F4
:10F5CC0044333143C2F810151860D2F8103543F0AB
:10F5DC000103C2F81035012303FA05F5C4F80453EE
:10F5EC0070BD0130082883D19EE70321C5E70135A2
:10F5FC00082DC3D16FF01200F2E71369D2695340A2
:10F60C0023FA01F111F0010F14BF4FF400324FF443
:10F61C004032D5F8003223F440331343C5F800329E
:10F62C00DEE700BF00100340002584402DE9F74FB2
:10F63C008046856803F47040B0F5804F1E4640D07C
:10F64C0009DCB0F5805F3ED0B0F5405F3DD090B1A5
:10F65C006FF0150032E0B0F5E04F38D004DCB0F5B7
:10F66C00A04FF5D1032006E0B0F5404F31D0B0F5F6
:10F67C00504FEDD1072006F44077B7F5807F2AD0A4
:10F68C00A7F5007463426341012919BFD4B2A146A6
:10F69C004FF01F0900244FF0010B06F0010C4FEA4C
:10F6AC004C0747EA0C0747EA0020DFF8A0A040EA25
:10F6BC00830706F00203A1450FD2002003B0BDE87A
:10F6CC00F08F0220D7E70120D5E70420D3E70520EF
:10F6DC00D1E70620CFE70323D6E7D8F800209268BD
:10F6EC00117904F01F0242EA411280324AF822706A
:10F6FC00A9680BFA04F2002B25D01143A9606969A3
:10F70C00B0064CBF114391436961A96970064CBFA7
:10F71C0011439143A961296970074CBF114391436F
:10F72C002961E96930064CBF0A4321EA0202EA6109
:10F73C00214640460193FFF7CDFE0028BED101348F
:10F74C00E4B2019BB7E721EA0201D7E70025844028
:10F75C004F492DE9F0410D68002D60D04D4B00262E
:10F76C009A681B68DFF838E19F68D2E9020303400E
:10F77C00D2E90504204323EA00033868D4691269EE
:10F78C00006954404440012023EA040493BB0B60FD
:10F79C00002301201F464049404ED1F8042300FAB3
:10F7AC0003FC1CEA020F0DD056F8232052B103F5CE
:10F7BC00A27251F8222046F82370C2F3042200FAF8
:10F7CC0002F214430133082BE7D154BB85B1012459
:10F7DC000025304BDFF8C8C09A681B689E68D2E9D8
:10F7EC0002130B40D2E90510014323EA01037BBB52
:10F7FC00BDE8F08103420FD097F804C006F01F0259
:10F80C0042EA4C120EEB8202D2F800C223EA000349
:10F81C002CF4403CC2F800C201364000B6E72C463E
:10F82C00B6E71C4FD7F80880D8F800100029CDD0C7
:10F83C000E68D8F80C308A682340134203D04B680A
:10F84C00224638469847002EC0D031463668F0E73D
:10F85C001C421AD0307905F01F01D76941EA4011DA
:10F86C0010690CEB81017840E84010F0010F14BFD7
:10F87C004FF400374FF44037D1F8000223EA040369
:10F88C0020F440303843C1F8000201356400AEE783
:10F89C007C110340A86802200010034000110340B3
:10F8AC0000258440002208B511462A20FEF75CF89A
:10F8BC0003F0C8FF014B1860002008BD300B02207C
:10F8CC0070B50D4B0D4C1A680A2500262346196895
:10F8DC0081420ED051B15968511AB142C4BF1C4675
:10F8EC000E46013D03F10803F1D12346013A18609D
:10F8FC005A60184670BD00BF340B0220400B02202A
:10F90C00684620F007018D4619B50D4BD3E8EF2F53
:10F91C000132C3E8E12F0029F8D108F0C5F8094BF2
:10F92C001C683CB9FEF738F8FDF77EFFBDE81940BE
:10F93C0085467047201D0AF0A3FF2468F1E700BF3D
:10F94C00340B0220380B02202DE9F04F884689B089
:10F95C000EF0BBF8D8F800300646002B0F4603D14A
:10F96C000AF014FF3C206EE0BCBF4FF0FF33C8F828
:10F97C0000300122002102A80DF0D6FF0DF1040A7F
:10F98C004FF02003EFF3118B83F31188BFF36F8FCC
:10F99C000AF070FFFFF794FF334943680A68894601
:10F9AC0093424FF0000308D10193304B5A68002A60
:10F9BC004CD1C3E900AA012300E042608BF311880B
:10F9CC00BFF36F8F002B3DD0D8F8001002A80AF0BF
:10F9DC0083FF4FF02003EFF3118B83F31188BFF3F8
:10F9EC006F8F0020214B1A6852B1524539D10199C1
:10F9FC0088BB58681960904200D15960002301936C
:10FA0C000AF038FFFFF75CFFD9F8003043608BF346
:10FA1C001188BFF36F8FD8F80090B9F1FF3F11D068
:10FA2C000EF053F816EB090247EBE973141A63EB6B
:10FA3C000105002C75F10003B8BF0024C8F8004084
:10FA4C00002C8FD0002009B0BDE8F08FC2F800A0C8
:10FA5C00C3F804A0AFE701605968914208BF586031
:10FA6C00CCE710461268BFE7340B0220380B02209B
:10FA7C002D2810B504460CD038DC0E2809D011DC2A
:10FA8C00082806D009DC022803D0052801D001285B
:10FA9C0019D10CF082FF046010BD0C28F9D057DC92
:10FAAC000928F5E7282800F0838005DC1828F0D019
:10FABC00232852D01628EBE72A28EAD051DB2B2832
:10FACC00E7D02C2851D001234FF000023A4963F3C0
:10FADC0007023A4B3A485B1ADB0863F38F12214654
:10FAEC000BF0EEFD0CF059FF364B34E03C28D0D037
:10FAFC0015DC3328CDD005DC3028CAD0322838D0DC
:10FB0C002F28C5E73628C4D001DC3428C0E73828B4
:10FB1C00BFD03928D7D10CF040FF39231BE07D280A
:10FB2C0033D009DC702828D073282AD06928CAD190
:10FB3C000CF033FF37230EE07F282FD029DB8028F1
:10FB4C0031D08128BFD10CF028FF40F2D47302E0F1
:10FB5C000CF023FF0D2303609EE70CF01EFF0B231C
:10FB6C00F9E70CF01AFF2923F5E70CF016FF2C230C
:10FB7C00F1E70CF012FF3E23EDE70CF00EFF4323F0
:10FB8C00E9E70CF00AFF4423E5E70CF006FF4823F5
:10FB9C00E1E70CF002FF40F2D173DCE70CF0FDFE64
:10FBAC0040F2D273D7E70CF0F8FE40F2D373D2E7F1
:10FBBC000CF0F3FE2423CEE72CE001004CE0010016
:10FBCC00FBF90100ADBAADBA4FF08052014BC3F84E
:10FBDC000021704700E100E04FF08052014BC3F868
:10FBEC008021704700E100E04FF00052014BC3F858
:10FBFC000021704700E100E04FF00052014BC3F8C8
:10FC0C008021704700E100E008B50023074AC2E9F3
:10FC1C000033074AD2E8EF1FC2E8E03F0028F9D1D1
:10FC2C000CF0E6FEBDE808400CF0D7BE380B022005
:10FC3C00340B0220B0F58D7F3CD004DC012844D07D
:10FC4C004FF0FF30704740F20223984252D040F2FE
:10FC5C0003239842F4D101391329F1D801A353F8A5
:10FC6C0021F000BF0DFD0000D1FC0000F1FC0000F4
:10FC7C00E3FC0000F5FC0000F9FC0000FDFC0000BA
:10FC8C004DFC00004DFC00004DFC00004DFC000044
:10FC9C004DFC00004DFC00004DFC00004DFC000034
:10FCAC004DFC00004DFC00004DFC00004DFC000024
:10FCBC00E7FC000001390529C2D8DFE801F0031583
:10FCCC0017190C21022313600AE0142905D01929F5
:10FCDC0005D00429B4D10423F5E71423F3E711600C
:10FCEC00002070470323EEE70523ECE70623EAE741
:10FCFC000723E8E70229E5D00329F3D001299FD196
:10FD0C000123E0E70122034B1860036802489A764E
:10FD1C00FDF7ECBB900B022074E101002DE9F843D8
:10FD2C0006460F460024DFF86880DFF8689026FA54
:10FD3C0004F327FA04F21A43D2071ED509EBC402C6
:10FD4C0058F824001279DB43416803F001034D6835
:10FD5C000021A847054680B101234FF00001094A54
:10FD6C0063F30701084B09489B1ADB0863F38F11F7
:10FD7C000BF099FC2846BDE8F8830134042CD6D14D
:10FD8C000025F7E72CE001005CE001002FFB0100EF
:10FD9C00F80B0220D4E10100F8B54FF02003EFF38B
:10FDAC00118583F31188BFF36F8F0024194E1A4FFE
:10FDBC0007EBC40356F8040B1A7943685B69ABB1C3
:10FDCC00002198470134042C13D00028F0D00123D3
:10FDDC004FF00001114A63F30701114B11489B1AB4
:10FDEC00DB0863F38F110BF05EFC04E06FF0220074
:10FDFC00E8E70028EBD10C4B1A782AB901220B4901
:10FE0C000B481A700AF0B0FE85F31188BFF36F8FA0
:10FE1C00F8BD00BF940B0220B4E101002CE00100FE
:10FE2C005CE0010034FA010070200220C40B0220B7
:10FE3C00A01D02202DE9F3470024544FDFF88491D4
:10FE4C003E462546C84609EBC50356F8040B1A79FD
:10FE5C0043680021D3F808A001ABD04700284BD051
:10FE6C0001234FF000014A4A63F30701494B4A480A
:10FE7C009B1ADB0863F38F110BF015FC0024474B26
:10FE8C00D3E8EF2FC3E8E14F0029F9D1444BDFF859
:10FE9C0038911A78002A41D1D9F80060A64211D0C5
:10FEAC00404B66401B6813B13146204698474FF0D3
:10FEBC00FF313D480AF0C0F83C4B1D682DBB3A4859
:10FECC000AF02CF9C9F800405CB30A2238493948C9
:10FEDC000AF04AFE68B101234FF000012C4A63F38B
:10FEEC0007012C4B34489B1ADB0863F38F110BF082
:10FEFC00DAFB02B0BDE8F087019B13B90123AB40DC
:10FF0C001C430135042D9ED1B9E7043D002DD6D0FC
:10FF1C002B683146204698476D68CFE700221A704F
:10FF2C00D0E74FF02003EFF3118583F31188BFF373
:10FF3C006F8F224B1A78012A25D11C7008EBC40351
:10FF4C0057F8040B1A7943681B69CBB10021984709
:10FF5C000134042C01D00028F0D085F31188BFF3B4
:10FF6C006F8F0028C5D001234FF00001084A63F3BE
:10FF7C000701084B12489B1ADB0863F38F11B6E795
:10FF8C006FF02200E4E72046E7E700BF940B022065
:10FF9C002CE001005CE001004DFA0100080C02208D
:10FFAC0038680220A40B0220A80B0220BC0B0220F4
:10FFBC00C40B0220A01D022062FA01007020022056
:10FFCC007FFA0100B4E10100F00B0220F8B5002526
:10FFDC001D4C1E4F206809F0EDFC47F8040B88B946
:10FFEC0001234FF000011A4A63F30701194B1A4819
:04FFFC009B1ADB0869
:020000021000EC
:1000000063F38F110BF055FB6FF012063046F8BD0D
:100010002279436800211E680123B047064670B16B
:1000200001234FF000010D4A63F307010C4B0E480A
:100030009B1ADB0863F38F110BF03BFBE6E70135FE
:10004000042D04F10804CBD1BDE8F8400F21FFF7DF
:100050006BBE00BFD4E10100F80B02202CE00100D0
:100060005CE00100FDFA010015FB0100054BD3E83F
:10007000AF3F00B10360044811B102685A400A6002
:1000800003607047080C0220F40B02202DE9F84FA2
:10009000664B1860664D674F67480DF081FAB946A8
:1000A0000026A846286809F08BFC49F8040B90B993
:1000B00001234FF00001614A63F30701604B61487F
:1000C0009B1ADB0863F38F110BF0F3FA6FF0120445
:1000D0002046BDE8F88F2A79436800211C684FF458
:1000E0008073A047044670B101234FF00001534ACA
:1000F00063F30701524B54489B1ADB0863F38F11DB
:100100000BF0D7FAE4E70136042E05F10805C9D152
:100110000546484E08EBC50356F8040B1A794368A8
:1001200000211C684FF48173A0470135042D04465B
:100130000ED00028EED001234FF000013F4A63F3B8
:1001400007013F4B41489B1ADB0863F38F11D7E748
:100150000028F0D1054681464FF0010BDFF8D4A00E
:1001600008EBC5035AF8040B1E7943685B698BB131
:10017000324600219847044678B101234FF0000130
:100180002E4A63F307012E4B31489B1ADB0863F3B9
:100190008F11B5E76FF02204EFE701350BFA06F691
:1001A000042D49EA0609DBD106462A4D2A4BC5E94A
:1001B000013957F8040B4368DB688BB101222946EB
:1001C0009847044678B101234FF000011B4A63F3BE
:1001D00007011B4B21489B1ADB0863F38F118FE744
:1001E0006FF02204EFE70136042EE2D11C491D48CE
:1001F0000DF025FC01221C4B1A491A701B4822469F
:100200000AF0B8FC044660B101234FF000010B4A2C
:1002100063F307010A4B16489B1ADB0863F38F113F
:100220006EE70146FFF722FF52E700BFA40B022052
:10023000B4E10100940B0220A80B02202CE0010085
:100240005CE00100FDFA010097FA0100B4FA010038
:10025000CEFA0100E40B0220A5FD0000E9FA01003E
:1002600041FE0000C40B022070200220A01D0220CD
:1002700062FA010007B5019018B1D0F8983A0C3035
:10028000984701A9024809F057FD03B05DF804FB47
:100290002869022008B5094B40F201221B680021A1
:1002A0001B6866209847064B1860013004D109F09E
:1002B000ADFB0068404208BD0020FCE7D80A0220E0
:1002C0000C0C022010B586B0FFF7E4FF044688B19D
:1002D00001234FF000020F4963F307020E4B5B1A34
:1002E000DB08014663F38F120C480BF0EFF9204650
:1002F00006B010BD0A23CDE90400CDE90203CDE923
:100300000000074B4FF48062064907480AF064FB7F
:10031000EDE700BF2CE001003CE0010059FB0100CB
:100320002D030100C02C0220200C02202DE9F04FEB
:100330008D4B8E4DDFF858B2ED1A87B0C5F3C90565
:100340004FF0FF3203A98A4809F0CAFC0023894C08
:1003500003992268C1F8983A566A0C3104938DF8D3
:10036000143040F68C22DBF80000B047011E264610
:100370005ADA27F03F0343F0010363F3070765F3FD
:100380008F177D483A460BF0A1F92368DBF800008F
:100390005B689847002831D1FFF77CFF70BB28F0DD
:1003A0003F0343F0030363F3070865F38F184146E7
:1003B00072480BF07EF901238DF8143009F026FB0A
:1003C00003685B4204930399D1F8983A002B40F0FC
:1003D000A18003A9664809F0AFFC694B9B68002B1C
:1003E000AED19DF81420042AAAD0664A13604FF0BB
:1003F000FF3204A9644809F075FDA1E701234FF01D
:10040000000463F3070465F38F1409F0FFFA224632
:1004100001685E480BF05AF933685D4A5B68106802
:10042000984707B0BDE8F08F40F68C23994203D07F
:10043000039E3144CA7A72B129F03F0343F00103AD
:1004400063F3070965F38F19494652480BF031F9F8
:100450006FF03603B6E7042306F10C044E4920463C
:100460008DF8143001920BF0D6FB034620B1019AAF
:100470008DF8142004920EE0484920460BF0CBFB87
:10048000019010B3022206F117008DF814200BF032
:10049000ADFA019B049000211A1B013219709DF8DE
:1004A0001430042B4CD03E4C2368002B51D03D4ED1
:1004B000306800284DD093421CD903990C310BF0C1
:1004C00024FC0023236033607DE7374920460BF08E
:1004D000A2FB019008B10322D5E7344920460BF076
:1004E0009AFB0346002839D001228DF814206FF0C2
:1004F0000702BFE72AF03F0343F0010363F3070A53
:1005000065F38F1A51462A480BF0D3F86FF0230396
:100510000493D6E7274B00224B600B460A6043F852
:10052000082FD3E8EF2F42F00100C3E8E40F002CBE
:10053000F7D1D3073FF551AF1F480DF09DF84CE7B9
:10054000002A3FF440AF1D4B1A68039BC3F8982A5A
:1005500039E7002A3FF437AF0A4BF5E720460BF0A6
:10056000A2FB421C9BE700BF2CE001003CE0010025
:1005700028690220D80A0220F9FB01001BFC0100B7
:1005800078690220100C0220B86902202FFC0100BB
:100590000C0C022066FC0100B0FC0100B3FC010061
:1005A0001C0C0220180C0220BFFC0100CBFC010037
:1005B000D1FC010075020100A01D0220140C0220D4
:1005C000F7B507460D460BF06EFB234B02461B6842
:1005D00006462248DC6A394600230068A047431CCF
:1005E000044620D101234FF000041D4A63F30704A1
:1005F0001C4B9B1ADB0863F38F1409F007FA2246A1
:10060000016819480BF062F809F000FA03685B42D0
:10061000009301238DF8043015B19DF804302B7040
:10062000009803B0F0BD4FF0FF3269460F4809F063
:10063000ABFCA642F0D001224FF00003084962F360
:100640000703084A0A48521AD20862F38F13214658
:1006500032460BF04FF8DFE7D80A02200C0C0220DC
:100660002CE001003CE00100A4FB0100B86902207D
:10067000C7FB01002DE9F0410546884617461E4696
:100680000A4C4FF0FF3120460AF02CF9084B314656
:10069000C3F80080074B28461F60FFF791FF05460F
:1006A00020460AF0F3F82846BDE8F0817869022078
:1006B000180C02201C0C022038B50F4C054621688E
:1006C00079B181420DD002234FF000020B4863F351
:1006D00007020B4B1B1ADB0863F38F1209480AF061
:1006E000F5FF4FF0FF3108480AF0FCF82560064896
:1006F000BDE838400AF0CAB8140C02202CE0010012
:100700003CE001007BFB0100786902200B4B70B5D7
:100710001B6853B100251C461B6866688E4206D1D3
:10072000A668964203D123460560184670BD002B8B
:10073000FBD025461C461B68EFE700BFD00C02200B
:1007400010B50024034B0448C3E90044FFF7B4FF8D
:10075000204610BDD00C022069070100014809F0B5
:10076000E3BC00BFA469022038B505464FF0FF3155
:10077000094809F067FC094B1B681BB9BDE8384004
:10078000FFF7ECBF1C689A68294658689047002C10
:10079000F4D023462468F6E7A4690220D00C022096
:1007A00073B506460C4699B901224FF000031E4965
:1007B00062F307031D4A521AD20862F38F130146EF
:1007C00022461B480AF096FF6FF0150002B070BD7C
:1007D0004FF0FF31174809F035FC2246314601A899
:1007E000FFF794FF054618B1FFF7B8FF0020EDE7CB
:1007F0000C2009F05BFB019020B9FFF7AFFF6FF011
:100800003600E3E70C2229460BF0A9FA019B0A4ABD
:100810001D605168C3E9016411B9C2E90033E3E71F
:100820000B605360E0E700BF2CE0010044E00100F2
:100830001FFD0100A4690220D00C022037B5054637
:100840000C4699B901224FF00003224962F30703D5
:10085000214A891AC90861F38F13224601461F48AD
:100860000AF048FF6FF0150003B030BD002301937C
:100870004FF0FF311A4809F0E5FB2246294601A84E
:10088000FFF744FF88B902234FF00001124A63F3D7
:100890000701104B13489B1ADB0863F38F110AF012
:1008A00008FFFFF75BFF0020DEE7019A01680E4BAF
:1008B0004AB95A681960904200D159600023036018
:1008C0000CF057FEEDE711605968884208BF5A6086
:1008D000F4E700BF44E001002CE001001FFD01002F
:1008E000A4690220F9FC0100D00C02202DE9F0439C
:1008F0000568A3B000952B7880460F461646002B5E
:1009000000F0C180614B1C78052C10D16B1C00934A
:10091000009A10780CF070FC30B9531B2A46394607
:1009200030460CF034FD1BE001320092F0E7062C5B
:1009300024D168460CF052FC009A10780CF05CFC54
:10094000A8B9531B39462A4630460CF020FD009BBF
:100950001A783D2A0ED15A783F2A01D102330093EA
:100960000020009BC8F8003023B0BDE8F0830132BE
:100970000092E1E73F2AF3D10133F0E7072C03D1DE
:1009800010460CF0DFFCEBE7022C12D1009A107835
:10099000222803D010B10CF018FC38B1531B394693
:1009A0002A4630460CF0F3FC009BE5E7013200924A
:1009B000ECE7012C3CD128460A2201A90BF0B2F841
:1009C000019B334D0290009300980378292B28D087
:1009D0003BB32C3BDBB20130112B009003D825FA3E
:1009E00003F3DB0708D4A14604E0019BB9F1200F13
:1009F000009315D04C46E7E70A2201A90BF092F8C4
:100A000022AB04F1010903EB840444F8800C009844
:100A10000BF049F9044601980BF045F98442E4D102
:100A20004C46A30002AA394630460CF0D3FCBBE783
:100A3000032C15D10A2202A928460BF073F8029B59
:100A4000B0F5803F0246009305D282B23946304667
:100A50000CF065FC84E7394630460CF085FC7FE7F6
:100A6000042C7FF47DAF009B1A78A2F13001092994
:100A700006D942F02002613A052A01D95B1B4DE7F5
:100A800001330093EFE74FF0FF306DE77120022054
:100A90000140020070B5046800290546227844D15F
:100AA0002B2A2A4E01D0252A04D105233370002099
:100AB0002C6070BD20460CF0ABFBA0B30623F5E71D
:100AC00047F6E57121FA03F3D9070AD503221F4B34
:100AD0001A70ECE7282A04D101221C4B14441A7026
:100AE000E5E710460CF071FB70B11849087803284F
:100AF00008D114F8010F0CF068FB0028F9D1042389
:100B00000B70D4E70728D2D02C3AD2B2112A07D8DA
:100B10000F4B23FA02F2D30702D50C4B0722D7E77B
:100B20004FF0FF30C5E70223C0E703DD2B2AF7D0E3
:100B3000252AF5D0A2F12B03DBB20E2BC0D9222A35
:100B4000C8D10222014B01341A70B0E77120022093
:100B5000014002002DE9F347884616461F46044629
:100B600000287CD0002A7AD05368002B77D000254B
:100B700010460CF0AEFB32680194974228BF17462E
:100B80002C46384BDFF8E0901D70019A1378002B4B
:100B90004BD0A74249D9202B02D0093B042B01D8C6
:100BA00001320192214601A8FFF774FF421C3CD09C
:100BB0003246214601A8FFF799FE431C35D0019B20
:100BC0001A782C3AD2B2112A1AD829FA02F2D1078D
:100BD00016D558780CF0F9FA78B10134BC4239D006
:100BE000214601A8FFF756FF421C1ED0324621467F
:100BF00001A8FFF77BFE431C17D0019B0133019333
:100C0000019A10780CF0E1FAF8B1013211789246AD
:100C1000084601320CF0D9FA0028F7D119B12B2976
:100C200001D0252911D1CDF804A0019BA5B91A78CE
:100C3000002A0CBF00206FF00A00B8F1000F01D0AD
:100C4000C8F8003002B0BDE8F0870134BC4208BFEC
:100C500001259AE70546E8E76FF00600EDE76FF03B
:100C60001500EFE7712002200140020008B50023C3
:100C700007481A461946FFF7FDFC034628B9024605
:100C800001460448FFF7F6FC08B16FF0040008BD08
:100C90008FFE0100A3FD01000023F0B587B0029391
:100CA000CDE90433CDF80B3007230D4617460193E9
:100CB0000646002800F0828000297FD00A2104A87F
:100CC0000CF0F4FA044688B101234FF000023D49CC
:100CD00063F307023C4B5B1ADB08014663F38F1298
:100CE0003A480AF0F3FC204607B0F0BD01460A235B
:100CF00004AA3046FFF72EFF044690B101234FF0BF
:100D00000002304963F307022F4B5B1ADB080146F0
:100D10002F4863F38F120AF0D9FC04A80CF0F1FA03
:100D2000E1E7014601AB02AA04A80CF09BFB0446D4
:100D300068B101234FF00002224963F30702224BFE
:100D40005B1ADB08014663F38F122248E3E7224A6D
:100D5000019902A80CF0BFFB0028DED06A46394694
:100D600004A80CF06CFB044668B101234FF00002AC
:100D7000144963F30702144B5B1ADB08014663F363
:100D80008F121648C7E70099082915D012DC0529EB
:100D900012D901234FF000020A4863F307020A4BFD
:100DA0006FF004041B1ADB0863F38F120C480AF07F
:100DB0008DFCB2E75A29ECD12970AEE76FF015042B
:100DC00091E700BF2CE0010074E00100B0FE0100DB
:100DD000D9FE010006FF01002FFF010036FF0100D0
:100DE00063FF010007B5084681B901234FF00001F8
:100DF000154A63F30701154B15489B1ADB0863F38B
:100E00008F110AF056FC03B05DF804FB01220DF1CE
:100E10000701FFF741FF60B101234FF000010A4ACB
:100E200063F30701094B0B489B1ADB0863F38F112F
:100E3000E7E79DF8073003F0FB03012BE3D10648F9
:100E400009F024FDDFE700BF2CE0010074E00100A1
:100E500059FD010079FD0100D80C02202DE9F84F61
:100E60000122002138480CF065FD38490020FFF7C9
:100E700097FC374C374B8146E41AC4F3C90468B178
:100E800001214FF0000261F307020146324864F38A
:100E90008F120AF01BFC4846BDE8F88F02272F4846
:100EA000DFF8D4A0DFF8A0B000231A461946FFF7F8
:100EB000E1FB034690BB024601462948FFF7DAFBF7
:100EC000804658BB5146584609F00CFD10F10B0FF7
:100ED000814625D126F03F0343F0030363F3070661
:100EE00064F38F1631461F480AF0E3FB012F27D029
:100EF0004346424641461C48FFF7BCFB70B925F00B
:100F00003F0343F0030363F3070564F38F151748AA
:100F100029460AF0CEFB01271548C5E76FF0040902
:100F20000A490020FFF78AFC01460028B3D00120BF
:100F30004FF0000260F3070264F38F120D48A8E738
:100F40006FF03B09ECE700BFD80C0220E50D010073
:100F500074E001002CE0010092FF01008FFE01000F
:100F60006EFE0100AFFF0100A6FE0100D4FF0100EC
:100F700078FE0100F0FF0100C0270900F0B5002451
:100F80009DB006460D465022214608A8CDE90344EF
:100F90000AF0E5FE0823CDE905448DF81C400194D4
:100FA0000293002E00F0D680002D00F0D38023465F
:100FB000224621466948FFF75DFB044688B10123BC
:100FC0004FF00002664963F30702664B5B1ADB08C9
:100FD0000146654863F38F120AF078FB20461DB086
:100FE000F0BD0346502208A96048FFF743FB0446C2
:100FF00068B101234FF00002594963F30702594BCE
:101000005B1ADB08014663F38F125948E4E70A21B3
:1010100003A80CF04BF9044668B101234FF000021D
:101020004F4963F307024F4B5B1ADB08014663F33A
:101030008F125048D0E701460A2303AA08A8FFF7F9
:1010400089FD044690B101234FF00002444963F347
:101050000702444B5B1ADB080146474863F38F12D3
:101060000AF034FB03A80CF04CF9B7E702AB05AA71
:10107000092103A80CF0F6F9044668B101234FF0EA
:101080000002374963F30702364B3C485B1ADB0822
:1010900063F38F122146E3E7032205A901A80AF0B2
:1010A00034FE0222214601A80AF03CFD072810D98F
:1010B00001234FF000012A4A63F30701294B30480E
:1010C0009B1ADB0863F38F110AF0F3FA6FF0150433
:1010D000C8E72C4B022253F8207021460DF117006F
:1010E0000AF020FD1FB37843306002AB05AA082147
:1010F00003A80CF0B7F904460028BFD1032205A9C4
:1011000001A80AF002FE0222214601A80AF00AFD07
:1011100007280FD901234FF00001114A63F307019B
:10112000104B19489B1ADB0863F38F11CCE74FF083
:10113000FF30D9E7154B022253F8206021460DF10C
:1011400017000AF0EFFC16B1704328608AE74FF0F1
:10115000FF30FAE76FF0150440E700BFAEFD010075
:101160002CE0010074E00100B9FD0100D8FD010090
:10117000E2FD0100B0FE0100D9FE01000AFE0100FF
:1011800027FE010014E201004BFE0100F4E1010022
:1011900038B50546084A08462B780021FFF7DAFCE7
:1011A000044638B904480CF080F92B78984288BF7F
:1011B0006FF00A04204638BDF00C022013B50C462F
:1011C00008460AF070FD1B4920460AF024FD98B13C
:1011D00021461948FFF7DCFF014678B101234FF0A3
:1011E0000002164863F30702154B1B1ADB0815486B
:1011F00063F38F120AF06AFA02B010BD01210DF1FB
:10120000060211480CF009F9014660B101234FF0C4
:1012100000020A4863F30702094B1B1ADB0863F359
:101220008F120A48E6E70A4B9DF806001B689847AC
:10123000E2E700BF1A00020069E301002CE00100B0
:101240007CE0010020000200F00C022057000200A8
:10125000F80C0220F0B500240D46A3B0074680220A
:10126000214602A801940AF07AFD002D74D03D4B6E
:10127000802253F8276002A923463068FFF7FAF965
:10128000022F0BD10DF1110128460AF0E1FC28468E
:101290000AF009FD0446204623B0F0BD00285ED1C7
:1012A00002A906F10900FFF773FF044678B1012394
:1012B0004FF000022C4963F307022C4B5B1ADB084A
:1012C00001462B4863F38F120AF000FAE3E7B37A82
:1012D000012B2CD10DF10202317A26480CF09DF839
:1012E000044668B101234FF000021F4963F307026F
:1012F0001E4B5B1ADB08014663F38F121E48E3E7BF
:10130000BDF802301D4A64212846FDF74DFE0E2F20
:1013100007D12C4628460AF0C6FCA31C641BA04239
:1013200010D8019C002C08BF6FF02204B3E7032BF8
:10133000EDD164232A460193317A01AB0D480CF0BC
:1013400091F8E4E713F8022C13F8011C1C4603F88B
:10135000021C03F8012CDDE76FF015049BE76FF02A
:10136000040498E7F4E201002CE001007CE00100B5
:1013700077000200F00C02209000020074000200CE
:10138000124B10B5124918600020FFF709FA044605
:1013900080B101234FF000020E4963F307020E4BA8
:1013A0005B1ADB08014663F38F120C480AF08EF9D2
:1013B000204610BD0346024601460948FFF75AF988
:1013C000041E18BF6FF00404F2E700BFF80C0220FF
:1013D000BD1101002CE001007CE0010092FF010042
:1013E000100002000A2101480BF060BFF00C02203F
:1013F000002843D0012380F86C30022380F8DC30D1
:10140000032380F84C31052380F8BC31062380F893
:101410002C32072380F89C32082380F80C330923F0
:1014200080F87C33042380F8EC330F2380F85C349D
:10143000102380F8CC34112380F83C35142380F835
:10144000AC350A2380F834360E2380F8A4361223F4
:1014500080F814370D2380F884370B2380F8F43795
:10146000132380F86438074BC0F86838064BC0F87F
:101470006C38064BC0F87038002070476FF01500CC
:10148000704700BF0B0202001C0202002302020090
:1014900008B5FBF769FF01234FF00001064A63F32B
:1014A0000701064B06489B1ADB0863F38F110AF00D
:1014B00000F90020FCF790FE2CE0010064E0010040
:1014C000420202002DE9F04300261E4C85B054F87C
:1014D000049C1D4F01ADB14503D8002005B0BDE807
:1014E000F083636A97E80700D3F8008085E8070077
:1014F0000C22294640460AF0F8FBA0B9B8F1000FCB
:1015000011D0636A21691B681A6991420BD19A69EB
:10151000A169914207D8E169914204D962695B6986
:1015200032EA030307D0236A4BB1404080F31188AD
:101530004FF0040002DFE36801361C44CBE7626A27
:101540001360F8E73CC20000B4E0010020B150F89D
:10155000081B090C00F052B8704700BF014806F0A4
:1015600023BB00BF84E30100002310B582B00193C8
:1015700061B970B1044601AA092006F04DFD18B901
:10158000019B0BB10833236002B010BD0F2002B0E5
:1015900010BD0E2002B010BD01F47043B3F5E04F52
:1015A0000BD160B1034630F8082C092042EA014112
:1015B00043F8081D194606F017BD0F2070470E208E
:1015C000704700BF20B1A0F10801092006F056BD08
:1015D0000E20704718B10146092006F061BE0E20AA
:1015E000704700BF10B504460068FFF7F3FFA0681E
:1015F00018B1BDE8104001F00FB910BD30B53B4B3C
:1016000085B01D68002D4CD048F20203994253D09A
:101610001CD948F2030399425AD049F20103994276
:1016200047D1002443680268CDE90244CDE9002394
:10163000E869694603685B68984701304ED02046E8
:101640002B6843F480332B6005B030BD48F20103B2
:1016500099422ED1C368002B35D1286810F4800040
:101660003ED02B689BB2012B05D12B681B0C1B04B1
:1016700043F002032B601E4B1A7802F0FF01002A90
:1016800031D01C4A117809B901211170002018705D
:101690002B6823F480032B602B6843F400032B603A
:1016A000D2E700680028CFD0FFF794FF284605B0A6
:1016B00030BD002005B030BD2B6813F480030BD083
:1016C000C0680028E4D00E2300206B6005B030BD58
:1016D000C368012BA5D1F6E71846B5E70220B3E7AA
:1016E0000E236B60B0E7034A1170CFE7000D0220B4
:1016F0007220022073200220002310B50749084AF7
:10170000084C0948237003600B701360FFF726FF35
:10171000003018BF0120404210BD00BF72200220DF
:10172000FC0C022073200220000D022000232DE972
:10173000F047662882B0009372D1022989466FD1A2
:1017400040F205239A4292466AD1484F3D68002DE7
:101750007CD18046464A684605F0D6FF009B064687
:10176000002B7DD02946042242483B600AF0F7FA5C
:10177000009C2946C4E90389C4F814A001A8FFF716
:10178000F3FE00283CD101220421019B3A4D5873FD
:101790009873D87358729872D87219722A701A7323
:1017A0002268184642F48002226047F20101FFF7E6
:1017B000F3FE38BB4FF400024FF0FF3311463046C2
:1017C00006F04EF8044610B3009A002E136843F456
:1017D00000331360009A136823F480031360009AA7
:1017E000136823F40003136036DA002320463B60BD
:1017F0004FF0FF36FEF742F9304602B0BDE8F08701
:101800000C24E1E70198FFF7DDFE0524DCE7304614
:1018100006F09AF850B1446844B100234360D3E71E
:101820001620FEF72BF94FF0FF36E5E7009A136814
:1018300043F400331360009A136823F480031360A9
:10184000009A136823F400031360D5E70120FEF724
:1018500015F94FF0FF36CFE7304605F0B3FFC4E788
:101860001820FEF70BF94FF0FF36C5E7000D0220F8
:10187000E5150100FC0C0220722002202DE9F04346
:1018800085B000295ED0002A16465BDD1F468046E3
:101890000D4606F059F80446002859D0C069BA0729
:1018A0000368DB6824D5984701303BD02368E069A2
:1018B00013F4803338D0002123683A4623F4803370
:1018C0002360CDE90211CDE90056036869469B68A3
:1018D00098470546E0690368DB689847013003D004
:1018E000236843F480332360284605B0BDE8F083C5
:1018F000226812F08059D6D19847431CD6D14FF4B4
:101900008032236A1146002B08BF0346404605F08B
:10191000A7FF58B14FF0FF35FEF7B0F8284605B0E5
:10192000BDE8F0832320F5E71D46D4E7404606F0E6
:101930000BF803460028B9D040680028B6D0C3F899
:101940000490E7E71620FEF799F84FF0FF35CBE754
:101950000920FEF793F84FF0FF35C5E72DE9F04178
:1019600082B000295BD0042A59D11E4607460D4695
:1019700005F0EAFF0446002867D0B00726D52368A3
:101980009B035ED500262368002123F400332360E7
:1019900001A8D5F80080FFF7E7FDF8B90425019B01
:1019A00047F20301C3F80C8058729872D8721D7206
:1019B0001846FFF7F1FD804640BBCEB928462368A4
:1019C00043F40033236002B0BDE8F0812368D900FE
:1019D000D5D423689A0336D50126D4E70C20236892
:1019E00043F400332360FEF749F84FF0FF30EAE795
:1019F0004FF480324FF0FF331146384605F030FF88
:101A000098B1236843F400332360ECE70198FFF7B3
:101A1000D9FD2368052043F400332360E3E7162053
:101A2000FEF72CF84FF0FF30CDE7384605F08CFF7D
:101A300003460028C2D040680028BFD0C3F8048005
:101A4000DFE77320CFE70920CDE70920FEF716F87E
:101A50004FF0FF30B7E700BFF0B5012985B068D07F
:101A60001E4640F20523994240F0958007461546F0
:101A700005F06AFF0446002800F0B280012D19D05D
:101A8000022D10D02A25036823F4800323602368E5
:101A9000284623F400032360FDF7F0FF4FF0FF35E5
:101AA000284605B0F0BD16B10A9B012B49D023682A
:101AB0001625E9E7002EFAD00A9B042BF7D1002166
:101AC00003A8FFF751FD054600286AD103980822B4
