:10C00000A05D0220F9DB000095BA010019DA0000FA
:10C0100019DA000019DA000019DA000019DA000054
:10C0200019DA000019DA000019DA0000D9D8000086
:10C0300019DA000019DA000029D8000085BA0100D9
:10C04000B9DB0000B9DB0000B9DB0000B9DB0000A0
:10C05000B9DB0000B9DB0000B9DB0000B9DB000090
:10C06000B9DB0000B9DB0000B9DB0000B9DB000080
:10C07000B9DB0000B9DB0000B9DB0000B9DB000070
:10C08000B9DB0000B9DB0000B9DB0000B9DB000060
:10C09000B9DB0000B9DB0000B9DB0000B9DB000050
:10C0A000B9DB0000B9DB0000B9DB0000B9DB000040
:10C0B0004DF80000D9C30100B9DB0000B9DB000076
:10C0C000B9DB0000B9DB0000B9DB0000B9DB000020
:10C0D000B9DB0000B9DB0000B9DB0000B9DB000010
:10C0E000B9DB0000B9DB0000F7C30100B9DB0000D9
:10C0F000B9DB0000B9DB0000B9DB0000B9DB0000F0
:10C10000B9DB0000B9DB0000B9DB0000B9DB0000DF
:10C11000B9DB0000B9DB0000B9DB0000B9DB0000CF
:10C12000B9DB0000B9DB0000B9DB0000B9DB0000BF
:10C13000B9DB0000B9DB0000B9DB0000B9DB0000AF
:10C14000B9DB00000000000000000000000000005B
:10C1500000000000000000000000000000000000DF
:10C1600000000000000000000000000000000000CF
:10C1700000000000000000000000000000000000BF
:10C1800000000000000000000000000000000000AF
:10C19000000000000000000000000000000000009F
:10C1A000000000000000000000000000000000008F
:10C1B000000000000000000000000000000000007F
:10C1C000000000000000000000000000000000006F
:10C1D000000000000000000000000000000000005F
:10C1E000000000000000000000000000000000004F
:10C1F000000000000000000000000000000000003F
:10C20000DEE61E284CBBCE8F025B00003C00000027
:10C21000D43201000100000000C0000000C0000096
:10C22000FFFF02910000000000000000000000007D
:0CC2300000000000000000000000000002
:10C23C0053B94AB9002908BF00281CBF4FF0FF3181
:10C24C004FF0FF3000F070B9ADF1080C6DE904CE81
:10C25C0000F006F8DDF804E0DDE9022304B07047D5
:10C26C002DE9F04F099E04468946002B40F083804F
:10C27C008A42154645D9B2FA82F24AB1C2F1200778
:10C28C0001FA02F39540944020FA07F747EA0309B4
:10C29C004FEA154E230C1FFA85F8B9FBFEFC0EFB7A
:10C2AC001C990CFB08F143EA094399420AD9EB1893
:10C2BC002CBF01200020994202D9002800F01D81DA
:10C2CC000CF1FF3C591AA3B2B1FBFEF00EFB10119E
:10C2DC0000FB08F843EA0144A04505D92C1902D209
:10C2EC00A04500F20E810138A4EB080440EA0C4092
:10C2FC0000271EB1D4400023C6E900433946BDE8EF
:10C30C00F08F002A51D0B2FA82F2002A40F0AF80AE
:10C31C00491B4FEA154E1FFA85F80127230CB1FB78
:10C32C00FEFC0EFB1C1108FB0CF043EA0143984287
:10C33C000AD9EB182CBF01210021984202D90029FF
:10C34C0000F0D7800CF1FF3C191AA3B2B1FBFEF040
:10C35C000EFB101108FB00F843EA0144A04505D977
:10C36C002C1902D2A04500F2C1800138A4EB0804BC
:10C37C0040EA0C40BDE78B4208D9002E74D0002750
:10C38C00C6E9000138463946BDE8F08FB3FA83F7A9
:10C39C0067B98B42C0F0A480824240F2A18038463B
:10C3AC00002EABD0C6E90049A8E7FFDEC7F1200597
:10C3BC00BB4002FA07FC01FA07F4EA4020FA05F840
:10C3CC00E94000FA07FE1A4348EA04044FEA12480F
:10C3DC00200C1FFA82F9B1FBF8FA08FB1A110AFBC0
:10C3EC0009FB40EA01418B450AD951182CBF0123A6
:10C3FC0000238B4502D9002B00F088800AF1FF3A0C
:10C40C00A1EB0B01A4B2B1FBF8F008FB101100FB7F
:10C41C0009F944EA0141894504D9511801D28945E9
:10C42C007BD8013840EA0A40A1EB0901A0FB0C893A
:10C43C00494544464B4602D306D1C64504D2013881
:10C44C00B8EB0C0469EB0203002E5DD0BEEB0402CA
:10C45C0061EB030101FA05F522FA07F3F940002715
:10C46C001D43C6E9005149E73746304646E7C2F15D
:10C47C002000954001FA02F721FA00F34FEA154E1D
:10C48C0024FA00F11FFA85F894403943B3FBFEF00F
:10C49C000F0C0EFB103300FB08FC47EA03439C45D2
:10C4AC0007D9EB182CBF012700279C4500D98FB367
:10C4BC000138A3EB0C0389B2B3FBFEF70EFB173369
:10C4CC0007FB08FC41EA03418C4504D9691801D2E9
:10C4DC008C4525D8013FA1EB0C0147EA00471DE72D
:10C4EC00841A61EB03030120994659E702382C4466
:10C4FC003CE7ACF1020C2B4426E7ACF1020C2B44CC
:10C50C00E0E602382C44EFE63746F7E6AAF1020AD9
:10C51C00114475E702382B44CBE70238114481E70C
:10C52C00023F2944D7E700BF704700BF01460148CE
:10C53C000EF04BBCCCDE010008B54FF0000103231C
:10C54C000C4A63F307010C4B0C489B1ADB0863F392
:10C55C008F110EF0B2FC0A480EF037FC10F0B6FC4E
:10C56C0008480EF032FC00F0D3F94FF47A700DF05D
:10C57C00A5FDFAE754D9010054D90100EADE010007
:10C58C000ADF010023DF010030B5244D8BB02B886E
:10C59C0001332B8000F046FF012302220490CDE9E9
:10C5AC000032CDE902534FF4A0621D4906A80FF0EA
:10C5BC006CF8041E06DA21461A480EF006FC2046DA
:10C5CC000BB030BD18480FF0EDFB174A83B20B21AE
:10C5DC0006A80FF0A4F8041E02DA21461348ECE773
:10C5EC00134B14481B68BDF81C20DC6A0699002309
:10C5FC000068A04700280ADA0EF0ACF801680E4873
:10C60C000EF0E3FB0EF0A6F804686442D7E7298825
:10C61C000A480EF0DAFB0024D1E700BF001E02200E
:10C62C00261E022046DF010069DF010076DF0100D3
:10C63C000C020220C000022098DF0100B9DF0100CB
:10C64C002DE9F04F0124022795B00DF13009934EDE
:10C65C002022002148460FF001FC336800215D6B5D
:10C66C00CDE90D4706AB4A468D48A847014640B177
:10C67C008C480EF0AAFB8C480EF0A7FB15B0BDE859
:10C68C00F08F069B1BB989480EF09FFBF3E75B69A3
:10C69C00874D5B682C806B6043F216336B801023E4
:10C6AC0008AA291D204602F0ABFC08A981480EF00F
:10C6BC008CFB336806989B6B9847336811221B6878
:10C6CC003946204698477C4B0028186098460CDA6F
:10C6DC000EF040F8016879480EF077FB0EF03AF84E
:10C6EC0003685B42B3B17648C6E7336808225B69DE
:10C6FC0029469847002804DA0EF02CF80168714896
:10C70C00EAE7714BD8F800209C801A6002F052FDC9
:10C71C006E4B188001236E4F6E483B700EF055FB2C
:10C72C0010F056FE4FF0000B04460D4610F050FE74
:10C73C00A04271EB050312DBFFF726FF50B16648F0
:10C74C000EF043FB00233B703368D8F800005B68A5
:10C75C00984793E741F28833E41845EB0B0510F04A
:10C76C0037FE231A029365EB01030393DDE90223E1
:10C77C00002A73F10003BEBF00220023CDE902237F
:10C78C003368029A9B6901214F489847002820DAA8
:10C79C000DF0E0FF016851480EF017FB0DF0DAFFC9
:10C7AC0003685B42002B25DB33684FF4A062D3F89F
:10C7BC0024A04B494023D8F80000D047021E23DAAE
:10C7CC000DF0C8FF03680B2B17D146480EF0FDFA8D
:10C7DC00ACE7ABD03C4BDB88190704D542480EF0D4
:10C7EC00F4FA4248ACE79A0601D54148F7E7DB0773
:10C7FC00DAD49BE70B33F4D198E70DF0ABFF036869
:10C80C000B2BE2D03B489BE701D13B48DEE74FF0D6
:10C81C00000A3349CDF800A0534692B208A80FF095
:10C82C000EF8011E08DA35480EF0CFFA34480EF037
:10C83C00CCFA87F800A087E70DF1160108A80FF0D5
:10C84C008FF806A9824608A80FF052F802280DD0DE
:10C85C00022206A91D480FF0C7FA38B19DF818201E
:10C86C009DF8191027480EF0B0FA5FE7BDF81610C6
:10C87C005346102938BF1021234A484602F066FB64
:10C88C0008A80FF049F8CDF8009001469DF8183033
:10C89C009DF819201D480EF098FA47E70C0202206B
:10C8AC00F8DF010010E001005FE001002EE0010064
:10C8BC00021E022048E00100C00002207EE00100C0
:10C8CC00B6E00100A1E00100B8000220001E022029
:10C8DC0026230220D8E00100E9E001000EE101006E
:10C8EC00261E022052E101001EE101003DE1010083
:10C8FC002DE1010061E1010078E1010088E1010016
:10C90C00A9E10100C4E10100E8E10100EBE1010053
:10C91C007FB50A480EF059FA00230822CDE90433FA
:10C92C00CDE90232CDE900334FF48052044B054976
:10C93C0005480DF097FC07B05DF804FBDADF010049
:10C94C004DC60000A0340220080002200B68013301
:10C95C000B60014B1B681847F08402202DE9F04F47
:10C96C0085B00E9C9B46012CB8BF0124012B0CBF3B
:10C97C003023202316468246884601250A270022AA
:10C98C00DFF86C900293B6FBF9F301930AB9B14549
:10C99C001CD8019B414603F13000D04701220135E0
:10C9AC00019B013F09FB13660A23012FB9FBF3F925
:10C9BC00E9D1414606F13000D047BBF1030F02D15B
:10C9CC00641B002C0EDC05B0BDE8F08FBC42E7DB2D
:10C9DC00BBF1020FE4D84146029803920135D047CF
:10C9EC00039ADDE741462020D047013CE9E700BF30
:10C9FC0000CA9A3B014B1860704700BFF0840220BC
:10CA0C00002307B50246019303480B4601A90EF01B
:10CA1C006CF803B05DF804FB59C900004FF020021C
:10CA2C00EFF3118382F31188BFF36F8F0121044A56
:10CA3C00C2F8401583F31188BFF36F8F0020704745
:10CA4C000090034030B5002287B00D490D4810F01E
:10CA5C00CDFC00240E230C4DCDE90243CDE904445A
:10CA6C00CDE90044094B4FF44072094928460DF0BA
:10CA7C00F9FB0849284610F053FC204607B030BD9E
:10CA8C00A5CA0000D80002202001022065CE0000BB
:10CA9C00A044022039E2010001480DF03DBB00BF6B
:10CAAC004C86022008B500F033FA09480EF0C2F9A2
:10CABC00042334220749084810F013FA074B084A9C
:10CACC004FF400401A60BDE8084000F061BC00BFA4
:10CADC00D0000220E06A022004010220F48402202B
:10CAEC007FAE0100F8B500250C4BD3E8EF7FC3E80F
:10CAFC00E25F002AF9D10A4C0A4E361B3611B542B8
:10CB0C0000DBF8BD63685B792BB12368DB6813B17C
:10CB1C0039462046984701351034F0E7C80002200A
:10CB2C00ECD90100FCD90100044BD3E8EF2F013202
:10CB3C00C3E8E12F0029F8D1704700BFC8000220DC
:10CB4C00044A054B9B1AB1EBD30F34BF52F831009A
:10CB5C000020704754D90100ECD90100094B426800
:10CB6C00C31A1B11013310B5137101224368064C13
:10CB7C005A712278196012B904480DF0CDFA0123CC
:10CB8C00237010BDECD90100272302204C86022013
:10CB9C0070B50F4BD3E8EF5F6A1CC3E8E12F002997
:10CBAC00F8D12DB90B4C0C4E361B3611B54200DBAF
:10CBBC0070BD237B43B123685B6903B198470422A2
:10CBCC0000212046FFF7CAFF01351034EEE700BF05
:10CBDC00CC000220ECD90100FCD90100144B37B574
:10CBEC009842044602D3134B98421BD3002201A94E
:10CBFC0011480CF0BBFC0546B8B90122019BD3E8E7
:10CC0C00EF1FC3E8E02F0028F9D1019821462D220F
:10CC1C0004300FF0A6F87E23019C84F8313084F8A0
:10CC2C0032500434204603B030BD044CFAE700BF48
:10CC3C0068D60100A8F001000401022041E20100C5
:10CC4C0048B1054B984205D3D03398422CBF0020F5
:10CC5C000120704700207047E06A02202DE9F84F50
:10CC6C00444B05461B7803B940B34FF02003EFF358
:10CC7C00118683F31188BFF36F8F3F480EF0EAF8EB
:10CC8C00044686F31188BFF36F8F58B13B4BD3E842
:10CC9C00EF2F013AC3E8E12F0029F8D18DB12046DE
:10CCAC000EF0E5F925B9364B1B680BB1FFF71AFFEF
:10CCBC0031480EF0CDF8051C18BF01252846BDE8FB
:10CCCC00F88F304B1B78ABB9237ADB0712D40EF0FC
:10CCDC00DDF9814620460EF0AAF9014648460EF0D1
:10CCEC00CCF80746284B294ADFF8B8B09B1AC3F397
:10CCFC00C90A37B9264E274F4FF00008BF1B3F110A
:10CD0C0034E0B7FA87F6C6F11F06314620460EF01E
:10CD1C0091F9214B0246984202D3204B984214D3EE
:10CD2C001046FFF78DFF80B91D4B9A420DD028F0AD
:10CD3C003F0343F0010363F307086AF38F1843467C
:10CD4C004A46314658460EF0D9F8012303FA06F646
:10CD5C0027EA0607CDE773685B7923B13368214670
:10CD6C001B683046984708F101081036B845F2DBCD
:10CD7C0095E700BF27230220D0000220C400022028
:10CD8C00C80002202823022094D9010054D90100A4
:10CD9C00ECD90100FCD9010068D60100A8F0010013
:10CDAC0041E201005FE20100244B70B51B68418138
:10CDBC0005469847224CE860D4E8EF3F0133C4E8BD
:10CDCC00E23F002AF8D14FF02003EFF3118683F3F2
:10CDDC001188BFF36F8F1B4829460EF02FF886F38E
:10CDEC001188BFF36F8F184B1A787AB14FF020036C
:10CDFC00EFF3118483F31188BFF36F8F0020FFF7DB
:10CE0C002DFF84F31188BFF36F8F70BD0F4923681A
:10CE1C0009680029F9D0012B06D1BDE870404FF408
:10CE2C007A710B480DF000BC0A2BEED1084810F0BB
:10CE3C00E9FABDE8704007480DF06EB9F4840220A1
:10CE4C00C4000220D000022028230220D00102209E
:10CE5C00D80002204C86022008B5FFF799FE0DF091
:10CE6C0055F90B4B186030B10A4B1B68092B02DDCE
:10CE7C0009480DF051F9084C0020FFF7EFFE00288F
:10CE8C00FAD14FF0FF3120460DF072F9F4E700BFF4
:10CE9C00D0010220C40002204C860220F8B50E4FAF
:10CEAC003D7875B9FFF774FE0C4C0D4E361B3611E0
:10CEBC00B54207DB0020FFF7D1FE0028FAD1012391
:10CECC003B70F8BD63685B791BB1236820461B6916
:10CEDC00984701351034EBE728230220ECD90100E8
:10CEEC00FCD9010007B504380190D0E8EF3F5A1E79
:10CEFC00C0E8E12F0029F8D1012B03D101A9034887
:10CF0C000CF060FB03B05DF804FB00BF04010220D1
:10CF1C00202302491A4602480FF0E3BFB06B0220EF
:10CF2C00D4010220002337B5094D01930120FFF7EE
:10CF3C0095FE0446FFF7F8FD002201A928460CF0E7
:10CF4C0015FB08B1002CF1D1019803B030BD00BF26
:10CF5C00D401022007B5002201A9064801920CF069
:10CF6C0005FB10B1FFF7DEFF0190019803B05DF8EF
:10CF7C0004FB00BFD4010220F0B5047A467A85B0D8
:10CF8C0014F0010401904FEA16160ED0019B1A7A88
:10CF9C00920704D55B69184C0393039B2BBB01A927
:10CFAC0015480CF00FFB05B0F0BD002EEED0254659
:10CFBC0017E029460EF03EF80746FFF741FE78B120
:10CFCC003CB9019B314618690DF057FF0446002807
:10CFDC00DCD024FA05F3DB0702D53846FFF782FFD5
:10CFEC000135AE420198E4D8D0E71D6803A920466C
:10CFFC000CF0E8FA0395D0E7D40102200EB403B587
:10D00C0003AB53F8042B0146044801930DF06DFD5E
:10D01C00002002B05DF804EB03B0704741B401008E
:10D02C002DE9F04F11F0020485B0064690469DF8AC
:10D03C00387001F0010901F0080507D011F0440F18
:10D04C0037D11A463249FFF7D9FF0446B9F1000F20
:10D05C000AD0304B304953F82720304B3046002A49
:10D06C0008BF1A46FFF7CAFF3DB12D4B2D4953F8A7
:10D07C0027203046FFF7C2FF0546B8F1000F44D019
:10D08C00012303FA07F7284B17F0100F274F18BF8F
:10D09C001F46BDF840109DF83C00FFF751FD394686
:10D0AC0002463046FFF7AAFF2844204405B0BDE8ED
:10D0BC00F08F1F4A116831B31E4A4FF4616E146829
:10D0CC004FF47A7CB3FBF4F3B3FBF1F4B4FBFEF254
:10D0DC000EFB124E01FB14340CFB04F4B4FBF1FBFD
:10D0EC004FF03C0A01FB1B440CFB04F4BEFBFAF3AF
:10D0FC00B4FBF1F1CDE901B10AFB13E100910E494A
:10D10C00FFF77CFFA1E708469FE7084FC1E700BF88
:10D11C00DCE2010014DA0100E8E10100CEE20100DA
:10D12C0028DA010001E30100D8E20100D3E201009A
:10D13C00F0010220F4010220E5E2010038B50C46B2
:10D14C00E107054603D5084A0849FFF757FFE206F1
:10D15C0008D4A3062846BDE838404CBF044905490D
:10D16C00FFF74CBF38BD00BFCEE20100E8E1010083
:10D17C0073EB010072EB01002DE9F0479846089B18
:10D18C000446DD060E46174605D499064CBF2949C0
:10D19C002949FFF733FF0025DFF8A49045452ADB2A
:10D1AC000025DFF8A080DFF8A090DFF894A0BD4246
:10D1BC002ED2725D49462046FFF720FF0135102D17
:10D1CC001FD11E492046FFF719FF0025DFF870809C
:10D1DC00DFF87890AF4227D9725D4946A2F120035F
:10D1EC005F2B28BF2E222046FFF708FF0135102D9C
:10D1FC0013D1BDE8F08749462046FFF7FFFE013505
:10D20C00CCE76A07D3D151462046FFF7F7FECEE7AD
:10D21C0041462046FFF7F2FED0E76B07DAD14146D4
:10D22C002046FFF7EBFED5E741462046FFF7E6FE2A
:10D23C00DCE700BF73EB010072EB01009FE2010021
:10D24C009DE201009BE2010095E20100A1E20100D8
:10D25C002DE9F0478B7A174613F007048AB0054680
:10D26C000E460A7A1CD0D2434989C3F3C2038909FA
:10D27C000291CDE9004302F00102F3683946FFF751
:10D28C00CFFE8146337ADA070CD4294630460DF0AE
:10D29C0067FF4CB3224639462846FFF74FFF23E081
:10D2AC00A146EFE734BB2746EB6806AA0693A968AC
:10D2BC003B4630460DF040FF069A6B681A603AB157
:10D2CC00AB68134413F8014CA4F10A035C425C41B3
:10D2DC0028460EF0A2F8069B1F44002BE4D11CB18B
:10D2EC0014492846FFF78AFE28460EF096F80AB035
:10D2FC00BDE8F08730460DF0C9FE0F4902462846BE
:10D30C00FFF77CFE4FF000084FF0100A05AA4346C9
:10D31C0006A93046CDF814A00DF00EFF059A002A90
:10D32C00B8D04B46009706A92846FFF725FF059B6A
:10D33C009844EBE7A4E20100E8E1010073B5D0E901
:10D34C0000435D6842F20F738B4228BF0B460D4AB7
:10D35C000521684601F0FAFD06462B4620460B22B5
:10D36C0009490DF0F0FE2B463246694620460DF079
:10D37C00EAFE2B461B22054920460DF0E4FE02B0C6
:10D38C0070BD00BF47EB0100C2E20100A6E2010044
:10D39C0001230021074A10B5074C1360A04204D8A2
:10D3AC0001B11360054B186010BD40085B000121F2
:10D3BC00F4E700BFF401022040420F00F00102200C
:10D3CC0001480EF02AB800BF54DA01000148FFF7FB
:10D3DC00B5BF00BF54DA010008B503480BF02CFFB1
:10D3EC00024B586008BD00BF27E301000002022079
:10D3FC0010B50C4608460DF011FE214604480F22CC
:10D40C00FFF726FF2046BDE810400DF030BE00BFF0
:10D41C0054DA010008B501F0CDFE014B188008BDAF
:10D42C001A1E0220024B1888421C1A80704700BF3B
:10D43C001A1E0220014B1860704700BF0C0202201C
:10D44C000A2838B50446074D04D1286843680D21D5
:10D45C005B68984728684368E1B25B689847204648
:10D46C0038BD00BF1002022010B5044C204601F05C
:10D47C0067FD2046BDE81040FFF7BCBA4DD4000054
:10D48C0008B504480BF0D8FE034B1860FFF7ECFF0F
:10D49C00002008BD27E301001002022003682DE9DB
:10D4AC00F041D0F808C005469F68CEB24AB10C23B3
:10D4BC0073435CF803309A425BD013B11B68002BAA
:10D4CC00F9D14FF02003EFF3118083F31188BFF3F0
:10D4DC006F8F0C2171430CEB01031C7A0134E4B205
:10D4EC001C7280F31188BFF36F8F22B34FF0030EC1
:10D4FC002248C0F808E3587AA0B94FF0200EEFF399
:10D50C0011888EF31188BFF36F8F1060D3F804E08D
:10D51C00BEF1000F20D15A604CF8012088F311881D
:10D52C00BFF36F8F0321154BC3F8041318B1D2E965
:10D53C00013128469847012C0CD14FEA061857F8B0
:10D54C0008306BB901224744BB7A03F1804303F5E1
:10D55C00A0431A6000200EE0CEF800205A60DDE7F0
:10D56C00284698470028EDD1314628460EF05EFA41
:10D57C00F0E76FF00F00BDE8F08100BF00500040F5
:10D58C0010B5002204460121052000F0BFF905204A
:10D59C0000F0ACF90222074B0020C3F81825032237
:10D5AC00C3F80423A368C3E90000A368C3E903001C
:10D5BC0010BD00BF0050004008B5104B1A6862B196
:10D5CC000F4AD2F80423D10707D500220D481A6060
:10D5DC008368597A09B90EF029FA0B4B1A6862B1B3
:10D5EC00074AD2F80423920707D5002201211A60BA
:10D5FC000448BDE808400EF019BA08BD00510040BF
:10D60C0000500040608502200451004000220D4B68
:10D61C00C3F840214FF02002EFF3118182F31188FF
:10D62C00BFF36F8F084AD3F804051368C01A20F0B3
:10D63C007F400344136081F31188BFF36F8F0CF0AC
:10D64C005BBF00BF005001402C02022070B5154892
:10D65C000BF0F2FD10B3436801211B6898470024BE
:10D66C0001264FF480334FF400120F4D3146C5F8AC
:10D67C000845C5F84065C5F804330C4B15201C60F3
:10D68C000B4BC3F88021224600F040F9152000F026
:10D69C002DF92046074B1E602E6070BD4FF0FF30F9
:10D6AC00FBE700BF45E30100005001404051014041
:10D6BC0000E100E00850014070B5254CB0F1FF3F8F
:10D6CC0008BF20464FF02003EFF3118583F3118838
:10D6DC00BFF36F8F1F4BD3F804151F4B1B68CA1A6F
:10D6EC0022F07F4612021AD4421E22EAE272A242B1
:10D6FC00A8BF2246701C1044A04294BF18181819D9
:10D70C00411A21F07F41134A20F07F430229C2F8CD
:10D71C00403506D985F31188BFF36F8F70BD002299
:10D72C00E8E7D2F804350D49C31A23F07F435C1E99
:10D73C008C4205D94FF40012094BC3F80021E9E7DC
:10D74C00012B02BF023020F07F40C2F84005E1E718
:10D75C00FEFFFF00005001402C020220FEFF7F0064
:10D76C0000E100E04FF02002EFF3118382F3118807
:10D77C00BFF36F8F064AD2F80405064A1268801A66
:10D78C0020F07F4083F31188BFF36F8F704700BF89
:10D79C00005001402C0202204FF02003EFF31182C5
:10D7AC0083F31188BFF36F8F0649074B0868D3F8D2
:10D7BC00043582F31188BFF36F8F1B1A23F07F435C
:10D7CC00184470472C020220005001400448816824
:10D7DC00406A884203D003494FF080520A60704778
:10D7EC00FC1C022004ED00E0094A0A499368096810
:10D7FC005866996608494B6843F080534B60002388
:10D80C0083F31188BFF36F8F9368986E704700BFD6
:10D81C00FC1C0220B4DE010000ED00E029498A68FE
:10D82C004FF028001044EFF3098C80E8F01F4FF004
:10D83C0010001EEA000F04D0D2F8AC0020F0040057
:10D84C0007E002F16C0080EC108AD2F8AC0050F0CA
:10D85C000400C2F8AC00202080F31188BFF36F8F56
:10D86C00194F4FF000664A6A8A603E60506E002382
:10D87C00536680F31188D2F8AC0010F0040F05D178
:10D88C000023E1EE103A5EF0100E05E02EF0100EC3
:10D89C0002F16C0090EC108AEFF3148323F0040374
:10D8AC0083F31488BFF36F8F04B510460EF0F3F8B2
:10D8BC00BDE8044002F1280090E8F01F8CF30988C1
:10D8CC0070470000FC1C022004ED00E01EF0040F69
:10D8DC000CBFEFF30880EFF30980816911F8021C8B
:10D8EC000229FFD001B50EF0CBF801BD43B2002BDD
:10D8FC0008DB012200F01F0002FA00F0024A5B096B
:10D90C0042F82300704700BF00E100E043B2002B57
:10D91C0001F10101A8BF03F160434FEA4111B8BF07
:10D92C00054BC9B2ABBF03F5614300F00F0083F8A0
:10D93C0000131954704700BF14ED00E008B572B61F
:10D94C00044B186A18B100221A620FF0C8FA62B6BA
:10D95C0008BD00BFFC1C022073B51E460A9B054681
:10D96C000093099B8C180FF0E0FC0C4AA4F12003E7
:10D97C0023F0070322F001029A61069A1E605A6096
:10D98C00079A9A60089ADA604FF08072DA61AB6499
:10D99C0000236B66C5F8AC3002B070BDF1AD010070
:10D9AC002DE9F0411F4606460C4690460023E1EE59
:10D9BC00103AEFF3148525F0040585F31488BFF3B2
:10D9CC006F8F00F019FC0A4B444430469E6024F0E3
:10D9DC0007040EF060F8384684F30988002163B61A
:10D9EC0081F31188BFF36F8F002200230DF0FAF939
:10D9FC00FC1C0220014910220A60704710ED00E067
:10DA0C00404080F3118830BF704700BFEFF30880AF
:10DA1C00EFF30981724601B500F0B0FA01BD00BF09
:10DA2C002DE9F04781468AB00C4600297AD00122B4
:10DA3C004FF000033F4D62F307033F4A3F48AD1AD6
:10DA4C00C5F3C90565F38F13ADF80030D1E9012397
:10DA5C0009680DF06BFA01224FF0000362F3070323
:10DA6C0065F38F13ADF80030D4E90423E168344832
:10DA7C000DF05CFA01234FF0000263F3070265F32B
:10DA8C008F12E1692F480DF025FA27460026DFF8A2
:10DA9C00C0A0D7ED087AFCEEE77ACDED037AD7ED8E
:10DAAC00097AFCEEE77ACDED057AD7ED0A7AFCEE31
:10DABC00E77ACDED077AD7ED0B7A0822FCEEE77A00
:10DACC0028F03F0343F0010363F30708731C04932E
:10DADC00B31C069365F38F18F31C029608930DEB99
:10DAEC000201434650460436CDED097A0DF039FA61
:10DAFC00102E07F11007CCD101234FF0000263F375
:10DB0C00070265F38F12216E0F480DF0E3F94FF009
:10DB1C000002012363F3070265F38F12A1690B481E
:10DB2C000DF0D8F9214648460BF0B2FB0AB0BDE81F
:10DB3C00F08700BFCCD9010054D901006FE301007C
:10DB4C009EE30100CDE301001FE401002EE401007F
:10DB5C00DCE3010030BFFFF7FDBF00BF114A08B581
:10DB6C00114B22F07F029A60BFF34F8FBFF36F8F80
:10DB7C00D3F8882042F4A002C3F888204FF040422A
:10DB8C00C3F83422BFF34F8FBFF36F8F0023E1EE46
:10DB9C00103A0BF0FDFB0BF005FC00F0FBFA0BF060
:10DBAC003FFC00BF00C0000000ED00E001B572B604
:10DBBC000B4A106A00281EBF002111620FF08FF96A
:10DBCC0062B6EFF30580A0F110004FEAC0000549E2
:10DBDC00014409C99847BDE80140034908470000C2
:10DBEC00FC1C022068D60100D9D700000DF020F9EA
:10DBFC00202080F3118808484FF40061401880F30E
:10DC0C000988EFF314800221084380F31488BFF3D2
:10DC1C006F8FFFF7A3FF0000E05E022001234FF09F
:10DC2C00000110B563F307013A4C3B4B3B48E41A37
:10DC3C00C4F3C90464F38F110DF03FF9384B9B6AA0
:10DC4C00990109D54FF00001012363F3070164F337
:10DC5C008F1134480DF031F9314B9B6ADA0109D53B
:10DC6C004FF00001012363F3070164F38F112E4879
:10DC7C000DF023F92A4B9B6ADB0209D54FF000010A
:10DC8C00012363F3070164F38F1128480DF015F994
:10DC9C00234B9B6A180309D54FF00001012363F352
:10DCAC00070164F38F1122480DF007F91C4B9B6A96
:10DCBC00590309D54FF00001012363F3070164F305
:10DCCC008F111C480DF0F9F8154B9B6A9A0309D576
:10DCDC004FF00001012363F3070164F38F11164821
:10DCEC000DF0EBF80E4B9B6ADB0309D54FF00001EE
:10DCFC00012363F3070164F38F1110480DF0DDF875
:10DD0C00074A0020936A6FEA03436FEA1343936256
:10DD1C0010BD00BFCCD9010054D90100BCE50100F5
:10DD2C0000ED00E0D4E50100E7E5010001E60100AB
:10DD3C002BE6010049E601006EE6010088E60100D1
:10DD4C00F8B501230E464FF00001374C63F3070181
:10DD5C00364B0746E41AC4F3C90464F38F113448F4
:10DD6C000DF0ABF8334B9B6AD90609D54FF0000187
:10DD7C00012363F3070164F38F112F480DF09DF815
:10DD8C002C4B9B6A1A0709D54FF00001012363F352
:10DD9C00070164F38F1129480DF08FF8254DAB6AFC
:10DDAC009B071CD501234FF0000163F3070164F3BB
:10DDBC008F1123480DF081F8696BAB6A18060ED5EC
:10DDCC004FF00002012363F3070264F38F121D4826
:10DDDC000DF080F81FB1AB6A23F08003AB62154BDA
:10DDEC009B6ADA0709D54FF00001012363F30701A1
:10DDFC0064F38F1114480DF060F80E4B9B6A9B0670
:10DE0C0009D54FF00001012363F3070164F38F116F
:10DE1C000E480DF052F80020064B9A6A9A6A42F0AE
:10DE2C00FF029A623070F8BDCCD9010054D90100C0
:10DE3C00E4E4010000ED00E0FAE401002DE501004E
:10DE4C0040E5010058E501006EE501008DE501009B
:10DE5C00F8B501230E464FF000013D4C63F307016A
:10DE6C003C4B0746E41AC4F3C90464F38F113A48D7
:10DE7C000DF023F8394B9B6AD90409D54FF00001FA
:10DE8C00012363F3070164F38F1135480DF015F886
:10DE9C00324B9B6A1A0509D54FF00001012363F33D
:10DEAC00070164F38F112F480DF007F82B4DAB6A67
:10DEBC009B051CD501234FF0000163F3070164F3AC
:10DECC008F1129480CF0F9FFA96BAB6A18040ED519
:10DEDC004FF00002012363F3070264F38F1223480F
:10DEEC000CF0F8FF1FB1AB6A23F40043AB621B4B81
:10DEFC009B6A590509D54FF00001012363F3070113
:10DF0C0064F38F111A480CF0D8FF144B9A6AD2059F
:10DF1C0011D54FF000010123164863F3070164F398
:10DF2C008F110CF0CAFF00200C4A936A43F47F4314
:10DF3C0093623070F8BD9B6A9B04F4D54FF00001DE
:10DF4C00012363F3070164F38F110B48E9E700BF6A
:10DF5C00CCD9010054D901005CE4010000ED00E0D3
:10DF6C0072E401002DE5010083E401009CE4010052
:10DF7C00B1E40100CCE401008DE501002DE9F04392
:10DF8C00694B9DB0D3F80480064689461446C8F305
:10DF9C000807002585F31188BFF36F8F02F07F43CC
:10DFAC00B3F17F4F28D1D00726D4510603D42207D2
:10DFBC0012D4012512E001234FF000015B4A63F3F8
:10DFCC0007015B4B5B489B1ADB0863F38F110CF06A
:10DFDC0074FF14F0040501D04E46002500238DF883
:10DFEC000730FB1E092B00F28280DFE803F0076B81
:10DFFC006F4E8080808080732E46EFE701234FF0B8
:10E00C0000014FF0000863F30701494F474B4A48A2
:10E01C00FF1AC7F3C90767F38F110CF04EFF424B81
:10E02C008DF80780DC6A14F002040BD04FF000016D
:10E03C000123424863F3070167F38F110CF03DFF96
:10E04C00002425E0DB6A5B0022D501234FF00001A0
:10E05C0063F3070167F38F1139480CF02EFF394B2E
:10E06C001B782BB101200DF10701FFF769FE0EE0C3
:10E07C00354B1B782BB101200DF10701FFF7E8FEA2
:10E08C0005E0324B1B889BB213B1FFF7C7FD04466A
:10E09C009DF807309BB96822314602A80DF0B4FEFA
:10E0AC00099B002D3AD0C3F3080222B96FEA53231F
:10E0BC006FEA4323099302A92046FFF7B1FC1DB078
:10E0CC00BDE8F0830DF107010020CEE70DF107014B
:10E0DC000020D3E701234FF00001144A63F307013A
:10E0EC00134B1B489B1ADB0863F38F11A6E7012225
:10E0FC004FF000030E4962F307030C4A1548891AC6
:10E10C00C90818F4F87F61F38F13A7F110021249B4
:10E11C0018BF014611480CF0F1FE91E723F4FF7390
:10E12C0023F00103C6E700BF00ED00E054D9010065
:10E13C00CCD90100B3E60100D6E60100EDE6010002
:10E14C000EE7010028ED00E029ED00E02AED00E0EB
:10E15C002DE7010078E7010063E7010091E701007A
:10E16C00024A536943F010035361704700ED00E01D
:10E17C00BFF34F8F0549064BCA6802F4E0621343A4
:10E18C00CB60BFF34F8F00BFFDE700BF00ED00E099
:10E19C000400FA05002320210348C2180133412B47
:10E1AC0082F80013F9D1704700E100E038B505465C
:10E1BC004FF02003EFF3118483F31188BFF36F8FBB
:10E1CC000BF0CEFD0A4B9B68AB420BD1094B5A6846
:10E1DC00C2F3080212B92046FFF706FB5A6842F058
:10E1EC0080525A602046BDE838400EF0D5BF00BFC3
:10E1FC00FC1C022000ED00E010B50E4B88B0029321
:10E20C000D4B0E4C03930E4B0E4A049302AB019331
:10E21C0001A82346012100F051F9002307930A4B72
:10E22C000121E41A05A80593069400F051F908B0F1
:10E23C0010BD00BF00000220000000000000042000
:10E24C0006000100000002200000022010B50B683F
:10E25C000C7A23F01F0204F01F031A43CB686409E5
:10E26C0023F01F03044943EA440343F0010388608D
:10E27C00CA600B6110BD00BF90ED00E008B54FF017
:10E28C0000020123074963F30702074B5B1ADB0803
:10E29C00014663F38F1205480CF01CFE6FF015005D
:10E2AC0008BD00BF54D90100BCD90100EEE7010044
:10E2BC002DE9F04F07468846144600265E4D85B082
:10E2CC0046453DDA57F82630D3F80490B9F1000FE3
:10E2DC0059D0B9F11F0F22D919F01F0F1FD1D3F844
:10E2EC0000A01AF01F0F1AD150460DF0FFFB834609
:10E2FC0009EB0A0001380DF0F9FB834524D06FF0CF
:10E30C00150B01234FF000024C4963F307024C4BF1
:10E31C004C485B1ADB0863F38F1259460CE001235F
:10E32C004FF00002454963F30702454B46485B1A20
:10E33C003146DB0863F38F120CF0CCFD6FF0150443
:10E34C00204605B0BDE8F08F1BF1160FD9D0631E27
:10E35C005B45D6DBC5F808B0E868C5F808B02B6992
:10E36C0057F8261020F01F0043F01F0AD1E90032A5
:10E37C001A44984202F1FF3918D1CA4505D15FFA07
:10E38C008BF00DF090FB01369AE7C5F808B0EB68FE
:10E39C0022F01F0203F01F031A43EA60E0B20DF0F3
:10E3AC0082FB10F1160FC9D0441CECE7C5F808B07D
:10E3BC002A69013B23F01F0302F01F021343CA45D5
:10E3CC00E0B22B61EBD00DF06EFB10F1160FB5D057
:10E3DC00C5F808B0EA689DF808300AF1FF3A62F314
:10E3EC0004038DF808302B699DF808205B0863F353
:10E3FC00471257F826308DF80820D3E900130B4448
:10E40C00009323F01F03441C5344A3EB0903E4B211
:10E41C0023F01F030F2C039308D92046FFF72EFF80
:10E42C0010F1160F044689D00134ACE7694620463A
:10E43C00FFF70CFFF8E700BF90ED00E054D90100A6
:10E44C00BCD90100CBE70100A8E701000522034B72
:10E45C005A60BFF34F8FBFF36F8F704790ED00E0A2
:10E46C00BFF35F8F0022014B5A60704790ED00E0C4
:10E47C0070B50E4D2E68102E15D80024FFF7F0FF46
:10E48C000B4B0C4A1A63A64205D10B4B1E70FFF7BF
:10E49C00DDFF002070BD6968204601EB0411FFF719
:10E4AC00D5FE0134EFE74FF0FF30F3E798DA0100C7
:10E4BC0090ED00E0AAFF44002A23022010B5034C83
:10E4CC002278FFF7F5FE207010BD00BF2A23022032
:10E4DC002DE9F74F254C8A4680460027A1464FF080
:10E4EC00140B234D57451ADAD8F804300193002B3E
:10E4FC0036D0D8F80010084600910DF0F7FADDE997
:10E50C0000130646581801380DF0F0FA8642194AE5
:10E51C0008D014235F436FF0150349F8073003B09C
:10E52C00BDE8F08F16F1160F2660F8D01378B342C1
:10E53C00F5DD0BFB0793AE60AE60E868197B60F30A
:10E54C00040119732969187B490861F34710187382
:10E55C00EB6823F01F0363602B6923F01F03236117
:10E56C000137143408F10C08BCE700BF300202205C
:10E57C0090ED00E02A23022070B50C4B0E461C785F
:10E58C000546234600210A4A0F2B0BDD094951F899
:10E59C00040BFFF75BFE224631462846BDE870406F
:10E5AC00FFF786BE936011610133EDE72A23022049
:10E5BC0090ED00E0300202202DE9F04F1E460023C2
:10E5CC00A3B0CDE902010193134613F8010B089394
:10E5DC0058B1252800F085800399029B984701309B
:10E5EC0040F01A844FF0FF330193019823B0BDE83B
:10E5FC00F08F232C6CD061D8002CF6D0202C0E9BE5
:10E60C0008BF01230E93CDF82080DDF82080B74899
:10E61C0018F8014B21460DF0B7FB0028E9D12A2C44
:10E62C0066D156F8043B98F80040002B0993BFBF05
:10E63C005B42099301230F93089B03F102082E2CD4
:10E64C007BD198F800302A2B74D156F8045B08F172
:10E65C00010818F8014B2146A54827460DF094FBFC
:10E66C0000286DD0434613F8014B682F089307D14F
:10E67C00682C05D1482708F1020398F8014008934B
:10E68C00672C7BD8652C80F03581472C5CD8452CC9
:10E69C0080F03081002CA8D0252C00F0B983039990
:10E6AC002520029B984701309CD003992046029B61
:10E6BC009847013096D0019B0233AFE32D2C0AD042
:10E6CC00302C0BD02B2C0B9B08BF01230B939AE700
:10E6DC004FF0010B97E701230F9394E701230A9363
:10E6EC0091E700230A930E930B930F939B468CE7B1
:10E6FC00A4F13003092B0990A1D80A22DDF820805F
:10E70C0018F8014BA4F13003092B98D8099B02FB94
:10E71C000344A4F13003CDE90883EFE7904601FBF5
:10E72C000535303D424612F8013BA3F13000092873
:10E73C00F4D98EE700250A21F4E74FF0FF358AE77C
:10E74C00CDF8208007469BE7632C59D020D8582C55
:10E75C00A5D16F2C06F10409316840F02883BBF178
:10E76C00000F00F0178330238DF86C30002940F037
:10E77C001B838DF86D100F46012625E0702C00F0E0
:10E78C00F58227D86E2C00F0DE82E2D8692C86D177
:10E79C00376806F10409002F80F29A802D23794204
:10E7AC008DF86C300DF16D0630460A220DF078FBB9
:10E7BC000B9B06441BA8361A002B40F032830E9B91
:10E7CC00002B40F02E83FF0F002D21DA0025AB46E5
:10E7DC00A846E1E0752CBCD0782CBAD0732C7FF411
:10E7EC005EAFB146002DB8BF6FF00045002659F85A
:10E7FC00043BB54240F0C9822E4600252F4608E066
:10E80C000027B1463D46012659F8043B8DF86C3083
:10E81C001BABEA190025AB46A846921B22EAE27212
:10E82C0091190691099990190C1A0F9911B9002C8C
:10E83C0000F3148303EB070A534540F0138312F1E2
:10E84C00FF3280F01D83F61BB8F1000F11D09AF83F
:10E85C0000000AEB0607A0F13003092BA7EB0A0610
:10E86C0040F21983474617F1FF3780F01D83A6EB62
:10E87C000806BBF1000F15D00AEB06071AF8018B3E
:10E88C0003994046029B984701303FF4ABAEB8F178
:10E89C002E0FA7EB0A06F1D15F46002F00F30D8374
:10E8AC00A6EB0B0695B19AF800000AEB0607A0F14F
:10E8BC003003092BA7EB0A0640F20A832E2800F03E
:10E8CC0007832F46002F00F30C83761B56441BE363
:10E8DC000B9B23B12B238DF86C30394662E70E9BD2
:10E8EC000BB12023F7E739461BAE5DE714E80100B6
:10E8FC001AE8010006F1070929F00709F9E80223D3
:10E90C00D80240EA5250D60220F00040002AC3F34D
:10E91C000A510496059073F10003DDE90467CDE913
:10E92C00166741DA2D238DF86C300DF16D0740F22E
:10E93C00FF73994253D1DDE904120A43A4F1410457
:10E94C0007F1030340D1192C38D849223A704E22D2
:10E95C007A7046220025AB46A8461BAEBA70FD70F5
:10E96C009B1B0B9A002A40F0EC810E9A002A40F077
:10E97C00E8819DF86C70A7F12D025742574105EBC9
:10E98C000806334403EB0B0622AB3B4413F81C3C48
:10E99C00303B092B00F249820A9B002B00F0488285
:10E9AC00099B9A1B1BAB39E70B9B0BB12B23BAE7CB
:10E9BC000E9B0BB12023B6E71BAFB8E769223A7068
:10E9CC006E227A706622C5E7192C99BF4E2241211E
:10E9DC006E22612194BF3A703A707970BAE7049B49
:10E9EC0005980B431093CB170343462C119308BF88
:10E9FC006624DDE91023134300F01181002900F097
:10EA0C009B800026179BA1F2FE3843F0004317931E
:10EA1C0018F1020FC0F2A480B8F1000F00F3DD80F2
:10EA2C0016A808F101080DF05DFAB8F1040FF7D142
:10EA3C00002D04F0DF03B8BF0625472B40F0F8800B
:10EA4C00F11C02DBAE4240F3ED80023CE4B2002D3F
:10EA5C0000F0F480013DBBF1000F40F0EF80002D81
:10EA6C00D4BF4FF0000A4FF0010A662C40F0E8804A
:10EA7C0016EB050840F1EC80102366244FF00008DB
:10EA8C00159300224FF00063CDE9182318F1FF38DD
:10EA9C0080F0E080169B189A19999B18179A41EBF5
:10EAAC000202CDE9163202F0704312930023139345
:10EABC00DDE91223134306D016A80DF024FA16A88C
:10EACC000DF010FA0136662C40F0E180002E40F378
:10EADC00C880159B002B07DD15A916A80DF03EFA72
:10EAEC00013E07F8010BF4D1B0463B460026BBF1C2
:10EAFC00000F01D1002D15DD2E2203F8012B002E65
:10EB0C0000F0C080002D40F3BF80C6F1000BAB4578
:10EB1C00A8BFAB46A5EB0B05002D03DD159A002A0B
:10EB2C0000F3A680BAF1000F40F0C68000221BAEA5
:10EB3C001A709B1B15E70139049BDB180493059B8A
:10EB4C005B410593DDE90423002A73F10003F2DA3B
:10EB5C00DDE90423CDE9162353E716A80DF0C2F91D
:10EB6C00DDE916EC00230021CDF830C00D93BC4834
:10EB7C00DDE90C23994208BF904208F10108ECD35F
:10EB8C000520AEFB0023CDE90623079B013E00FBCD
:10EB9C000C334FF0000C0793DDE90623CDE9162367
:10EBAC00002100236FF0004207988B4208BF82427D
:10EBBC0008D2BCF1000F3FF42BAFDDE90623CDE901
:10EBCC00162325E7069B08F1FF38DB180693079BF5
:10EBDC004FF0010C5B410793E2E716A80DF093F997
:10EBEC00DDE916AE4FF0000C08F1FF3801360023BA
:10EBFC0000216FF00040994208BF704506D2BCF16D
:10EC0C00000F3FF409AFCDE916AE05E71AEB0A0A7F
:10EC1C004EEB0E0E08F1FF384FF0010CE7E7002623
:10EC2C00B046FDE6AD1BBBF1000F04D1662416E720
:10EC3C004FF0000A19E74FF0000A19E74FF0000AED
:10EC4C0005F10108102398451593A8BF984618E7BD
:10EC5C006624F7E718A80DF056F918A80DF042F93C
:10EC6C0014E73B4630224FF0000803F8012B3EE737
:10EC7C0015A916A806930DF071F9069B013D03F832
:10EC8C00010B49E7B34647E74FF0000B4AE715A9DC
:10EC9C0016A80DF063F93028387018BF06F1FF364E
:10ECAC00BBF1000F38D1002D36DC7B1CBAF1000F04
:10ECBC0044D04FF0000BD8461A4613F8011D3029EA
:10ECCC00FAD02E2918BF1346002504F0DF02452A7E
:10ECDC007FF42CAF002EB4BF2D222B221946B8BFC7
:10ECEC007642632E01F8024B5A7008DD642096FBC5
:10ECFC00F0F200FB126602F13004D91C9C700A2061
:10ED0C0096FBF0F20B4600FB126602F13004303633
:10ED1C0003F8024B4E7009E72E22BB1C7A70002DB3
:10ED2C00C4DD159A002AC1DD15A916A806930DF0AD
:10ED3C0015F9069B013D03F8010BF0E7D346D046CD
:10ED4C00C3E701271BE6B146682F59F8043B05D0F1
:10ED5C0001DC482F07D0019A1A6001E0019A1A8051
:10ED6C004E46089A30E4019A1A70F9E7B14647F614
:10ED7C003003102259F8041B0DF16E00ADF86C3005
:10ED8C000DF08EF80227861C1EE59A5D002A4AD0EB
:10ED9C0001362EE51BAC082220460DF081F81BAE87
:10EDAC00A61B064400270FE50DF16D04F3E7752C47
:10EDBC0005D10A221BA80DF073F80646F2E7BBF149
:10EDCC00000F12D047F630030DF16E08ADF86C3021
:10EDDC00102240460DF064F8582C09D01BAEA8EB5D
:10EDEC00060606444FEA4B07EEE40DF16C08EFE71C
:10EDFC001BAA12F8013BA3F16101192903D8203B8E
:10EE0C0002F8013CF5E712F8013C002BF1D1E5E7E3
:10EE1C0003992046FFF7E1BB019B01330193B146F7
:10EE2C009EE70127D0E41546E8E41BAB0022F7E48B
:10EE3C001BAB0A9AF4E4CDE909320399029B20201A
:10EE4C009847DDE9093201303FF4CCAB1AF1FF3AB7
:10EE5C00F1D20199214401915446EBE4A246F5E725
:10EE6C003233333313F8010B03990993029B0A9243
:10EE7C009847DDE9093201307FF4DEACFFF7B2BB15
:10EE8C0003993020029B099298470130099A7FF42C
:10EE9C00D6ACFFF7A7BBDDE90231984701303FF450
:10EEAC00A1AB1AF8010FD6E403993020029B9847C6
:10EEBC0001307FF4D8ACFFF795BB03993020029B4F
:10EECC009847013007F1FF377FF4E7ACFFF78ABBB7
:10EEDC00DDE90231984701303FF484AB1AF8010F99
:10EEEC00E5E403993020029B9847013007F1FF3786
:10EEFC007FF4E8ACFFF776BB03991AF8010B029B81
:10EF0C00984701303FF46EABA6EB0A03002BF3DC01
:10EF1C00019B069A002C134401937FF721AF2546E1
:10EF2C0006E003992020029B984701303FF45AAB2E
:10EF3C0015F1FF35F5D2019B2344019310E700BF77
:10EF4C00014B1860704700BFF88402200CB41FB549
:10EF5C0009B90DF10300CDE9020107AB069A02A92C
:10EF6C0005480193FFF728FB0022029B1A7005B09D
:10EF7C005DF804EB02B070479DBF01000EB40FB5F5
:10EF8C006FF0004105AB53F8042B02900391064837
:10EF9C0002A90193FFF710FB0022029B1A7004B028
:10EFAC005DF804EB03B070479DBF010038B5074C0A
:10EFBC00074DAC4200D138BD23681B685B681BB1A0
:10EFCC001B680BB1204698472034F2E7E0860220FC
:10EFDC000087022038B5084C084DAC4200D138BD32
:10EFEC00206803210C300CF0FBFF10B920460CF00C
:10EFFC00FDFF2034F1E700BFE086022000870220ED
:10F00C0000232DE9F04F022889B081468A469046AC
:10F01C00CDE906333CD106AA10460491194606E008
:10F02C000478013101340470CCB2072C03D83AF8BF
:10F03C001140002CF4D00133082B00F10100EDD16C
:10F04C004FF0FF360127002312F8011BB94288BF8D
:10F05C005EB203F10103DBB288BF0F46082BF3D17C
:10F06C000393012F4FF03A0308BF4FF0FF36029382
:10F07C00002244461546039B9D4219DB444509D0AA
:10F08C000023B9F1010F0CBF04F8013C237003E01D
:10F09C00012805D04FF00008404609B0BDE8F08FBC
:10F0AC002E2304224FF0FF36CDE902320746DFE76C
:10F0BC00039B042B34D11AF8051049B93023204690
:10F0CC0000F8023B029B63700135EDB20446D2E7B7
:10F0DC0009204FF0000BDFF8D8C00194B1FBFCFE07
:10F0EC000CFB1E138345059301DC614506D3834657
:10F0FC00019B0EF1300E03F801EB01930A2301384A
:10F10C00BCFBF3FC431C0599E8D14FF000030199BB
:10F11C000B700B1BDBB20299E0180130E154D3E702
:10F12C00AE420DD102B916B93A2304F8013B3A2389
:10F13C00204600F8013B7B1E1D44EDB20022C3E7C4
:10F14C0012B13A2304F8013B049B33F815301A0230
:10F15C0042EA132212B2C2F307235FFA82FBB3B165
:10F16C000F2BD9B20BD90023612220460CF06FFF74
:10F17C000123612259460CF06AFF0122A4E75BB21D
:10F18C00092994BF30335733601C2370F0E7BBF16F
:10F19C000F0F03D9612259462046ECE752B2BBF15E
:10F1AC00090F94BF30325732601C2270E5E700BF64
:10F1BC0000CA9A3B13B50A4C206818B909480AF0E2
:10F1CC003BF82060042243680DEB02011B68984752
:10F1DC00002802DAFEF7E0FA0190019802B010BDA7
:10F1EC004402022035E8010008B5094B1A786AB9C7
:10F1FC000121312019700521FEF788FB3120FEF723
:10F20C0075FB4FF00042034BC3F80423002008BDEC
:10F21C002B2302200010034070B5036882689B68A2
:10F22C00514C187901F01F0343EA40130020D4F825
:10F23C000453EDB200F5A27654F82660C6F304260A
:10F24C00B34270D125FA00F6F6076CD5850005F1AE
:10F25C00804505F54435D5F8106526F00106C5F84E
:10F26C001065012505FA00F0C4F808033F4D05EBC5
:10F27C008305D5F8000220F44030C5F800029068F0
:10F28C00C84010F001004DD0D068C84010F001000B
:10F29C0048D05069C84010F0010050D09069C84067
:10F2AC00C00744D41069D269C84022FA01F100F0B9
:10F2BC00010001F00101884214BF01210221002547
:10F2CC0005F5A27254F8220010F0030031D1AA0007
:10F2DC0002F1804202F54432D2F810651B0203F4AD
:10F2EC00F85326F4473626F4407643EA014105F1FB
:10F2FC004003C2F810659B00D2F810659BB203F175
:10F30C00804303F544333143C2F810151860D2F82A
:10F31C00103543F00103C2F81035012303FA05F54B
:10F32C00C4F8045370BD0130082883D19EE7032133
:10F33C00C5E70135082DC3D16FF01200F2E7136950
:10F34C00D269534023FA01F111F0010F14BF4FF4AD
:10F35C0000324FF44032D5F8003223F440331343DB
:10F36C00C5F80032DEE700BF0010034000258440E2
:10F37C002DE9F74F8046856803F47040B0F5804F57
:10F38C001E4640D009DCB0F5805F3ED0B0F5405F42
:10F39C003DD090B16FF0150032E0B0F5E04F38D0B1
:10F3AC0004DCB0F5A04FF5D1032006E0B0F5404FDA
:10F3BC0031D0B0F5504FEDD1072006F44077B7F5BA
:10F3CC00807F2AD0A7F5007463426341012919BFDD
:10F3DC00D4B2A1464FF01F0900244FF0010B06F0E8
:10F3EC00010C4FEA4C0747EA0C0747EA0020DFF80C
:10F3FC00A0A040EA830706F00203A1450FD200202B
:10F40C0003B0BDE8F08F0220D7E70120D5E7042038
:10F41C00D3E70520D1E70620CFE70323D6E7D8F8BA
:10F42C0000209268117904F01F0242EA41128032E6
:10F43C004AF82270A9680BFA04F2002B25D011436C
:10F44C00A9606969B0064CBF114391436961A96910
:10F45C0070064CBF11439143A961296970074CBFD9
:10F46C00114391432961E96930064CBF0A4321EAF3
:10F47C000202EA61214640460193FFF7CDFE0028C7
:10F48C00BED10134E4B2019BB7E721EA0201D7E710
:10F49C00002584404F492DE9F0410D68002D60D0C6
:10F4AC004D4B00269A681B68DFF838E19F68D2E95B
:10F4BC0002030340D2E90504204323EA0003386821
:10F4CC00D4691269006954404440012023EA0404C1
:10F4DC0093BB0B60002301201F464049404ED1F8DE
:10F4EC00042300FA03FC1CEA020F0DD056F823206B
:10F4FC0052B103F5A27251F8222046F82370C2F3E0
:10F50C00042200FA02F214430133082BE7D154BB56
:10F51C0085B101240025304BDFF8C8C09A681B6800
:10F52C009E68D2E902130B40D2E90510014323EA8D
:10F53C0001037BBBBDE8F08103420FD097F804C0F8
:10F54C0006F01F0242EA4C120EEB8202D2F800C205
:10F55C0023EA00032CF4403CC2F800C20136400000
:10F56C00B6E72C46B6E71C4FD7F80880D8F8001041
:10F57C000029CDD00E68D8F80C308A68234013428D
:10F58C0003D04B68224638469847002EC0D03146EF
:10F59C003668F0E71C421AD0307905F01F01D769A4
:10F5AC0041EA401110690CEB81017840E84010F001
:10F5BC00010F14BF4FF400374FF44037D1F800025D
:10F5CC0023EA040320F440303843C1F8000201352B
:10F5DC006400AEE77C110340B485022000100340A8
:10F5EC000011034000258440F0B54B79012B29D044
:10F5FC00032B24D110268B79032B20D1CC792CB161
:10F60C00012C1CD103689B681B79C3B10A7912B118
:10F61C00022A14D10E2247F6122705680B68AD6832
:10F62C00BB422D6862D029D8B3F5965F61D014D84F
:10F63C00B3F5167F5FD007D8B3F5967F5ED06FF029
:10F64C00220052E00026D6E7B3F5966F59D0B3F5F9
:10F65C00166FF4D14FF41D233CE0B3F5615F53D02A
:10F66C0004D8B3F5165FEAD1324B33E0B3F5964FBD
:10F67C004CD0B3F5E14FE2D12F4B2BE0B3F5E13F8A
:10F68C0046D012D84DF6C027BB4244D005D8B3F5AE
:10F69C00164FD4D14FF41D031CE0B3F5614F3DD090
:10F6AC00B3F5963FCBD1254B14E0B3F5E12F38D011
:10F6BC0008D8B3F5613F37D0214FBB42BFD14FF0D3
:10F6CC00806307E0B3F5612F31D01E4FBB42B6D13A
:10F6DC004FF08053C5F8243534438368224303C963
:10F6EC00C5F86C2583E803000020F0BD4FF400033F
:10F6FC00F0E7154BEEE74FF41C33EBE74FF4A03378
:10F70C00E8E74FF49E23E5E7104BE3E7104BE1E706
:10F71C004FF0EB73DEE74FF46503DBE74FF46B035D
:10F72C00D8E74FF0E863D5E74FF06C73D2E74FF0B2
:10F73C007063CFE70050270000C0750000903A01BD
:10F74C0090D0030040420F0000B0130000F03A00CC
:10F75C0000A04E0070B50646002201210820FEF7DD
:10F76C00D5F80820FEF7C2F84FF000523368B568A0
:10F77C009B6803211C681A4B1D209A600022C3F859
:10F78C007412C3F87022C4F80C051C20C4F81405BC
:10F79C004FF000609860C3F86C12C3F868221B230A
:10F7AC00C4F808351A232946C4F810353046FFF73B
:10F7BC001BFFA0B90823C4F8003505F10C03C4F8ED
:10F7CC001001C4F834350123AA68C4F8383592689E
:10F7DC002360C4F84425C4F84805A360E36070BDF9
:10F7EC0000258440002208B511462A20FEF78EF829
:10F7FC0003F06AFC014B1860002008BD680202206F
:10F80C0070B50D4B0D4C1A680A2500262346196855
:10F81C0081420ED051B15968511AB142C4BF1C4635
:10F82C000E46013D03F10803F1D12346013A18605D
:10F83C005A60184670BD00BF6C020220780202208C
:10F84C00684620F007018D4619B50D4BD3E8EF2F14
:10F85C000132C3E8E12F0029F8D107F067FD094B0D
:10F86C001C683CB9FEF76AF8FDF7B0FFBDE819401B
:10F87C0085467047201D0AF04FFC2468F1E700BF55
:10F88C006C020220700202202DE9F04F884689B0EC
:10F89C000DF09EFDD8F800300646002B0F4603D124
:10F8AC000AF0C0FB3C206EE0BCBF4FF0FF33C8F841
:10F8BC0000300122002102A80DF01CFD0DF1040AFC
:10F8CC004FF02003EFF3118B83F31188BFF36F8F8D
:10F8DC000AF01CFCFFF794FF334943680A68894619
:10F8EC0093424FF0000308D10193304B5A68002A21
:10F8FC004CD1C3E900AA012300E042608BF31188CC
:10F90C00BFF36F8F002B3DD0D8F8001002A80AF07F
:10F91C002FFC4FF02003EFF3118B83F31188BFF30F
:10F92C006F8F0020214B1A6852B1524539D1019981
:10F93C0088BB58681960904200D15960002301932C
:10F94C000AF0E4FBFFF75CFFD9F8003043608BF35F
:10F95C001188BFF36F8FD8F80090B9F1FF3F11D029
:10F96C000DF036FD16EB090247EBE973141A63EB45
:10F97C000105002C75F10003B8BF0024C8F8004045
:10F98C00002C8FD0002009B0BDE8F08FC2F800A089
:10F99C00C3F804A0AFE701605968914208BF5860F2
:10F9AC00CCE710461268BFE76C02022070020220FE
:10F9BC002D2810B504460CD038DC0E2809D011DCEB
:10F9CC00082806D009DC022803D0052801D001281C
:10F9DC0019D10CF0F9FC046010BD0C28F9D057DCDF
:10F9EC000928F5E7282800F0838005DC1828F0D0DA
:10F9FC00232852D01628EBE72A28EAD051DB2B28F3
:10FA0C00E7D02C2851D001234FF000023A4963F380
:10FA1C0007023A4B3A485B1ADB0863F38F12214614
:10FA2C000BF058FA0CF0D0FC364B34E03C28D0D01C
:10FA3C0015DC3328CDD005DC3028CAD0322838D09C
:10FA4C002F28C5E73628C4D001DC3428C0E7382875
:10FA5C00BFD03928D7D10CF0B7FC39231BE07D2857
:10FA6C0033D009DC702828D073282AD06928CAD151
:10FA7C000CF0AAFC37230EE07F282FD029DB80283E
:10FA8C0031D08128BFD10CF09FFC40F2D47302E03E
:10FA9C000CF09AFC0D2303609EE70CF095FC0B23F5
:10FAAC00F9E70CF091FC2923F5E70CF08DFC2C23E5
:10FABC00F1E70CF089FC3E23EDE70CF085FC4323C9
:10FACC00E9E70CF081FC4423E5E70CF07DFC4823CE
:10FADC00E1E70CF079FC40F2D173DCE70CF074FC3C
:10FAEC0040F2D273D7E70CF06FFC40F2D373D2E73D
:10FAFC000CF06AFC2423CEE754D901007CD9010018
:10FB0C0056E80100ADBAADBA4FF08052014BC3F8C4
:10FB1C000021704700E100E04FF08052014BC3F828
:10FB2C008021704700E100E04FF00052014BC3F818
:10FB3C000021704700E100E04FF00052014BC3F888
:10FB4C008021704700E100E008B50023074AC2E9B4
:10FB5C000033074AD2E8EF1FC2E8E03F0028F9D192
:10FB6C000CF05DFCBDE808400CF04EBC70020220AD
:10FB7C006C020220B0F58D7F3CD004DC012844D00F
:10FB8C004FF0FF30704740F20223984252D040F2BF
:10FB9C0003239842F4D101391329F1D801A353F866
:10FBAC0021F000BF4DFC000011FC000031FC0000F6
:10FBBC0023FC000035FC000039FC00003DFC00007B
:10FBCC008DFB00008DFB00008DFB00008DFB000009
:10FBDC008DFB00008DFB00008DFB00008DFB0000F9
:10FBEC008DFB00008DFB00008DFB00008DFB0000E9
:10FBFC0027FC000001390529C2D8DFE801F0031504
:10FC0C0017190C21022313600AE0142905D01929B5
:10FC1C0005D00429B4D10423F5E71423F3E71160CC
:10FC2C00002070470323EEE70523ECE70623EAE701
:10FC3C000723E8E70229E5D00329F3D001299FD156
:10FC4C000123E0E70122034B1860036802489A760F
:10FC5C00FDF7F0BBC802022040DB010007B50190A4
:10FC6C0018B1D0F8983A0C30984701A9024809F01D
:10FC7C00A9FC03B05DF804FB1486022008B5094BFF
:10FC8C0040F201221B6800211B6866209847064B36
:10FC9C001860013004D109F0F5FA0068404208BD43
:10FCAC000020FCE70C020220CC02022010B586B02A
:10FCBC00FFF7E4FF044688B101234FF000020F491F
:10FCCC0063F307020E4B5B1ADB08014663F38F12DA
:10FCDC000C480BF0FFF8204606B010BD0A23CDE906
:10FCEC000400CDE90203CDE90000074B4FF480621C
:10FCFC00064907480AF0B6FAEDE700BF54D90100EF
:10FD0C0064D901008FE8010021FD0000A04702200A
:10FD1C00E00202202DE9F04F8D4B8E4DDFF858B2EA
:10FD2C00ED1A87B0C5F3C9054FF0FF3203A98A4815
:10FD3C0009F01CFC0023894C03992268C1F8983AFD
:10FD4C00566A0C3104938DF8143040F68C22DBF893
:10FD5C000000B047011E26465ADA27F03F0343F055
:10FD6C00010363F3070765F38F177D483A460BF0E1
:10FD7C00B1F82368DBF800005B689847002831D1A4
:10FD8C00FFF77CFF70BB28F03F0343F0030363F3E2
:10FD9C00070865F38F18414672480BF08EF8012363
:10FDAC008DF8143009F06EFA03685B4204930399E2
:10FDBC00D1F8983A002B40F0A18003A9664809F0CD
:10FDCC0001FC694B9B68002BAED19DF81420042AD2
:10FDDC00AAD0664A13604FF0FF3204A9644809F0B8
:10FDEC00C7FCA1E701234FF0000463F3070465F39C
:10FDFC008F1409F047FA224601685E480BF06AF846
:10FE0C0033685D4A5B681068984707B0BDE8F08FAF
:10FE1C0040F68C23994203D0039E3144CA7A72B1C6
:10FE2C0029F03F0343F0010363F3070965F38F19CE
:10FE3C00494652480BF041F86FF03603B6E70423FD
:10FE4C0006F10C044E4920468DF8143001920BF04B
:10FE5C006BFF034620B1019A8DF8142004920EE03A
:10FE6C00484920460BF060FF019010B3022206F1C6
:10FE7C0017008DF814200BF042FE019B049000211A
:10FE8C001A1B013219709DF81430042B4CD03E4CC7
:10FE9C002368002B51D03D4E306800284DD0934242
:10FEAC001CD903990C310BF0AFFF00232360336096
:10FEBC007DE7374920460BF037FF019008B103224C
:10FECC00D5E7344920460BF02FFF0346002839D0E4
:10FEDC0001228DF814206FF00702BFE72AF03F03D0
:10FEEC0043F0010363F3070A65F38F1A51462A485E
:10FEFC000AF0E3FF6FF023030493D6E7274B0022AD
:10FF0C004B600B460A6043F8082FD3E8EF2F42F002
:10FF1C000100C3E8E40F002CF7D1D3073FF551AF34
:10FF2C001F480DF089F84CE7002A3FF440AF1D4BF9
:10FF3C001A68039BC3F8982A39E7002A3FF437AFB5
:10FF4C000A4BF5E720460BF02DFF421C9BE700BF48
:10FF5C0054D9010064D90100148602200C0202203D
:10FF6C002FE9010051E9010064860220D002022031
:10FF7C00A486022065E90100CC0202209CE9010064
:10FF8C00E6E90100E9E90100DC020220D8020220C6
:10FF9C00F5E9010001EA010007EA010069FC000033
:10FFAC003C1D0220D4020220F7B507460D460BF08B
:10FFBC00F9FE234B02461B6806462248DC6A39468A
:10FFCC0000230068A047431C044620D101234FF0B6
:10FFDC0000041D4A63F307041C4B9B1ADB0863F3F4
:10FFEC008F1409F04FF92246016819480AF072FF84
:04FFFC0009F048F9C7
:020000021000EC
:1000000003685B42009301238DF8043015B19DF81D
:1000100004302B70009803B0F0BD4FF0FF326946FA
:100020000F4809F0FDFBA642F0D001224FF000037B
:10003000084962F30703084A0A48521AD20862F3D1
:100040008F13214632460AF05FFFDFE70C020220E1
:10005000CC02022054D9010064D90100DAE8010081
:10006000A4860220FDE801002DE9F04105468846FE
:1000700017461E460A4C4FF0FF3120460AF07EF824
:10008000084B3146C3F80080074B28461F60FFF736
:1000900091FF054620460AF045F82846BDE8F08164
:1000A00064860220D8020220DC02022038B50F4C00
:1000B0000546216879B181420DD002234FF000023C
:1000C0000B4863F307020B4B1B1ADB0863F38F1219
:1000D00009480AF005FF4FF0FF3108480AF04EF8D2
:1000E00025600648BDE838400AF01CB8D40202205A
:1000F00054D9010064D90100B1E8010064860220EE
:100100000B4B70B51B6853B100251C461B68666815
:100110008E4206D1A668964203D123460560184652
:1001200070BD002BFBD025461C461B68EFE700BFC7
:100130009003022010B50024034B0448C3E9004497
:10014000FFF7B4FF204610BD900302205D010100BF
:10015000014809F035BC00BF9086022038B505463D
:100160004FF0FF31094809F0B9FB094B1B681BB977
:10017000BDE83840FFF7ECBF1C689A68294658680C
:100180009047002CF4D023462468F6E7908602209E
:100190009003022073B506460C4699B901224FF030
:1001A00000031E4962F307031D4A521AD20862F384
:1001B0008F13014622461B480AF0A6FE6FF0150079
:1001C00002B070BD4FF0FF31174809F087FB22469F
:1001D000314601A8FFF794FF054618B1FFF7B8FFB5
:1001E0000020EDE70C2009F0ADFA019020B9FFF7EF
:1001F000AFFF6FF03600E3E70C2229460BF034FE28
:10020000019B0A4A1D605168C3E9016411B9C2E942
:100210000033E3E70B605360E0E700BF54D901000F
:1002200074D9010055EA0100908602209003022053
:1002300037B505460C4699B901224FF00003224913
:1002400062F30703214A891AC90861F38F13224612
:1002500001461F480AF058FE6FF0150003B030BD8C
:10026000002301934FF0FF311A4809F037FB224673
:10027000294601A8FFF744FF88B902234FF0000187
:10028000124A63F30701104B13489B1ADB0863F310
:100290008F110AF018FEFFF75BFF0020DEE7019ADE
:1002A00001680E4B4AB95A681960904200D15960F2
:1002B000002303600CF04AFEEDE7116059688842A4
:1002C00008BF5A60F4E700BF74D9010054D9010097
:1002D00055EA0100908602202FEA010090030220D7
:1002E00038B5054D441E14F8011F01B938BD286802
:1002F00043685B689847F6E76804022000B5224926
:1003000089B008460DF103034FF48052FFF7ACFEAD
:10031000011E12DA01234FF000021C4863F30702AA
:100320001B4B1B1ADB0863F38F121A480AF0D8FD27
:1003300001238DF80330184812E09DF80330032B99
:1003400010D801A252F823F059030100370301002D
:1003500073030100810301000B48FFF7C1FF0F4841
:10036000FFF7BEFF0E4B18680CF03CFC09B05DF8BF
:1003700004FB0A460B4901A8FEF706FE01A8EFE7B9
:100380000A460949F7E700BF4C23022054D901006F
:100390006CD901004AEB010075EB010070EB010024
:1003A000680402207DEB01008EEB01002DE9F3478C
:1003B000064643685B6C03B1984773685B6BC3B1D7
:1003C00030469847A8B1DFF84CA1474DD146474B7E
:1003D000474CED1AC5F3C905DAE8AF3FDB0708D48F
:1003E00073689B692BB101220DF1070130469847D4
:1003F00010B902B0BDE8F0879DF80710082901D0B8
:100400007F2905D12368002BE6D0013B2360E3E779
:10041000384A1378CBB90A292BD00D2911D0A1B9AC
:10042000354B1B78002B40D027F03F0343F00203ED
:1004300063F3070765F38F17394630480AF043FD29
:10044000CAE72D48007801282FD0D4F800C00CF15D
:100450000100B0F5805F1DD328F03F0343F0010396
:1004600063F3070865F38F18424625480AF038FD04
:10047000B2E721480078022817D00328E5D1D4F844
:1004800000C0BCF1000FE0D01E48604410F8010C21
:100490000D28D9E7DFF86CE022290EF80C10206057
:1004A0009AD183F00103137096E700231549206861
:1004B00013700B5423600B78002B8DD0124B1868EF
:1004C0004368DB6A03B19847D9E8EF3F43F0010284
:1004D000C9E8E12F0029F7D1DA073FF57DAF0B49D5
:1004E0000B480CF0AFFD77E76CD9010054D901003F
:1004F000980302204C3302204D3302209FEB010071
:10050000CBEB01004C230220680402205C04022093
:100510009C0302206404022002224A4B2DE9F34787
:10052000494900201A70FFF735FE484C484B0646F3
:10053000E41AC4F3C90470B14FF00002012363F35D
:100540000702014664F38F1242480AF0C9FC3046A4
:1005500002B0BDE8F087404808F074FE3F4D2860C7
:10056000C8B901234FF0000263F307023A4964F36C
:100570008F123B480AF0B4FC6FF0150101234FF0D5
:10058000000263F3070264F38F1236480AF0A8FCF6
:100590006FF00D06DBE70CF021FF8146DFF8E0A0ED
:1005A000286843689B689BB39847804680B30CF0EB
:1005B00015FFA0EB0900B0F5FA7F0DD901234FF02C
:1005C000000263F30702414664F38F1226480AF0E3
:1005D00087FC6FF00401D1E727F03F0343F00303EA
:1005E00063F3070764F38F173A46414650460AF013
:1005F00077FC286843689B691BB90A2009F064FDF1
:10060000CEE701220DF1070198470028F1D1F4E768
:100610002A68536823B19B6C13B11449104698475C
:100620000022134B13491A60C3E9011212480A232E
:100630004FF40072114909F0C5FE28680CF0D2FA97
:1006400085E700BF4D330220EFCB01006CD90100DC
:1006500054D901008FEA010027E301006804022059
:10066000ADEA010028EB0100BDEA0100AD03010085
:100670005C040220FD0201009C030220A04B02202A
:10068000F3EA01002DE9F0430568A3B000952B784B
:1006900080460F461646002B00F0C180614B1C7847
:1006A000052C10D16B1C0093009A10780CF0B9FA4D
:1006B00030B9531B2A46394630460CF07DFB1BE00F
:1006C00001320092F0E7062C24D168460CF09BFA28
:1006D000009A10780CF0A5FAA8B9531B39462A469F
:1006E00030460CF069FB009B1A783D2A0ED15A78EF
:1006F0003F2A01D1023300930020009BC8F800304C
:1007000023B0BDE8F08301320092E1E73F2AF3D144
:100710000133F0E7072C03D110460CF028FBEBE780
:10072000022C12D1009A1078222803D010B10CF0BC
:1007300061FA38B1531B39462A4630460CF03CFB6F
:10074000009BE5E701320092ECE7012C3CD1284602
:100750000A2201A90BF075FA019B334D0290009318
:1007600000980378292B28D03BB32C3BDBB2013017
:10077000112B009003D825FA03F3DB0708D4A14618
:1007800004E0019BB9F1200F009315D04C46E7E738
:100790000A2201A90BF055FA22AB04F1010903EB7F
:1007A000840444F8800C00980BF002FB0446019886
:1007B0000BF0FEFA8442E4D14C46A30002AA39466B
:1007C00030460CF01CFBBBE7032C15D10A2202A912
:1007D00028460BF036FA029BB0F5803F02460093A4
:1007E00005D282B2394630460CF0AEFA84E739467B
:1007F00030460CF0CEFA7FE7042C7FF47DAF009BEF
:100800001A78A2F13001092906D942F02002613A92
:10081000052A01D95B1B4DE701330093EFE74FF049
:10082000FF306DE74E3302200140020070B50468CE
:1008300000290546227844D12B2A2A4E01D0252AA8
:1008400004D10523337000202C6070BD20460CF0CD
:10085000F4F9A0B30623F5E747F6E57121FA03F3AF
:10086000D9070AD503221F4B1A70ECE7282A04D1B6
:1008700001221C4B14441A70E5E710460CF0BAF93B
:1008800070B118490878032808D114F8010F0CF04A
:10089000B1F90028F9D104230B70D4E70728D2D08E
:1008A0002C3AD2B2112A07D80F4B23FA02F2D307FF
:1008B00002D50C4B0722D7E74FF0FF30C5E70223E4
:1008C000C0E703DD2B2AF7D0252AF5D0A2F12B03B0
:1008D000DBB20E2BC0D9222AC8D10222014B01342F
:1008E0001A70B0E74E330220014002002DE9F347B1
:1008F000884616461F46044600287CD0002A7AD037
:100900005368002B77D0002510460CF0F7F93268B9
:100910000194974228BF17462C46384BDFF8E090E9
:100920001D70019A1378002B4BD0A74249D9202B78
:1009300002D0093B042B01D801320192214601A8C3
:10094000FFF774FF421C3CD03246214601A8FFF756
:1009500099FE431C35D0019B1A782C3AD2B2112A49
:100960001AD829FA02F2D10716D558780CF042F9B4
:1009700078B10134BC4239D0214601A8FFF756FFB7
:10098000421C1ED03246214601A8FFF77BFE431CC5
:1009900017D0019B01330193019A10780CF02AF9CA
:1009A000F8B1013211789246084601320CF022F972
:1009B0000028F7D119B12B2901D0252911D1CDF863
:1009C00004A0019BA5B91A78002A0CBF00206FF083
:1009D0000A00B8F1000F01D0C8F8003002B0BDE83D
:1009E000F0870134BC4208BF01259AE70546E8E7D5
:1009F0006FF00600EDE76FF01500EFE74E330220D1
:100A00000140020008B5002307481A461946FFF7BF
:100A10002BFB034628B9024601460448FFF724FB96
:100A200008B16FF0040008BD69EC01003DEC010065
:100A30000023F0B587B00293CDE90433CDF80B3035
:100A400007230D46174601930646002800F08280D2
:100A500000297FD00A2104A80CF03DF9044688B192
:100A600001234FF000023D4963F307023C4B5B1A40
:100A7000DB08014663F38F123A480AF031FA204648
:100A800007B0F0BD01460A2304AA3046FFF72EFF47
:100A9000044690B101234FF00002304963F307028E
:100AA0002F4B5B1ADB0801462F4863F38F120AF0C5
:100AB00017FA04A80CF03AF9E1E7014601AB02AAE3
:100AC00004A80CF0D2F9044668B101234FF00002EB
:100AD000224963F30702224B5B1ADB08014663F3EA
:100AE0008F122248E3E7224A019902A80CF0E0F9AC
:100AF0000028DED06A46394604A80CF0A3F9044663
:100B000068B101234FF00002144963F30702144B4C
:100B10005B1ADB08014663F38F121648C7E700999A
:100B2000082915D012DC052912D901234FF0000243
:100B30000A4863F307020A4B6FF004041B1ADB0830
:100B400063F38F120C480AF0CBF9B2E75A29ECD1C3
:100B50002970AEE76FF0150491E700BF54D901008A
:100B60009CD901008AEC0100B3EC0100E0EC01002B
:100B700009ED010010ED01003DED010007B508464B
:100B800081B901234FF00001154A63F30701154BAA
:100B900015489B1ADB0863F38F110AF094F903B030
:100BA0005DF804FB01220DF10701FFF741FF60B181
:100BB00001234FF000010A4A63F30701094B0B4878
:100BC0009B1ADB0863F38F11E7E79DF8073003F00A
:100BD000FB03012BE3D1064809F0A4FADFE700BFCD
:100BE00054D901009CD90100F3EB010013EC010082
:100BF0006C0402202DE9F84F0122002138480CF046
:100C00007FFB38490020FFF7C5FA374C374B814648
:100C1000E41AC4F3C90468B101214FF0000261F382
:100C200007020146324864F38F120AF059F9484628
:100C3000BDE8F88F02272F48DFF8D4A0DFF8A0B076
:100C400000231A461946FFF70FFA034690BB0246E7
:100C500001462948FFF708FA804658BB51465846D6
:100C600009F08CFA10F10B0F814625D126F03F03D5
:100C700043F0030363F3070664F38F1631461F48FE
:100C80000AF021F9012F27D04346424641461C482D
:100C9000FFF7EAF970B925F03F0343F0030363F36C
:100CA000070564F38F15174829460AF00CF9012748
:100CB0001548C5E76FF004090A490020FFF7B8FAA4
:100CC00001460028B3D001204FF0000260F3070274
:100CD00064F38F120D48A8E76FF03B09ECE700BF03
:100CE0006C0402207D0B01009CD9010054D9010045
:100CF0006CED010069EC010048EC010089ED010098
:100D000080EC0100AEED010052EC0100CAED0100E3
:100D1000C027090008B5FCF7C7F801234FF0000110
:100D2000064A63F30701064B06489B1ADB0863F388
:100D30008F110AF0C8F80020FDF720FA54D90100FD
:100D40008CD9010076EF01002DE9F04300261E4CFE
:100D500085B054F8049C1D4F01ADB14503D8002067
:100D600005B0BDE8F083636A97E80700D3F8008018
:100D700085E807000C22294640460BF03BF8A0B955
:100D8000B8F1000F11D0636A21691B681A6991429A
:100D90000BD19A69A169914207D8E169914204D9BE
:100DA00062695B6932EA030307D0236A4BB14040B2
:100DB00080F311884FF0040002DFE36801361C4421
:100DC000CBE7626A1360F8E73CC20000FCD901007F
:100DD00020B150F8081B090C00F052B8704700BF52
:100DE000014806F023BB00BF80DB0100002310B5E3
:100DF00082B0019361B970B1044601AA092006F0DE
:100E00004DFD18B9019B0BB10833236002B010BD32
:100E10000F2002B010BD0E2002B010BD01F47043CF
:100E2000B3F5E04F0BD160B1034630F8082C092030
:100E300042EA014143F8081D194606F017BD0F208C
:100E400070470E20704700BF20B1A0F108010920B3
:100E500006F056BD0E20704718B10146092006F075
:100E600061BE0E20704700BF10B504460068FFF752
:100E7000F3FFA06818B1BDE8104001F00FB910BD34
:100E800030B53B4B85B01D68002D4CD048F20203B5
:100E9000994253D01CD948F2030399425AD049F2DF
:100EA0000103994247D1002443680268CDE9024416
:100EB000CDE90023E869694603685B68984701301B
:100EC0004ED020462B6843F480332B6005B030BDF4
:100ED00048F2010399422ED1C368002B35D128680E
:100EE00010F480003ED02B689BB2012B05D12B68FB
:100EF0001B0C1B0443F002032B601E4B1A7802F0FC
:100F0000FF01002A31D01C4A117809B90121117062
:100F1000002018702B6823F480032B602B6843F4A7
:100F200000032B60D2E700680028CFD0FFF794FFC2
:100F3000284605B030BD002005B030BD2B6813F445
:100F400080030BD0C0680028E4D00E2300206B6023
:100F500005B030BDC368012BA5D1F6E71846B5E74B
:100F60000220B3E70E236B60B0E7034A1170CFE7AE
:100F7000880402204F33022050330220002310B592
:100F80000749084A084C0948237003600B70136036
:100F9000FFF726FF003018BF0120404210BD00BF00
:100FA0004F330220840402205033022088040220A0
:100FB00000232DE9F047662882B0009372D1022900
:100FC00089466FD140F205239A4292466AD1484F32
:100FD0003D68002D7CD18046464A684605F0D6FF24
:100FE000009B0646002B7DD02946042242483B60E8
:100FF0000AF03AFF009C2946C4E90389C4F814A00A
:1010000001A8FFF7F3FE00283CD101220421019B37
:101010003A4D58739873D87358729872D87219727F
:101020002A701A732268184642F48002226047F23E
:101030000101FFF7F3FE38BB4FF400024FF0FF331E
:101040001146304606F04EF8044610B3009A002EC2
:10105000136843F400331360009A136823F4800389
:101060001360009A136823F40003136036DA002338
:1010700020463B604FF0FF36FEF7A0FC304602B042
:10108000BDE8F0870C24E1E70198FFF7DDFE0524B9
:10109000DCE7304606F09AF850B1446844B10023CA
:1010A0004360D3E71620FEF789FC4FF0FF36E5E7F3
:1010B000009A136843F400331360009A136823F412
:1010C00080031360009A136823F400031360D5E7CC
:1010D0000120FEF773FC4FF0FF36CFE7304605F0F6
:1010E000B3FFC4E71820FEF769FC4FF0FF36C5E7F1
:1010F00088040220690E0100840402204F3302207C
:101100002DE9F04385B000295ED0002A16465BDD4C
:101110001F4680460D4606F059F80446002859D06F
:10112000C069BA070368DB6824D5984701303BD013
:101130002368E06913F4803338D0002123683A46ED
:1011400023F480332360CDE90211CDE90056036812
:1011500069469B6898470546E0690368DB689847DD
:10116000013003D0236843F480332360284605B060
:10117000BDE8F083226812F08059D6D19847431C0D
:10118000D6D14FF48032236A1146002B08BF0346A4
:10119000404605F0A7FF58B14FF0FF35FEF70EFCB3
:1011A000284605B0BDE8F0832320F5E71D46D4E7C7
:1011B000404606F00BF803460028B9D040680028E6
:1011C000B6D0C3F80490E7E71620FEF7F7FB4FF020
:1011D000FF35CBE70920FEF7F1FB4FF0FF35C5E700
:1011E0002DE9F04182B000295BD0042A59D11E4676
:1011F00007460D4605F0EAFF0446002867D0B00711
:1012000026D523689B035ED500262368002123F49E
:101210000033236001A8D5F80080FFF7E7FDF8B997
:101220000425019B47F20301C3F80C8058729872A1
:10123000D8721D721846FFF7F1FD804640BBCEB94B
:101240002846236843F40033236002B0BDE8F081F0
:101250002368D900D5D423689A0336D50126D4E76C
:101260000C20236843F400332360FEF7A7FB4FF004
:10127000FF30EAE74FF480324FF0FF331146384633
:1012800005F030FF98B1236843F400332360ECE7A6
:101290000198FFF7D9FD2368052043F4003323604C
:1012A000E3E71620FEF78AFB4FF0FF30CDE7384624
:1012B00005F08CFF03460028C2D040680028BFD04C
:1012C000C3F80480DFE77320CFE70920CDE70920CA
:1012D000FEF774FB4FF0FF30B7E700BFF0B5012910
:1012E00085B068D01E4640F20523994240F09580B3
:1012F0000746154605F06AFF0446002800F0B28054
:10130000012D19D0022D10D02A25036823F4800363
:1013100023602368284623F400032360FEF74EFB76
:101320004FF0FF35284605B0F0BD16B10A9B012BE2
:1013300049D023681625E9E7002EFAD00A9B042B32
:10134000F7D1002103A8FFF751FD054600286AD117
:101350000398082229460C300AF086FD039831468E
:101360000A9A0C300AF056FD0823039847F202014E
:10137000037245728572C572236843F4800323604B
:10138000FFF74CFD002851D14FF400024FF0FF331E
:101390001146384605F0A6FE054600283BD13846E2
:1013A00005F014FF00284FD04368002B4CD00022DA
:1013B0001D4642602FE00A9C009405F02FFF054671
:1013C000284605B0F0BD002103A83578FFF70EFDD3
:1013D00048BB012D08BF264B4FF0040208BF1D700B
:1013E0000023039847F201014372C5608372C37200
:1013F0000272236843F480032360FFF70FFD064663
:10140000A0B94FF400024FF0FF331146384605F003
:1014100069FE054680B1236878E72A20FEF7CEFAF8
:101420004FF0FF357EE723680C256FE70398FFF741
:101430000BFD0525236869E7384605F0C7FE40B176
:10144000456835B14660E6E73146042209480AF0AE
:10145000E1FC236823F480032360236823F4000362
:1014600023605FE70920FEF7A9FA4FF0FF3559E73F
:101470004F33022084040220F0B5012983B0089E76
:1014800030D01F4640F20523994234D1154605F06D
:101490009DFE002837D0012D15D0022D0BD187B32A
:1014A000336873B30023012218461A49097839704A
:1014B000326003B0F0BD0920FEF780FA4FF0FF3331
:1014C000184603B0F0BDE7B13368032B19D938468D
:1014D000042211490AF09EFC0023042218463260BF
:1014E00003B0F0BD009605F0CFFE03460028E3D11F
:1014F000184603B0F0BD2A20FEF760FA4FF0FF3324
:10150000DEE71620D8E70920FEF758FA4FF0FF3340
:10151000D6E700BF503302208404022010B50446F1
:1015200005F054FE38B1204605F08EFD0023054A33
:101530001846136010BD0920FEF740FA4FF0FF3047
:1015400010BD00BF88040220006804F0DDB900BFB0
:10155000F0B583B00F461546064605F037FE002865
:1015600047D0036804469B0343D50368294623F408
:1015700000330360036801A843F40013236004F000
:1015800099F9A0BB0422019B1A7258729872D87202
:10159000DE6085B91846012104F0A0F9D0B94FF4F6
:1015A0000032304611464FF0FF3305F09BFDA8B9DD
:1015B000284603B0F0BD394618682A460AF02AFCCE
:1015C0000121019804F08AF90028E8D0019B1868ED
:1015D00004F09AF9019804F08FF92320236843F46A
:1015E00000332360FEF7EAF94FF0FF30E1E70C200B
:1015F000F4E71620F6E700BF04F056B92DE9F041F4
:10160000002582B002AB43F8085D80460F461846BD
:10161000164602211D4A05F0B9FC009B04460BB397
:10162000C3E903875E61294601A804F043F9E8B9DC
:101630000422019B052158729872D8721A72DC60DC
:10164000184604F04BF9D8B902224FF0FF33114687
:10165000204605F047FD054648B9009A136843F453
:1016600000331360204602B0BDE8F0810C2520460F
:1016700005F0EAFC2846FEF7A1F94FF0FF34F1E748
:10168000019804F039F92325F1E700BF491501005D
:10169000F0B583B0064605F099FD00283DD00D2336
:1016A00007680360036804469B031FD4002101A858
:1016B00004F000F920BB0422019B062158729872A5
:1016C000D8721A72DE60184604F008F9D0B90E22FA
:1016D0004FF0FF331146304605F004FD0546A8B92A
:1016E000304605F0B1FC284603B0F0BD0368002188
:1016F00023F40033036001A804F0DCF80028DAD0FA
:101700000C2503E0019804F0F7F82325276028460C
:10171000FEF754F94FF0FF35E5E71625F7E700BF70
:101720002DE9F04184B0884615461E46074605F06F
:101730004DFD002849D00023CDE9008516F00205B3
:101740000446CDE902330ED01EE0002D33D14FF414
:101750008032236A1146002B08BF4FF0FF33384612
:1017600005F0C0FC05462368E06923F4803323605C
:10177000036832469B6869469847B0F10008E4DB8D
:10178000404604B0BDE8F0810368C06923F48033AB
:101790002360036832469B6869469847B0F10008A9
:1017A000EEDAB8F1FF3FEBD12320FEF707F9404610
:1017B00004B0BDE8F081B8F1FF3FE1D12846FEF763
:1017C000FDF8404604B0BDE8F0811620FEF7F6F8BB
:1017D0004FF0FF38D4E700BF05F056BD05F01EBD41
:1017E00070B5064684B0C0680D4605F0EFFC0446AF
:1017F00048B303689BB2012B1FD003689BB20D2B2B
:1018000029D003689BB2022B2DD0033D012D17D8A0
:10181000002573683268CDE90255CDE90023E069FF
:10182000694603685B689847013019D028462368E9
:1018300043F48033236004B070BD022DE5D1056010
:10184000002004B070BD30680028F9D004F05CF8C6
:10185000204604B070BD022DD7D10E230360EFE700
:10186000022004B070BD03689B02CED5022DCCD1FE
:10187000036823F400130360036843F40033036038
:10188000DEE700BF50F8081B090C01F02FB900BFBC
:10189000014805F0CBBD00BF90DB0100002310B56F
:1018A00082B0019358B1044601AA062005F0F6FF64
:1018B00018B9019B0BB10833236002B010BD07209B
:1018C00002B010BD11F4704F0BD160B1034630F877
:1018D000082C062042EA014143F8081D194605F08C
:1018E000C5BF0F2070470720704700BF20B1A0F18F
:1018F0000801062006F004B80720704718B1014619
:10190000062006F00FB90720704700BF2DE9F04F01
:10191000DFF8CCC083B000900CF13C0BDCF8083051
:101920002BB1DCF80020009C1078A04206D00CF10E
:101930000C0CE345F2D103B0BDE8F08FDCF804A055
:1019400003EB0A08C245F2D25368CDF804C0D6466C
:101950009C46D2F810909789AEEB0A00DFB3B9F835
:10196000022090421CD36546002409F1040303E0E1
:101970005A880433824215D833F8046C0134A742E4
:1019800002FB0655A0EB02001E46F1D10020814269
:101990000DD00EF1010EF045DED1DDF804C0C6E732
:1019A00065464E46338800FB03508142F1D1BEF5B7
:1019B000007FDDF804C0BAD00123084A4FEA5E1167
:1019C00052F821000EF01F0E03FA0EFE4EEA000040
:1019D00042F82100AFE73846D9E700BF8C04022067
:1019E000D0040220002850D06D4BD3F888209042BC
:1019F0004BD82DE9F04FD3F88CB083B0BBF1000F7A
:101A000054D00BF1FF32914600264FF01208654F7B
:101A100001920BF1110E06EB090253F83840013226
:101A2000520804EB440C02F1120153F8315057F8FC
:101A30002CA053F83E4003EBC80CDCF804C005EBC7
:101A4000450504EB4404DAF810A057F8255057F880
:101A500024403AF82CA003EBC10103EBCE0C4968FB
:101A60002D692469DCF804C0504535F8215034F85C
:101A70002C1015D9884211D2A84208D9561CB1455C
:101A8000C0F0878002F11308C5E70020704702F11B
:101A9000FF394E457DD802F1110EBCE709F1010670
:101AA000B34507D0102E01D0B34508D8002003B0AD
:101AB000BDE8F08F019A102A18BF1646F6D0DFF85D
:101AC000E8C003EBC608D8E9242402EB420257F829
