:10C0000088880220A5DB0000EBD40100F9DA0000EB
:10C01000F9DA0000F9DA0000F9DA0000F9DA0000D4
:10C02000F9DA0000F9DA0000F9DA000025D9000099
:10C03000F9DA0000F9DA000061D8000069D40000E4
:10C0400065DB000065DB000065DB000065DB0000F0
:10C0500065DB000065DB000065DB000065DB0000E0
:10C0600065DB000065DB000065DB000065DB0000D0
:10C0700065DB000065DB000065DB000065DB0000C0
:10C0800065DB000065DB000065DB000065DB0000B0
:10C0900065DB000065DB000065DB000065DB0000A0
:10C0A00065DB000065DB000065DB000065DB000090
:10C0B00039F50000AFDC010065DB000065DB000046
:10C0C00065DB000065DB000065DB000065DB000070
:10C0D00065DB000065DB000065DB000065DB000060
:10C0E00065DB000065DB0000CDDC010065DB0000E6
:10C0F00065DB000065DB000065DB000065DB000040
:10C1000065DB000065DB000065DB000065DB00002F
:10C1100065DB000065DB000065DB000065DB00001F
:10C1200065DB000065DB000065DB000065DB00000F
:10C1300065DB000065DB000065DB000065DB0000FF
:10C1400065DB0000000000000000000000000000AF
:10C1500000000000000000000000000000000000DF
:10C1600000000000000000000000000000000000CF
:10C1700000000000000000000000000000000000BF
:10C1800000000000000000000000000000000000AF
:10C19000000000000000000000000000000000009F
:10C1A000000000000000000000000000000000008F
:10C1B000000000000000000000000000000000007F
:10C1C000000000000000000000000000000000006F
:10C1D000000000000000000000000000000000005F
:10C1E000000000000000000000000000000000004F
:10C1F000000000000000000000000000000000003F
:10C20000DEE61E284CBBCE8F025B00003C00000027
:10C21000704C01000100000000C0000000C00000E0
:10C22000FFFF02910000000000000000000000007D
:0CC2300000000000000000000000000002
:10C23C0053B94AB9002908BF00281CBF4FF0FF3181
:10C24C004FF0FF3000F070B9ADF1080C6DE904CE81
:10C25C0000F006F8DDF804E0DDE9022304B07047D5
:10C26C002DE9F04F099E04468946002B40F083804F
:10C27C008A42154645D9B2FA82F24AB1C2F1200778
:10C28C0001FA02F39540944020FA07F747EA0309B4
:10C29C004FEA154E230C1FFA85F8B9FBFEFC0EFB7A
:10C2AC001C990CFB08F143EA094399420AD9EB1893
:10C2BC002CBF01200020994202D9002800F01D81DA
:10C2CC000CF1FF3C591AA3B2B1FBFEF00EFB10119E
:10C2DC0000FB08F843EA0144A04505D92C1902D209
:10C2EC00A04500F20E810138A4EB080440EA0C4092
:10C2FC0000271EB1D4400023C6E900433946BDE8EF
:10C30C00F08F002A51D0B2FA82F2002A40F0AF80AE
:10C31C00491B4FEA154E1FFA85F80127230CB1FB78
:10C32C00FEFC0EFB1C1108FB0CF043EA0143984287
:10C33C000AD9EB182CBF01210021984202D90029FF
:10C34C0000F0D7800CF1FF3C191AA3B2B1FBFEF040
:10C35C000EFB101108FB00F843EA0144A04505D977
:10C36C002C1902D2A04500F2C1800138A4EB0804BC
:10C37C0040EA0C40BDE78B4208D9002E74D0002750
:10C38C00C6E9000138463946BDE8F08FB3FA83F7A9
:10C39C0067B98B42C0F0A480824240F2A18038463B
:10C3AC00002EABD0C6E90049A8E7FFDEC7F1200597
:10C3BC00BB4002FA07FC01FA07F4EA4020FA05F840
:10C3CC00E94000FA07FE1A4348EA04044FEA12480F
:10C3DC00200C1FFA82F9B1FBF8FA08FB1A110AFBC0
:10C3EC0009FB40EA01418B450AD951182CBF0123A6
:10C3FC0000238B4502D9002B00F088800AF1FF3A0C
:10C40C00A1EB0B01A4B2B1FBF8F008FB101100FB7F
:10C41C0009F944EA0141894504D9511801D28945E9
:10C42C007BD8013840EA0A40A1EB0901A0FB0C893A
:10C43C00494544464B4602D306D1C64504D2013881
:10C44C00B8EB0C0469EB0203002E5DD0BEEB0402CA
:10C45C0061EB030101FA05F522FA07F3F940002715
:10C46C001D43C6E9005149E73746304646E7C2F15D
:10C47C002000954001FA02F721FA00F34FEA154E1D
:10C48C0024FA00F11FFA85F894403943B3FBFEF00F
:10C49C000F0C0EFB103300FB08FC47EA03439C45D2
:10C4AC0007D9EB182CBF012700279C4500D98FB367
:10C4BC000138A3EB0C0389B2B3FBFEF70EFB173369
:10C4CC0007FB08FC41EA03418C4504D9691801D2E9
:10C4DC008C4525D8013FA1EB0C0147EA00471DE72D
:10C4EC00841A61EB03030120994659E702382C4466
:10C4FC003CE7ACF1020C2B4426E7ACF1020C2B44CC
:10C50C00E0E602382C44EFE63746F7E6AAF1020AD9
:10C51C00114475E702382B44CBE70238114481E70C
:10C52C00023F2944D7E700BF704700BF074A136892
:10C53C0001331360064A1168B3FBF1F201FB1233AD
:10C54C0013B90122034B1A70704700BF1000022070
:10C55C0008000220304F022013B50140CA0716D53F
:10C56C000E4C2368B3F5806F13D201930C4B0D481E
:10C57C001B68082200930C490C4B006800F092FADF
:10C58C00412802D123680533236002B010BD8B070C
:10C59C00FBD50022014B1A60F7E700BF1400022004
:10C5AC0060C402200C00022008C4022078ED0100B7
:10C5BC00312313B5302219460D4810F0F7FB302209
:10C5CC0031231146CDE900230A4810F0EFFB01207E
:10C5DC0004F03EFA041E09DA0CF086FD21460268CE
:10C5EC00054802B0BDE8104010F0E0BB02B010BD31
:10C5FC0039F201004BF2010065F201004EF66022A7
:10C60C00014811460FF086BC40C50220002213B52C
:10C61C00094B0A4CCDE9003208212246684600F04D
:10C62C001FF9074B186028B1A061064A0649012082
:10C63C0011F0FEF902B010BD0100163310C4022037
:10C64C000C0002200CC402202CF201002DE9FF4149
:10C65C00314803F02BFB03F0F5FA00210F2011F009
:10C66C0026FFFFF7D3FFFFF7A3FF0021012003F004
:10C67C00B3FB4FF4FA600EF0BFFD0121084603F046
:10C68C00ABFB264C47F230500EF0B6FD03A920460A
:10C69C0004F0F4F93C222368214E93FBF2F323605F
:10C6AC00FFF7ACFF0021084603F096FB002435464B
:10C6BC001C4F02F017FCFF23B0FBF3F396F800803D
:10C6CC0018448DF80B00B8F1000F11D00021012097
:10C6DC0003F082FB012301930DF10B03009308225D
:10C6EC00114B1249386800F0DDF9412810D144464D
:10C6FC004FF47A700EF080FD2B78002BD9D0002CE3
:10C70C00D7D001210024084603F066FB2C70D0E73B
:10C71C0004B0BDE8F08100BF65C500000800022030
:10C72C00304F02200C00022078ED010008C40220DA
:10C73C002DE9F341154C9846236805460E461746DD
:10C74C004BB9134913488923134A10F02FFB892145
:10C75C00114810F05DFB23681B6B4BB90F490D485A
:10C76C008A230D4A10F022FB8A210B4810F050FB53
:10C77C00089A2368CDE9008231461C6B3A460023A7
:10C78C002846A04702B0BDE8F08100BF840102201A
:10C79C0017F7010022F70100EEF601003FF7010048
:10C7AC002DE9F3478046284E284D4FF44C7101205B
:10C7BC0011F0F8FF0446002843D01823C0F82C339E
:10C7CC003368071D00F5457900F54B7A4BB92049C4
:10C7DC00204875232A4610F0E9FA7521284610F0F6
:10C7EC0017FB33689B6A4BB91B491A4876232A46B8
:10C7FC0010F0DCFA7621284610F00AFBCDE9009AFD
:10C80C0033684FF40072D3F8289039460023404621
:10C81C00C847002815DB10234FF4007200933946EB
:10C82C0004F5057304F5017010F0FAFC002803DA26
:10C83C00204611F0B2FFB8E72146084811F0E0FF9E
:10C84C00B3E702B0BDE8F08784010220EEF60100E8
:10C85C0017F7010022F70100D9F601001CC60220CF
:10C86C002DE9F043474B14461A6887B006468946B3
:10C87C009846002A6BD11021012011F093FF074636
:10C88C00002864D04460404C358823684BB93F493C
:10C89C003F4819233F4A10F089FA19213D4810F0FE
:10C8AC00B7FA23681B684BB93B4939481A23394AF4
:10C8BC0010F07CFA1A21374810F0AAFA236828469F
:10C8CC001B681122022198470028054638603EDB80
:10C8DC0023684BB92D492E4834232E4A10F066FAA2
:10C8EC0034212C4810F094FA2368DB684BB92B499F
:10C8FC0027483523274A10F059FA3521254810F0DE
:10C90C0087FA23684A46DB68314628469847002850
:10C91C001FDA23683D684BB91C491D4821231D4A69
:10C92C0010F044FA21211B4810F072FA23685B685E
:10C93C004BB91B4916482223164A10F037FA22210C
:10C94C00144810F065FA236828465B68984700275E
:10C95C0013E000234FF0FF32CDE90433CDE902326E
:10C96C00CDE900734FF400620E4B0F490F480EF0E7
:10C97C0001FEC8F800000028E9D0384607B0BDE831
:10C98C00F08300BF780102208401022017F7010018
:10C99C0022F70100EEF60100A3F60100B6F6010045
:10C9AC00C7F6010009CB000088540220C800022001
:10C9BC002DE9F047012086B00D46DDE90E894FF4D4
:10C9CC00007192461E4611F0EDFE074640B138212B
:10C9DC00012011F0E7FE044628B9384611F0DDFEBF
:10C9EC006FF00B0536E02B4600F1140503F1180C23
:10C9FC002A4618685968083303C263451546F7D1AF
:10CA0C00109BC4F82CA02363119B04F1040A6363EC
:10CA1C0000F07CFB054600F08DFB02230822CDE9DB
:10CA2C00025300230490CDE90032394601234FF420
:10CA3C000072504610F0FAFA051E29DB16B156F8B2
:10CA4C00045B5DB9B8F1000F12D12146144811F006
:10CA5C00D7FE0025284606B0BDE8F087284610F022
:10CA6C00C5FE2A4683B20B21504610F029FBE3E7A2
:10CA7C00B9F1000FE9DD504610F0B2FB051E07DBE3
:10CA8C001FFA89F24146504610F0B4FB051EDCDA61
:10CA9C00204611F082FE384611F07FFEDAE700BF27
:10CAAC0030C60220F0B504460D4616468FB01C2247
:10CABC00002105A81F4610F0F5FE0494CDE90C5694
:10CACC000122002105A811F0E4FE04AB03930A4BEC
:10CADC0032460293159B29460193149B20460093E2
:10CAEC003B46FFF765FF28B94FF0FF3105A80EF064
:10CAFC000FFC0B980FB0F0BD45C701002DE9F04FAE
:10CB0C0003689BB0044600254FF0FF32CDE9003599
:10CB1C00CDE90252CDE90455A44B4FF48062A449EF
:10CB2C00A4480EF027FD002800F0A98124222946F4
:10CB3C0010A810F0B7FE04224FF044099DF84D30B8
:10CB4C0062F303038DF84D309B4B14939DF86130C9
:10CB5C0062F303038DF86130984B19930B93002308
:10CB6C001D46E668B34224D1002D33D0AE6B11F0D4
:10CB7C001FFF321A022110A80FF056FC10F10B0FF8
:10CB8C00014634D195F830306A6BA86B0133DBB2B7
:10CB9C0052006A63042B024485F83030AA631CD916
:10CBAC00286CEB6B00229847294620460FF06CFD51
:10CBBC00D5E709FB03F1A0684218415C41B125B1EE
:10CBCC00906BA96B8842A8BF2A4601331546C9E76A
:10CBDC002A46FAE74FF0FF32CCE7EB6A2A8900933A
:10CBEC00696805F114032068FFF7A2FDB7E7002878
:10CBFC00B5D1139B03F4F832B2F5804F1ED160F31C
:10CC0C00103313934FF0FF316B480DF0F7F80546D6
:10CC1C00E068236844210130079311F0C3FD0746F7
:10CC2C00002840D102462B6B686B6FF00B019847C4
:10CC3C00686811F0B2FD284611F0AFFD189B03F4A3
:10CC4C00F832B2F5804F8AD16FF3103318934FF04E
:10CC5C00FF310B980DF0D2F800F5017706463846F7
:10CC6C000FF02DFD0546002800F08180D6F82C33FE
:10CC7C0006F54575CDE9005306F50572102361687C
:10CC8C00384610F08CFB50B1D6F82C33A022CDE9ED
:10CC9C00015300233946009320460FF099FD30468E
:10CCAC0011F07BFD5BE7E268A16809FB02F210F072
:10CCBC00CFFDA06811F071FDE36805F104080133A4
:10CCCC00E36009FB03F3A7604046A3F1440B10F0AB
:10CCDC0000FB07EB0B06864605F1140A28BB012264
:10CCEC00D44607F80B20371D98E80F0087E80F0093
:10CCFC00BCE80F0006F114070FC79CE80300EB6AB1
:10CD0C0087E80300F36286F830E002F0EBF84FF4AA
:10CD1C007A73B0FBF3F202FB130000F5FA60706358
:10CD2C0011F046FE736B1844B0632B6B2A89F363C6
:10CD3C006B6B07983364EB6A009369685346FFF793
:10CD4C00F7FC404610F0C5FA00283FF474AF686851
:10CD5C0011F023FD002340466B600FF0B0FC00285F
:10CD6C007FF469AF314620460FF08EFC63E73846FE
:10CD7C0010F0F7FA0CA90890384610F0B1FAA84652
:10CD8C0006F5457307900A93E368984518D338461F
:10CD9C0010F09FFA002882D1D6F82C3306F5457294
:10CDAC00394620460FF0DDFC79E700BFADC7000027
:10CDBC00885002201800022030C602201CC6022017
:10CDCC00A568D6F82C3309FB0855EA6A9A4234D187
:10CDDC000A9905F1140010F02BFDB0FA80FB4FEA14
:10CDEC005B1B05F1040A504610F0BBFA0EA9099022
:10CDFC00504610F075FA079B834221D11A460CA9B4
:10CE0C000EA810F015FDB0FA80F04009BBF1000F30
:10CE1C001AD0DDE90832934214D1384610F059FA91
:10CE2C00032814D100226FF04701EB6B286C984754
:10CE3C00294620460FF028FC31E74FF0000BD0E7D5
:10CE4C000020E3E70028E8D108F101089CE7384608
:10CE5C0010F05AFA10F0E00803D0EB6B3A460021C0
:10CE6C00E4E750460FF02BFC10B185F8008016E774
:10CE7C00504610F049FA10F0E00F88D0D8E71BB0FC
:10CE8C00BDE8F08F2DE9F04F85B0837A00AF9B00A1
:10CE9C00073303F4FF63ADEB030DEB464368064623
:10CEAC005C460120CBF80030814222D2307C88468F
:10CEBC0010F00100154601D00FF0F0FC0446B8F15B
:10CECC00000F1EDABC23504A504951480FF06EFF38
:10CEDC0050480FF06BFFBC214B480FF099FF4FF0FF
:10CEEC00FF342146307C0FF0E2FC1437BD46BDE820
:10CEFC00F08F236801309B0823F0030344F8043FB0
:10CF0C00D2E75BF828302A4603FB05FA7B603368CE
:10CF1C0041463B6003EB0A09304607F10C030FF066
:10CF2C00A6FCFB681B6823FA00F0C3070DD4A323EF
:10CF3C00354A394936480FF039FF494637480FF022
:10CF4C0035FFA32130480FF063FF07F10C032A468D
:10CF5C00414630460FF08BFC0123FA6803FA00F0CF
:10CF6C001368396823EA000313600C23F26803FB8F
:10CF7C0008231A1D41F80A209A682146C9F8042092
:10CF8C009A68C2F80090C3F80890307C0FF08FFCC0
:10CF9C00307C10F0010001D00FF080FC0446B8F199
:10CFAC00000F9ED007F10C032A46414630460FF085
:10CFBC005EFCFB680028B8BF03301B6820F0030040
:10CFCC0023FA00F010F00F008BD1844625F0030AF1
:10CFDC007A680AEB0003534332680130D118D1F858
:10CFEC00049052F803E00428C9F800E0CEF804904D
:10CFFC0042F803C0C1F804C0EAD1002DB8BF033514
:10D00C0008F1FF38AD105AE752F70100170502007E
:10D01C0022F70100B3F701006FF701008EF7010052
:10D02C000B6801330B60014B1B68184764C402206A
:10D03C002DE9F04F85B00E9C9B46012CB8BF012406
:10D04C00012B0CBF3023202316468246884601252F
:10D05C000A270022DFF86C900293B6FBF9F30193D8
:10D06C000AB9B1451CD8019B414603F13000D047A9
:10D07C0001220135019B013F09FB13660A23012F95
:10D08C00B9FBF3F9E9D1414606F13000D047BBF1C9
:10D09C00030F02D1641B002C0EDC05B0BDE8F08F31
:10D0AC00BC42E7DBBBF1020FE4D841460298039285
:10D0BC000135D047039ADDE741462020D047013C9B
:10D0CC00E9E700BF00CA9A3B002307B5024601936B
:10D0DC0003480B4601A90FF0F9FC03B05DF804FB03
:10D0EC002DD000004FF02002EFF3118382F3118852
:10D0FC00BFF36F8F0121044AC2F8401583F31188E6
:10D10C00BFF36F8F002070470090034010B501F003
:10D11C00E9FE034C206001F0E5FE6060204610BD86
:10D12C007C01022008B501F0DDFE014B188008BD22
:10D13C00244F0220024B1888421C1A80704700BFF3
:10D14C00244F022038B5054648B90C490C48112328
:10D15C000C4A0FF02BFE11210A480FF059FE0A4C15
:10D16C0022684AB1094906481223064A0FF01EFEEE
:10D17C00122104480FF04CFE256038BD1EF701004B
:10D18C0022F70100C3F7010084010220F7F7010028
:10D19C0010B5002204460121052000F0DDFB05201E
:10D1AC0000F0CAFB0222074B0020C3F8182503220B
:10D1BC00C3F80423A368C3E90000A368C3E9030010
:10D1CC0010BD00BF0050004038B5CCB2012C054654
:10D1DC0009D90B490B4884230B4A0FF0E7FD842136
:10D1EC0009480FF015FE0C21AB6804FB01314B7A9A
:10D1FC0023B9087AB0FA80F0400938BD0220FCE768
:10D20C00A5F8010022F7010071F801002DE9F047A3
:10D21C00CDB2012D0746144609D94A494A48FD2387
:10D22C004A4A0FF0C3FDFD2148480FF0F1FD3B6861
:10D23C00D7F80880D3F80890002C59D14FF0200370
:10D24C00EFF3118A83F31188BFF36F8F0C2303FB69
:10D25C0005831E7A0136F6B21E725EB93C493A4815
:10D26C004FF48773394A0FF0A1FD4FF4877137489B
:10D27C000FF0CEFD8AF31188BFF36F8F2CB303220E
:10D28C00344BC3F808230C226A4308EB0203597A87
:10D29C0091B94FF02000EFF3118C80F31188BFF39C
:10D2AC006F8F2160586800283CD15C6048F80240C0
:10D2BC008CF31188BFF36F8F0322264BC3F8042322
:10D2CC0019B1D4E9013138469847012E0ED10C23FF
:10D2DC006B4359F8033043BB0C23012203FB059528
:10D2EC00AB7A03F1804303F5A0431A60002027E0DA
:10D2FC0063685BB9184914484FF48173134A0FF0F3
:10D30C0055FD4FF4817111480FF082FD0C236B43D6
:10D31C0058F803309C4211D0002B8FD01B68002B87
:10D32C00F8D18BE704605C60C2E738469847002868
:10D33C00D2D12946384610F09FF8D7E76FF00F008E
:10D34C00BDE8F087A5F8010022F7010071F8010093
:10D35C005FF801000050004011F801002DE9F04188
:10D36C00CCB2012C054609D9244925489923254AD4
:10D37C000FF01CFD992123480FF04AFD2B68AF6874
:10D38C00D3F808804FF02003EFF3118683F3118854
:10D39C00BFF36F8F0C226243B9180B7A4BB3013B6E
:10D3AC00DBB20B7243BBBB5042444B605368DBB9DE
:10D3BC000C22012104FB0282D37A03F1804303F592
:10D3CC00A04319601389002203F1804303F5A043A5
:10D3DC001A600C23002004FB0374607286F311881E
:10D3EC00BFF36F8FBDE8F081284698470028DFD146
:10D3FC00EFE76FF04400F1E70020EFE7A5F801003C
:10D40C0022F7010071F8010008B5104B1A6862B1DF
:10D41C000F4AD2F80423D10707D500220D481A6011
:10D42C008368597A09B910F027F80B4B1A6862B166
:10D43C00074AD2F80423920707D5002201211A606B
:10D44C000448BDE8084010F017B808BD0051004072
:10D45C0000500040B0C402200451004010B5064CEE
:10D46C0006492246064817230FF0A0FC2046BDE8CB
:10D47C00104017210FF0CCBCD9F8010017050200A1
:10D48C0022F70100002238B5224BC3F840214FF09F
:10D49C002003EFF3118583F31188BFF36F8F1E48C0
:10D4AC000DF0EAFF68B94A231C4A1D491D480FF0CC
:10D4BC007DFC19491C480FF079FC4A2117480FF0E4
:10D4CC00A7FC15480DF0F6FF124B184AD3F804458B
:10D4DC0013681148E41A24F07F44234413600DF0C0
:10D4EC00D9FF68B95D230D4A11490E480FF05EFC57
:10D4FC00094910480FF05AFC5D2108480FF088FCD0
:10D50C0085F31188BFF36F8F2046BDE838400EF0CD
:10D51C00D9BB00BF00500140A401022004F9010056
:10D52C0023F9010022F7010038F90100A0010220C3
:10D53C0050F9010067F9010070B515480BF0AEFD0C
:10D54C0010B3436801211B689847002401264FF44F
:10D55C0080334FF400120F4D3146C5F80845C5F81D
:10D56C004065C5F804330C4B15201C600B4BC3F8FD
:10D57C008021224600F0F0F9152000F0DDF920465C
:10D58C00074B1E602E6070BD4FF0FF30FBE700BFF5
:10D59C00C9F80100005001404051014000E100E099
:10D5AC000850014070B53A4CB0F1FF3F18BF04462B
:10D5BC004FF02003EFF3118583F31188BFF36F8FC6
:10D5CC0034480DF059FF68B94A23334A334934487B
:10D5DC000FF0ECFB2F4933480FF0E8FB4A212E48A3
:10D5EC000FF016FC2B480DF065FF2F4B284ED3F88F
:10D5FC0004252E4B1B68D01A10F4000F20F07F412D
:10D60C002CD1601E20EAE070B042A8BF3046013138
:10D61C000844B04294BF1B189B199A1A22F07F42FF
:10D62C00214923F07F40022AC1F8400518D9194836
:10D63C000DF030FF68B95D23174A1D4918480FF0EB
:10D64C00B5FB14491B480FF0B1FB5D2112480FF0DC
:10D65C00DFFB85F31188BFF36F8F70BD0020D6E719
:10D66C00D1F8042514489A1A22F07F42541E8442A1
:10D67C0005D94FF40012114BC3F80021D7E7012A4A
:10D68C0002BF023323F07F43C1F84035CFE700BF20
:10D69C00FEFFFF00A401022004F9010023F90100A0
:10D6AC0022F7010038F9010000500140A0010220CE
:10D6BC0050F9010067F90100FEFF7F0000E100E076
:10D6CC0038B54FF02003EFF3118583F31188BFF3C6
:10D6DC006F8F1A480DF0D0FE68B94A23184A1949C1
:10D6EC0019480FF063FB154918480FF05FFB4A21EE
:10D6FC0013480FF08DFB11480DF0DCFE144B0F4856
:10D70C00D3F80445134B1B68E41A24F07F440DF046
:10D71C00C1FE68B95D230A4A0F490B480FF046FB5E
:10D72C0006490E480FF042FB5D2105480FF070FBD7
:10D73C0085F31188BFF36F8F204638BDA4010220FA
:10D74C0004F9010023F9010022F7010038F9010066
:10D75C0000500140A001022050F9010067F90100BE
:10D76C0038B54FF02003EFF3118583F31188BFF325
:10D77C006F8F1B480DF080FE68B94A23194A1A496D
:10D78C001A480FF013FB164919480FF00FFB4A21EA
:10D79C0014480FF03DFB12480DF08CFE154B104851
:10D7AC00D3F80445144B1B68E41A24F07F441C4442
:10D7BC000DF070FE68B95D230A4A10490B480FF052
:10D7CC00F5FA07490E480FF0F1FA5D2105480FF004
:10D7DC001FFB85F31188BFF36F8F204638BD00BF48
:10D7EC00A401022004F9010023F9010022F7010031
:10D7FC0038F9010000500140A001022050F901004D
:10D80C0067F9010004488168406A884203D00349E3
:10D81C004FF080520A607047044E022004ED00E085
:10D82C00094A0A49936809685866996608494B6819
:10D83C0043F080534B60002383F31188BFF36F8F49
:10D84C009368986E704700BF044E022028F20100C6
:10D85C0000ED00E02E498A684FF028001044EFF3E9
:10D86C00098C80E8F01F4FF010001EEA000F04D066
:10D87C00D2F8AC0020F0040007E002F16C0080EC60
:10D88C00108AD2F8AC0050F00400C2F8AC00202092
:10D89C0080F31188BFF36F8F1E4F4FF000664A6AFA
:10D8AC008A603E60506E0023536680F31188D2F874
:10D8BC00AC0010F0040F05D10023E1EE103A5EF03D
:10D8CC00100E05E02EF0100E02F16C0090EC108A98
:10D8DC00EFF3148323F0040383F31488BFF36F8FE7
:10D8EC0004B510460FF002FEBDE8044002F128001A
:10D8FC0090E8F01F4FF0000080F30B888CF3098840
:10D90C0002F1000004B50FF0E0FDBDE804407047E3
:10D91C00044E022004ED00E01EF0040F0CBFEFF3E8
:10D92C000880EFF30980816911F8021C0229FFD0ED
:10D93C0001B50FF0D0FD01BD43B2002B08DB012275
:10D94C0000F01F0002FA00F0024A5B0942F82300C3
:10D95C00704700BF00E100E070B54C1C072C054679
:10D96C000E460ED95F23104A104911480FF01EFACB
:10D97C003146104807220FF019FA5F210A480FF0C0
:10D98C0047FA6BB2002BA8BF03F160434FEA441473
:10D99C00B8BF094BE4B2ABBF03F5614305F00F050B
:10D9AC0083F800435C5570BD7CF90100ABF90100B4
:10D9BC0022F70100C6F9010014ED00E008B572B6BB
:10D9CC00044B186A18B100221A6210F0D0FE62B62D
:10D9DC0008BD00BF044E02202DE9F7430D9E0546FD
:10D9EC000F2E884691461F4626D11E4B9F4227D1AB
:10D9FC000E9B4A46009341463346284610F062FF80
:10DA0C0008EB0904184AA4F1200323F0070322F0C1
:10DA1C0001029A610A9A1F605A600B9A9A600C9ADA
:10DA2C00DA604FF08072DA61AB6400236B66C5F884
:10DA3C00AC3003B0BDE8F08306F110031E2BD7D930
:10DA4C002D230A4A0A490B480FF0B0F931466FF002
:10DA5C000F030E2208480FF0A9F92D2103480FF0EF
:10DA6C00D7F9C5E74D910100D3CD0100FBF90100B9
:10DA7C0026FA010022F70100B3FA0100F8B51F469F
:10DA8C0006460D4614460023E1EE103AEFF31482DD
:10DA9C0022F0040282F31488BFF36F8F00F0FAF9BE
:10DAAC000B4B2C4430469E6024F007040FF01EFDF7
:10DABC0085F30B88384684F30988002163B681F31B
:10DACC001188BFF36F8F002200230FF07CF900BF89
:10DADC00044E0220014910220A60704710ED00E04C
:10DAEC00404080F3118830BF704700BFEFF30880CF
:10DAFC00EFF30981724601B500F0D2F801BD00BF09
:10DB0C0030BFFFF7FDBF00BF114A08B5114B22F023
:10DB1C007F029A60BFF34F8FBFF36F8FD3F88820CB
:10DB2C0042F4A002C3F888204FF04042C3F83422DC
:10DB3C00BFF34F8FBFF36F8F0023E1EE103A0BF062
:10DB4C0019FB0BF021FB00F05BF90BF04FFB00BF56
:10DB5C0000C0000000ED00E001B572B60B4A106A7F
:10DB6C0000281EBF0021116210F001FE62B6EFF317
:10DB7C000580A0F110004FEAC0000549014409C915
:10DB8C009847BDE80140034908470000044E0220B5
:10DB9C0090EA010011D800000FF042F9202080F328
:10DBAC00118808484FF40061401880F30988EFF39E
:10DBBC0014800221084380F31488BFF36F8FFFF7A2
:10DBCC00A3FF0000C88902200D4B9A6A9A6A9A6AD0
:10DBDC00920508D59A6B9A6A120404D518B19A6A00
:10DBEC0022F400429A620020054B9A6A9A6AD20586
:10DBFC0058BF9A6A9A6A42F47F429A6208707047D8
:10DC0C0000ED00E0094B9A6A9A6A986A9A6A9A6AD5
:10DC1C009A6A9A6A9A6A10F480106FEA02426FEA62
:10DC2C00124218BF02209A62704700BF00ED00E05C
:10DC3C00164B10B59A6A9A6A9A6A0C46910708D5DF
:10DC4C005A6B9A6A120604D518B19A6A22F08002AD
:10DC5C009A620E4B9A6A9A6A9B6ADB060ED50C493D
:10DC6C004FF49B730B4A0C480FF0A0F80B480FF0C5
:10DC7C009DF84FF49B7107480FF0CAF80020034A37
:10DC8C00936A43F0FF039362207010BD00ED00E037
:10DC9C0017050200E4FA010022F7010017FB01004E
:10DCAC0070B5414B9CB05C680025C4F3080485F347
:10DCBC001188BFF36F8F02F07F43B3F17F4F0ED10A
:10DCCC00D3070CD4560604D4150705D406460125F3
:10DCDC0004E012F004051CD00E4600257EB940F27B
:10DCEC00B133324A324933480FF060F832480FF002
:10DCFC005DF840F2B1312D480FF08AF80026002370
:10DD0C008DF80730E31E032B47D8DFE803F0043E01
:10DD1C00423B0646E2E7244BDA6A92073DD4DC6AC2
:10DD2C0014F0804408D028331B78EBB101200DF19E
:10DD3C000701FFF77DFF04469DF8073093B9682271
:10DD4C00314602A80FF084FD099B45B3C3F30802CA
:10DD5C0022B96FEA53236FEA4323099302A92046A1
:10DD6C000FF0B7FB1CB070BD144B1B782BB101200E
:10DD7C000DF10701FFF728FFDDE7114B1C88A4B25A
:10DD8C00002CD9D0FFF73EFFD5E70DF1070100209D
:10DD9C00CFE70DF107010020ECE70024CCE723F4DA
:10DDAC00FF7323F00103D8E700ED00E0E4FA010073
:10DDBC0051FB010022F7010064FB010029ED00E09A
:10DDCC002AED00E0044B5A6942F010025A615A697C
:10DDDC0042F480625A61704700ED00E0BFF34F8F50
:10DDEC000549064BCA6802F4E0621343CB60BFF3EB
:10DDFC004F8F00BFFDE700BF00ED00E00400FA0507
:10DE0C00002320210348C2180133412B82F8001350
:10DE1C00F9D1704700E100E038B504464FF020031B
:10DE2C00EFF3118583F31188BFF36F8F037BDB074F
:10DE3C000CD512492423124A12480EF0B7FF12488F
:10DE4C000EF0B4FF24210E480EF0E2FF20460CF039
:10DE5C0097FD0E4B9B68A3420BD10D4B5A68C2F336
:10DE6C00080212B92846FFF7DBFC5A6842F08052D0
:10DE7C005A602846BDE8384010F0D9BCDCFB0100E4
:10DE8C00A2FB010022F701000AFC0100044E022053
:10DE9C0000ED00E010B50E4B88B002930D4B0E4C0C
:10DEAC0003930E4B0E4A049302AB019301A8234635
:10DEBC00012100F035F9002307930A4B0121E41AE4
:10DECC0005A80593069400F04FF908B010BD00BFEB
:10DEDC0000000220000000000000042006000100E9
:10DEEC00000002200000022010B50B680C7A23F011
:10DEFC001F0204F01F031A43CB68640923F01F03AD
:10DF0C00044943EA440343F001038860CA600B618F
:10DF1C0010BD00BF90ED00E02DE9F04F8046894622
:10DF2C0014460027484D85B04F4507DA58F827307E
:10DF3C005E68C6B31F2E05D86FF01504204605B0D9
:10DF4C00BDE8F08FF206F7D1D3F800A01AF01F0F3E
:10DF5C00F2D150460FF0F4FA834606EB0A00013872
:10DF6C000FF0EEFA8345E7D11BF1160FE4D0631ED8
:10DF7C005B45E1DBC5F808B0E86858F82710C5F830
:10DF8C0008B02E6920F01F00D1E900321A449842E3
:10DF9C0046F01F0602F1FF3A18D1564505D15FFA3B
:10DFAC008BF00FF0ABFA0137BEE7C5F808B0EB68A1
:10DFBC0022F01F0203F01F031A43EA60E0B20FF0D5
:10DFCC009DFA10F1160FB7D0441CECE7C5F808B059
:10DFDC002A69013B23F01F0302F01F02134356452D
:10DFEC00E0B22B61EBD00FF089FA10F1160FA3D031
:10DFFC00C5F808B0EA689DF80830013E62F30403E6
:10E00C008DF808302B699DF808205B0863F34712E4
:10E01C008DF8082058F827200130D2E9003213443B
:10E02C00009323F01F031E44A6EB0A06C4B226F08D
:10E03C001F060F2C03963FF67FAF20466946FFF76D
:10E04C0053FF0134AFE700BF90ED00E00522034B16
:10E05C005A60BFF34F8FBFF36F8F704790ED00E0A6
:10E06C00BFF35F8F0022014B5A60704790ED00E0C8
:10E07C00F8B5214F3E68102E13D940F22D131F4ACC
:10E08C001F4920480EF092FE102231461E480EF019
:10E09C008DFE1A4840F22D110EF0BAFE4FF0FF30F3
:10E0AC00F8BD0024FFF7DCFF184D194A2A63A6427D
:10E0BC0019D1184B1E70FFF7C9FF2B68C3F3072348
:10E0CC00102B0ED014494FF4A7730C4A0D480EF0C8
:10E0DC006DFE12480EF06AFE4FF4A77107480EF061
:10E0EC0097FE0020DCE77968204601EB0411FFF76E
:10E0FC00FBFE0134DBE700BFB4ED0100ADFC010019
:10E10C001705020022F70100E6FC010090ED00E08B
:10E11C00AAFF4400314F02201AFD01006BFD0100E3
:10E12C0038B50C4C0D462278FFF7F6FE20701630F1
:10E13C000FD1F323084A094909480EF037FE294646
:10E14C0008480EF033FEBDE83840F32102480EF0CB
:10E15C005FBE38BD314F0220ADFC01001705020037
:10E16C0022F7010052FC01002DE9F74F2E4C894695
:10E17C0080460027A2464FF0140B2C4D4F4502DB76
:10E18C0003B0BDE8F08FD8F804300193002B46D0D3
:10E19C00D8F80010084600910FF0D2F9DDE9001311
:10E1AC000646581801380FF0CBF98642204A18D091
:10E1BC0014235F436FF015034AF8073040F2031342
:10E1CC001C4A1D491D480EF0F1FD49461C480EF035
:10E1DC00EDFD40F20311174803B0BDE8F04F0EF00F
:10E1EC0017BE16F1160F2660E8D01378B342E5DDA2
:10E1FC000BFB07A3AE60AE60E868197B60F304010B
:10E20C0019732969187B490861F347101873EB6877
:10E21C0023F01F0363602B6923F01F032361013775
:10E22C00143408F10C08A9E7A801022090ED00E0D5
:10E23C00314F0220ADFC01001705020022F701004E
:10E24C007EFC010070B5164B0C461D7806462B461D
:10E25C000021144A0F2B1DDD134951F8040BFFF755
:10E26C0043FE2A4621463046FFF756FE163015D19E
:10E27C004FF489730D4A0E490E480EF097FD214656
:10E28C000D480EF093FDBDE870404FF489710748BE
:10E29C000EF0BEBD936011610133DBE770BD00BFB2
:10E2AC00314F022090ED00E0A8010220ADFC0100EE
:10E2BC001705020022F7010025FC01002DE9F04FA3
:10E2CC001E460023A3B0CDE902010193134613F8B7
:10E2DC00010B089358B1252800F085800399029B07
:10E2EC009847013040F01A844FF0FF3301930198A6
:10E2FC0023B0BDE8F08F232C6CD061D8002CF6D065
:10E30C00202C0E9B08BF01230E93CDF82080DDF846
:10E31C002080B74818F8014B21460FF04CFA002822
:10E32C00E9D12A2C66D156F8043B98F80040002B12
:10E33C000993BFBF5B42099301230F93089B03F121
:10E34C0002082E2C7BD198F800302A2B74D156F869
:10E35C00045B08F1010818F8014B2146A548274633
:10E36C000FF029FA00286DD0434613F8014B682FA3
:10E37C00089307D1682C05D1482708F1020398F8B7
:10E38C0001400893672C7BD8652C80F03581472C95
:10E39C005CD8452C80F03081002CA8D0252C00F0C6
:10E3AC00B98303992520029B984701309CD003998F
:10E3BC002046029B9847013096D0019B0233AFE375
:10E3CC002D2C0AD0302C0BD02B2C0B9B08BF0123EF
:10E3DC000B939AE74FF0010B97E701230F9394E708
:10E3EC0001230A9391E700230A930E930B930F9347
:10E3FC009B468CE7A4F13003092B0990A1D80A2283
:10E40C00DDF8208018F8014BA4F13003092B98D8C3
:10E41C00099B02FB0344A4F13003CDE90883EFE729
:10E42C00904601FB0535303D424612F8013BA3F105
:10E43C0030000928F4D98EE700250A21F4E74FF0C3
:10E44C00FF358AE7CDF8208007469BE7632C59D02F
:10E45C0020D8582CA5D16F2C06F10409316840F056
:10E46C002883BBF1000F00F0178330238DF86C303C
:10E47C00002940F01B838DF86D100F46012625E016
:10E48C00702C00F0F58227D86E2C00F0DE82E2D8DA
:10E49C00692C86D1376806F10409002F80F29A8026
:10E4AC002D2379428DF86C300DF16D0630460A2221
:10E4BC000FF01AFA0B9B06441BA8361A002B40F0DF
:10E4CC0032830E9B002B40F02E83FF0F002D21DAA0
:10E4DC000025AB46A846E1E0752CBCD0782CBAD010
:10E4EC00732C7FF45EAFB146002DB8BF6FF00045C2
:10E4FC00002659F8043BB54240F0C9822E4600254F
:10E50C002F4608E00027B1463D46012659F8043B4A
:10E51C008DF86C301BABEA190025AB46A846921B54
:10E52C0022EAE27291190691099990190C1A0F9925
:10E53C0011B9002C00F3148303EB070A534540F088
:10E54C00138312F1FF3280F01D83F61BB8F1000F1C
:10E55C0011D09AF800000AEB0607A0F13003092B42
:10E56C00A7EB0A0640F21983474617F1FF3780F0F4
:10E57C001D83A6EB0806BBF1000F15D00AEB0607AE
:10E58C001AF8018B03994046029B984701303FF4DF
:10E59C00ABAEB8F12E0FA7EB0A06F1D15F46002FF8
:10E5AC0000F30D83A6EB0B0695B19AF800000AEB6D
:10E5BC000607A0F13003092BA7EB0A0640F20A83E9
:10E5CC002E2800F007832F46002F00F30C83761BB8
:10E5DC0056441BE30B9B23B12B238DF86C3039462F
:10E5EC0062E70E9B0BB12023F7E739461BAE5DE7C4
:10E5FC008CFD010092FD010006F1070929F00709C5
:10E60C00F9E80223D80240EA5250D60220F000402A
:10E61C00002AC3F30A510496059073F10003DDE957
:10E62C000467CDE9166741DA2D238DF86C300DF1B6
:10E63C006D0740F2FF73994253D1DDE904120A438E
:10E64C00A4F1410407F1030340D1192C38D8492215
:10E65C003A704E227A7046220025AB46A8461BAE75
:10E66C00BA70FD709B1B0B9A002A40F0EC810E9A3D
:10E67C00002A40F0E8819DF86C70A7F12D025742FA
:10E68C00574105EB0806334403EB0B0622AB3B4426
:10E69C0013F81C3C303B092B00F249820A9B002BDF
:10E6AC0000F04882099B9A1B1BAB39E70B9B0BB103
:10E6BC002B23BAE70E9B0BB12023B6E71BAFB8E7B1
:10E6CC0069223A706E227A706622C5E7192C99BFBE
:10E6DC004E2241216E22612194BF3A703A707970BA
:10E6EC00BAE7049B05980B431093CB170343462CB6
:10E6FC00119308BF6624DDE91023134300F0118148
:10E70C00002900F09B800026179BA1F2FE3843F0F5
:10E71C000043179318F1020FC0F2A480B8F1000F58
:10E72C0000F3DD8016A808F101080FF0FFF8B8F12E
:10E73C00040FF7D1002D04F0DF03B8BF0625472BDB
:10E74C0040F0F880F11C02DBAE4240F3ED80023C5D
:10E75C00E4B2002D00F0F480013DBBF1000F40F05D
:10E76C00EF80002DD4BF4FF0000A4FF0010A662C49
:10E77C0040F0E88016EB050840F1EC80102366248D
:10E78C004FF00008159300224FF00063CDE91823D9
:10E79C0018F1FF3880F0E080169B189A19999B1895
:10E7AC00179A41EB0202CDE9163202F07043129334
:10E7BC0000231393DDE91223134306D016A80FF0A0
:10E7CC00C6F816A80FF0B2F80136662C40F0E180BE
:10E7DC00002E40F3C880159B002B07DD15A916A849
:10E7EC000FF0E0F8013E07F8010BF4D1B0463B46C0
:10E7FC000026BBF1000F01D1002D15DD2E2203F8F0
:10E80C00012B002E00F0C080002D40F3BF80C6F11C
:10E81C00000BAB45A8BFAB46A5EB0B05002D03DDEC
:10E82C00159A002A00F3A680BAF1000F40F0C680BA
:10E83C0000221BAE1A709B1B15E70139049BDB18D9
:10E84C000493059B5B410593DDE90423002A73F1D6
:10E85C000003F2DADDE90423CDE9162353E716A809
:10E86C000FF064F8DDE916EC00230021CDF830C080
:10E87C000D93BC48DDE90C23994208BF904208F186
:10E88C000108ECD30520AEFB0023CDE90623079B42
:10E89C00013E00FB0C334FF0000C0793DDE906231F
:10E8AC00CDE91623002100236FF0004207988B421C
:10E8BC0008BF824208D2BCF1000F3FF42BAFDDE958
:10E8CC000623CDE9162325E7069B08F1FF38DB1854
:10E8DC000693079B4FF0010C5B410793E2E716A8E8
:10E8EC000FF035F8DDE916AE4FF0000C08F1FF38EB
:10E8FC000136002300216FF00040994208BF70459B
:10E90C0006D2BCF1000F3FF409AFCDE916AE05E716
:10E91C001AEB0A0A4EEB0E0E08F1FF384FF0010C01
:10E92C00E7E70026B046FDE6AD1BBBF1000F04D1B6
:10E93C00662416E74FF0000A19E74FF0000A19E7B2
:10E94C004FF0000A05F10108102398451593A8BF54
:10E95C00984618E76624F7E718A80EF0F8FF18A8F1
:10E96C000EF0E4FF14E73B4630224FF0000803F8AA
:10E97C00012B3EE715A916A806930FF013F8069B7A
:10E98C00013D03F8010B49E7B34647E74FF0000B95
:10E99C004AE715A916A80FF005F83028387018BFEB
:10E9AC0006F1FF36BBF1000F38D1002D36DC7B1C95
:10E9BC00BAF1000F44D04FF0000BD8461A4613F8AA
:10E9CC00011D3029FAD02E2918BF1346002504F05A
:10E9DC00DF02452A7FF42CAF002EB4BF2D222B2250
:10E9EC001946B8BF7642632E01F8024B5A7008DD07
:10E9FC00642096FBF0F200FB126602F13004D91C85
:10EA0C009C700A2096FBF0F20B4600FB126602F19A
:10EA1C003004303603F8024B4E7009E72E22BB1C33
:10EA2C007A70002DC4DD159A002AC1DD15A916A82F
:10EA3C0006930EF0B7FF069B013D03F8010BF0E7C0
:10EA4C00D346D046C3E701271BE6B146682F59F8D9
:10EA5C00043B05D001DC482F07D0019A1A6001E075
:10EA6C00019A1A804E46089A30E4019A1A70F9E716
:10EA7C00B14647F63003102259F8041B0DF16E0015
:10EA8C00ADF86C300EF030FF0227861C1EE59A5D47
:10EA9C00002A4AD001362EE51BAC082220460EF087
:10EAAC0023FF1BAEA61B064400270FE50DF16D04DA
:10EABC00F3E7752C05D10A221BA80EF015FF0646AC
:10EACC00F2E7BBF1000F12D047F630030DF16E08E0
:10EADC00ADF86C30102240460EF006FF582C09D0D1
:10EAEC001BAEA8EB060606444FEA4B07EEE40DF10D
:10EAFC006C08EFE71BAA12F8013BA3F1610119297D
:10EB0C0003D8203B02F8013CF5E712F8013C002B3E
:10EB1C00F1D1E5E703992046FFF7E1BB019B0133F7
:10EB2C000193B1469EE70127D0E41546E8E41BAB00
:10EB3C000022F7E41BAB0A9AF4E4CDE909320399FD
:10EB4C00029B20209847DDE9093201303FF4CCAB21
:10EB5C001AF1FF3AF1D20199214401915446EBE4A8
:10EB6C00A246F5E73233333313F8010B03990993BB
:10EB7C00029B0A929847DDE9093201307FF4DEAC42
:10EB8C00FFF7B2BB03993020029B099298470130E2
:10EB9C00099A7FF4D6ACFFF7A7BBDDE902319847A1
:10EBAC0001303FF4A1AB1AF8010FD6E403993020E1
:10EBBC00029B984701307FF4D8ACFFF795BB0399C3
:10EBCC003020029B9847013007F1FF377FF4E7AC08
:10EBDC00FFF78ABBDDE90231984701303FF484AB83
:10EBEC001AF8010FE5E403993020029B9847013095
:10EBFC0007F1FF377FF4E8ACFFF776BB03991AF8FF
:10EC0C00010B029B984701303FF46EABA6EB0A0355
:10EC1C00002BF3DC019B069A002C134401937FF725
:10EC2C0021AF254606E003992020029B984701302E
:10EC3C003FF45AAB15F1FF35F5D2019B23440193F8
:10EC4C0010E700BF0CB41FB509B90DF10300CDE9F5
:10EC5C00020107AB069A02A905480193FFF72EFBA8
:10EC6C000022029B1A7005B05DF804EB02B07047ED
:10EC7C00DFD9010024218379044A01FB03231B6A99
:10EC8C00C01A034BC0105843704700BF70C6022017
:10EC9C00ABAAAAAA10B524248379094A04FB03233E
:10ECAC00DB690A685C6823689A4294BF0A600B604F
:10ECBC00FFF7E0FFD4E9002302FB003010BD00BFDA
:10ECCC0070C6022038B50D46044670B90B4940F2A7
:10ECDC0011230B4A0B480EF069F80B480EF066F83E
:10ECEC0040F2112106480EF093F823680C33D3E858
:10ECFC00AF0F284100F0010038BD00BFC6FD010078
:10ED0C00A5FD010022F70100CCFD010010B5044661
:10ED1C0070B90D4940F2E3130C4A0D480EF046F859
:10ED2C000C480EF043F840F2E31108480EF070F86E
:10ED3C0023680C33D3E8EF2F42F00102C3E8E12F34
:10ED4C000029F7D110BD00BFC6FD0100A5FD0100D3
:10ED5C0022F70100CCFD010038B500210546FFF774
:10ED6C00B1FF28B92B6828469B7E1BB1FFF7CEFF5D
:10ED7C00002023E00EF04AFEC0B92B681B6973B962
:10ED8C000F4940F68F530F4A0F480EF00FF80F48FB
:10ED9C000EF00CF840F68F510A480EF039F8284660
:10EDAC00FFF7B4FF28460EF036FEE1E78368002B30
:10EDBC00E3D00121284698470028DEDA38BD00BF91
:10EDCC00CFFD010000FE010022F70100CCFD010087
:10EDDC0038B500F02FF8074C074DAC4200D138BDC8
:10EDEC0023681B685B681BB11B680BB120469847F6
:10EDFC002034F2E7C0C60220E0C6022038B5074C2A
:10EE0C00074DAC4200D138BD03212046FFF75AFF15
:10EE1C0010B92046FFF7A0FF2034F2E7C0C602204D
:10EE2C00E0C602204FF0FF32012101480FF031BD46
:10EE3C00BC010220072310B5084C4FF48062C4F8C3
:10EE4C00C83007496FF0080320460CF0C5FC054993
:10EE5C0004F11400BDE810400FF031BDA0020220F7
:10EE6C00885C02202CFE0100072310B5084C4FF4DF
:10EE7C008062C4F8C83007496FF0080320460CF0D4
:10EE8C00ABFC054904F11400BDE810400FF017BDB0
:10EE9C00D40102208860022023FE01002DE9F041FC
:10EEAC00456804462B680E46174663B909494C233E
:10EEBC00094A0A480DF07AFF09480DF077FF4C21FA
:10EECC0005480DF0A5FF2B683A4631462046BDE8B3
:10EEDC00F041184704FF0100DEFE010022F701009B
:10EEEC0024FF010037B5124D2C689CB911480AF06B
:10EEFC00D5F8044668B91D230F4A104910480DF087
:10EF0C0055FF0C490F480DF051FF1D210A480DF01B
:10EF1C007FFF2C60042220460DEB0201FFF7BEFFA1
:10EF2C00002802DAFEF71CFC0190019803B030BDFA
:10EF3C006C03022035FE01003FFE010071FE010052
:10EF4C0022F7010086FE010070B5164684680D4656
:10EF5C0061B922491C23224A22480DF027FF22487E
:10EF6C000DF024FF1C211E480DF052FF6B6863B995
:10EF7C001E491D231A4A1B480DF018FF1C480DF0A2
:10EF8C0015FF1D2116480DF043FF23685BB10022CD
:10EF9C009D4213D12B685AB962682360954200D107
:10EFAC00636000232B6076B9002070BD0B46EFE741
:10EFBC00136063689D4208BF6260F2E719681A46E5
:10EFCC000029F3D13EB123682B60606825600028CE
:10EFDC00EAD16560E9E76FF01500E6E770FF010024
:10EFEC004AFF010022F7010079FF010088FF0100B0
:10EFFC009AFF010010B5074C07492246074840F21A
:10F00C00FF130DF0D3FE2046BDE8104040F2FF1177
:10F01C000DF0FEBEE2FF01002300020022F701000A
:10F02C001F2838B504460D4601D9FFF7E3FF064803
:10F03C0000EB8400D0F8003223F4403343EA05435C
:10F04C00C0F8003238BD00BF0025844008B5094B1C
:10F05C001A786AB90121312019700521FEF77CFC60
:10F06C003120FEF769FC4FF00042034BC3F8042338
:10F07C00002008BD324F0220001003402DE9F04162
:10F08C00036801F01F049B680D461B794B4E44EA44
:10F09C0043140023D6F804238768D2B203F5A27177
:10F0AC0056F82110C1F304218C426CD122FA03F1E1
:10F0BC00C90768D59A0002F1804202F54432D2F8B1
:10F0CC00101521F00101C2F81015012202FA03F308
:10F0DC00C6F8083320460021FFF7A2FFB868E840C5
:10F0EC0010F001004DD0F868E84010F0010048D055
:10F0FC007869E84010F0010851D0BB69EB40DB07A0
:10F10C0045D43B69FA69EB4022FA05F503F001039B
:10F11C0005F00105AB4214BF01250225002101F5C4
:10F12C00A27356F8230010F0030032D18B0003F1C8
:10F13C00804303F54433D3F81025240222F44732DC
:10F14C0022F44072C3F81025D3F8102504F4F854B7
:10F15C0044EA0545154301F14002920092B202F1D6
:10F16C00804202F54432C3F810551060D3F81025D4
:10F17C0042F00102C3F81025012303FA01F1C6F88D
:10F18C000413BDE8F0810133082B87D1A2E70325D6
:10F19C00C4E701310829C2D16FF01200F1E73B69D5
:10F1AC00FA692046534023FA05F515F0010F0CBF00
:10F1BC0003210221FFF734FF4046E2E70010034031
:10F1CC002DE9F74F0746846803F47040B0F5804F83
:10F1DC001D4641D009DCB0F5805F3FD0B0F5405FF3
:10F1EC003ED090B16FF0150033E0B0F5E04F39D060
:10F1FC0004DCB0F5A04FF5D1032006E0B0F5404F8C
:10F20C0032D0B0F5504FEDD1072005F44076B6F56D
:10F21C00807F2BD0A6F5007673427341012919BF6C
:10F22C005FFA82F9C8464FF01F084FF000094FF003
:10F23C00010A05F0010C4FEA4C0646EA0C0646EAB8
:10F24C00002040EA830605F002030193C8450FD263
:10F25C00002003B0BDE8F08F0220D6E70120D4E7F0
:10F26C000420D2E70520D0E70620CEE70323D5E71C
:10F27C003B689B68197909F01F0343EA411BBBF1FA
:10F28C001F0F01DDFFF7B6FE194A0BF1800342F8A0
:10F29C002360019A0AFA09F3A1682AB31943A16001
:10F2AC006169A8064CBF194399436161A1696A065B
:10F2BC004CBF19439943A161216968074CBF19439D
:10F2CC0099432161E1692A064CBF0B4321EA0303F0
:10F2DC00E36149463846FFF7D1FE0028B9D109F160
:10F2EC0001025FFA82F9B1E721EA0301D7E700BF17
:10F2FC00002584402DE9F84F564B1E689846002E89
:10F30C005ED001274FF0000A534A93681268DC69FB
:10F31C00D2F80890D3E902251540D3E905210A4318
:10F32C0025EA0205D9F800201B6912695C4054409B
:10F33C0025EA04049DBBC8F80050002301201F4699
:10F34C004649474DD1F8042300FA03FC1CEA020F8E
:10F35C000DD055F8232052B103F5A27251F822209A
:10F36C0045F82370C2F3042200FA02F2144301336D
:10F37C00082BE7D134BB86B101274FF00008364B80
:10F38C009D681B689E68D5E902341C40D5E905329E
:10F39C00134324EA0304002C42D1BDE8F88F3D420C
:10F3AC000AD099F804300AF01F00002140EA4310FB
:10F3BC00FFF736FE25EA07050AF1010A7F00B9E7D7
:10F3CC003446BAE7244BD3F80890D9F80050002DF6
:10F3DC00D1D098462F68DFF894A0DFF894B0D9F814
:10F3EC000C30AA682340134215D06B6873B9594688
:10F3FC004FF4D27352461B480DF0D8FC1A480DF04E
:10F40C00D5FC4FF4D27150460DF002FD6B682246CC
:10F41C00294640469847002FADD03D463F68DEE771
:10F42C00274213D02B69EA6996F804C0534023FA9B
:10F43C0008F313F0010F08F01F000CBF0321022189
:10F44C0040EA4C10FFF7ECFD24EA070408F1010830
:10F45C007F00A0E77C110340E0C4022000100340B1
:10F46C000011034022F701009AFF0100B1FF0100D7
:10F47C00D6FF010037B50D46144648B9104911485E
:10F48C001E23114A0DF092FC1E210F480DF0C0FCFA
:10F49C004DB90E490B481F230B4A0DF087FC1F2159
:10F4AC0009480DF0B5FC01AA21462846F8F79AFD4B
:10F4BC00019B9C4218BF6FF0150003B030BD00BF1C
:10F4CC007600020022F701003800020089000200D9
:10F4DC00002208B511462A20FEF73EFA03F026FD5D
:10F4EC00014B1860002008BD9003022070B50D4B35
:10F4FC000D4C1A680A2500262346196881420ED045
:10F50C0051B15968511AB142C4BF1C460E46013D57
:10F51C0003F10803F1D12346013A18605A601846EA
:10F52C0070BD00BF94030220A0030220684620F0A7
:10F53C0007018D4619B50D4BD3E8EF2F0132C3E807
:10F54C00E12F0029F8D107F023FE094B1C683CB9C8
:10F55C00FEF734FAFEF756F9BDE8194085467047B8
:10F56C00201D0BF08BFE2468F1E700BF94030220F2
:10F57C00980302202DE9F04F884689B00FF018FA55
:10F58C00D8F800300646002B0F4603D10BF0F2FCE6
:10F59C003C206EE0BCBF4FF0FF33C8F800300122B6
:10F5AC00002102A80FF075F90DF1040A4FF02003A9
:10F5BC00EFF3118B83F31188BFF36F8F0BF058FEB1
:10F5CC00FFF794FF334943680A68894693424FF02A
:10F5DC00000308D10193304B5A68002A4CD1C3E97F
:10F5EC0000AA012300E042608BF31188BFF36F8FF8
:10F5FC00002B3DD0D8F8001002A80BF089FE4FF07C
:10F60C002003EFF3118B83F31188BFF36F8F00206E
:10F61C00214B1A6852B1524539D1019988BB5868AF
:10F62C001960904200D15960002301930BF020FE29
:10F63C00FFF75CFFD9F8003043608BF31188BFF300
:10F64C006F8FD8F80090B9F1FF3F11D00FF0B0F9DF
:10F65C0016EB090247EBE973141A63EB0105002C56
:10F66C0075F10003B8BF0024C8F80040002C8FD0FF
:10F67C00002009B0BDE8F08FC2F800A0C3F804A0C8
:10F68C00AFE701605968914208BF5860CCE710465B
:10F69C001268BFE794030220980302202D2810B5AE
:10F6AC0004460CD039DC0E2809D011DC082806D011
:10F6BC0009DC022803D0052801D0012819D10EF04D
:10F6CC00EEFA046010BD0C28F9D058DC0928F5E7D7
:10F6DC00282800F0848005DC1828F0D0232853D08B
:10F6EC001628EBE72A28EAD052DB2B28E7D02C2867
:10F6FC0052D04FF4A2733C4A3C493D480DF056FBA6
:10F70C0021463C480DF052FB4FF4A27136480DF0E7
:10F71C007FFB0EF0C4FA384B34E03C28CFD015DC1C
:10F72C003328CCD005DC3028C9D0322838D02F284B
:10F73C00C4E73628C3D001DC3428BFE73828BED054
:10F74C003928D6D10EF0ABFA39231BE07D2833D003
:10F75C0009DC702828D073282AD06928C9D10EF06A
:10F76C009EFA37230EE07F282FD029DB802831D05A
:10F77C008128BED10EF093FA40F2D47302E00EF061
:10F78C008EFA0D2303609DE70EF089FA0B23F9E73F
:10F79C000EF085FA2923F5E70EF081FA2C23F1E718
:10F7AC000EF07DFA3E23EDE70EF079FA4323E9E7FC
:10F7BC000EF075FA4423E5E70EF071FA4823E1E701
:10F7CC000EF06DFA40F2D173DCE70EF068FA40F2FD
:10F7DC00D273D7E70EF063FA40F2D373D2E70EF090
:10F7EC005EFA2423CEE700BF9F000200170502003B
:10F7FC0022F70100D1000200ADBAADBA4FF0805231
:10F80C00014BC3F80021704700E100E04FF080523B
:10F81C00014BC3F88021704700E100E04FF000522B
:10F82C00014BC3F80021704700E100E04FF000529B
:10F83C00014BC3F88021704700E100E008B50023BC
:10F84C00074AC2E90033074AD2E8EF1FC2E8E03F9B
:10F85C000028F9D10EF04EFABDE808400EF03FBA80
:10F86C009803022094030220B0F58D7F3CD004DC79
:10F87C00012844D04FF0FF30704740F202239842E9
:10F88C0052D040F203239842F4D101391329F1D814
:10F89C0001A353F821F000BF41F9000005F9000065
:10F8AC0025F9000017F9000029F900002DF90000D6
:10F8BC0031F9000081F8000081F8000081F80000A7
:10F8CC0081F8000081F8000081F8000081F8000048
:10F8DC0081F8000081F8000081F8000081F8000038
:10F8EC0081F800001BF9000001390529C2D8DFE8B6
:10F8FC0001F0031517190C21022313600AE01429D7
:10F90C0005D0192905D00429B4D10423F5E7142313
:10F91C00F3E71160002070470323EEE70523ECE7C3
:10F92C000623EAE70723E8E70229E5D00329F3D009
:10F93C0001299FD10123E0E70122034B18600368E2
:10F94C0002489A76FDF7FEBBF003022034EE01006C
:10F95C002DE9F8430746884600240F4E0F4D27FA31
:10F96C0004F328FA04F21A43D20705D40134042C08
:10F97C00F5D10020BDE8F88305EBC40256F824004D
:10F98C001279DB43416803F00103D1F804900021A4
:10F99C00C8470028EAD0EDE75804022094EE010095
:10F9AC00F8B54FF02003EFF3118683F31188BFF302
:10F9BC006F8F2A480BF060FD68B94A23284A294901
:10F9CC0029480DF0F3F9254928480DF0EFF94A21A3
:10F9DC0023480DF01DFA21480BF06CFD0024244D3A
:10F9EC00244F07EBC40355F8040B1A7943685B6981
:10F9FC0033B3002198470134042C01D00028F0D0F7
:10FA0C001D4B1A78FAB901221C491D481A700BF0CB
:10FA1C0007FF12480BF03EFD68B95D23104A1949E7
:10FA2C0011480DF0C3F90D4917480DF0BFF95D21D0
:10FA3C000B480DF0EDF986F31188BFF36F8FF8BD0D
:10FA4C006FF02200D7E7F223104A114906480DF057
:10FA5C00ADF9F2210D480DF0DBF9DAE7680402206C
:10FA6C0004F9010023F9010022F7010038F9010023
:10FA7C00F403022074EE0100334F02202404022010
:10FA8C004C4E022050F9010067F9010005010200FB
:10FA9C00170502002DE9F3470024564FDFF89C911F
:10FAAC003E462546C84609EBC50356F8040B1A79A1
:10FABC0043680021D3F808A001ABD04770B30024F1
:10FACC004D4BD3E8EF2FC3E8E14F0029F9D14B4B55
:10FADC00DFF86C911A78002A32D1D9F80060A6426E
:10FAEC0011D0474B66401B6813B1314620469847EE
:10FAFC004FF0FF31434809F05DFF434B1D68B5B92A
:10FB0C0040480AF035F8C9F80040E4B10A223F49F0
:10FB1C003F480BF085FE02B0BDE8F087019B13B99E
:10FB2C000123AB401C430135042DBCD1C8E7043D77
:10FB3C00002DE5D02B683146204698476D68DEE7EE
:10FB4C0000221A70DFE74FF02003EFF3118583F3E7
:10FB5C001188BFF36F8F2F480BF08EFC68B94A23C6
:10FB6C002D4A2E492E480DF021F92A492D480DF029
:10FB7C001DF94A2128480DF04BF926480BF09AFC48
:10FB8C00294B1A78012A2AD100221A7008EBC403D7
:10FB9C0057F8040B1A7943681B69EBB1002198479D
:10FBAC000134042C01D00028F0D01A480BF072FC60
:10FBBC0068B95D23184A1D4919480DF0F7F8154925
:10FBCC001B480DF0F3F85D2113480DF021F985F376
:10FBDC001188BFF36F8F9EE76FF02200E0E7A82338
:10FBEC00144A15490E480DF0E1F8A82111480DF002
:10FBFC000FF9DAE7F40302206C0402207CC4022023
:10FC0C0004040220080402201C0402202404022004
:10FC1C004C4E02206804022004F9010023F9010073
:10FC2C0022F7010038F90100334F022050F901008E
:10FC3C0067F90100050102001705020074EE0100CE
:10FC4C0050040220F8B500250E4C0F4E206809F028
:10FC5C0025FA46F8040B88B12279436800211F6805
:10FC6C000123B847034658B90135042D04F10804A3
:10FC7C00ECD1BDE8F8400F21FFF76ABE6FF012031C
:10FC8C001846F8BD94EE010058040220054BD3E849
:10FC9C00AF3F00B10360044811B102685A400A60DA
:10FCAC00036070476C040220540402202DE9F84FC5
:10FCBC003F4B18603F4D404F40480EF085FDB94614
:10FCCC000026A846286809F0E9F949F8040B002831
:10FCDC006AD02A79436800211C684FF48073A047CE
:10FCEC000446B8B90136042E05F10805EAD10546DB
:10FCFC00314E08EBC50356F8040B1A794368002102
:10FD0C001C684FF48173A0470135042D044604D0C0
:10FD1C000028EED02046BDE8F88F0028FAD1054621
:10FD2C0081464FF0010BDFF890A008EBC5035AF8A1
:10FD3C00040B1E7943685B6913B96FF02204E9E781
:10FD4C0032460021984704460028E3D101350BFACE
:10FD5C0006F6042D49EA0609E7D10646184D194B5B
:10FD6C00C5E9013957F8040B4368DB68002BE4D074
:10FD7C0001222946984704460028CBD10136042E8F
:10FD8C00F0D1114911480EF007FE0122104B0F491A
:10FD9C001A70104822460BF043FD04460028B9D1D6
:10FDAC000146FFF773FFB5E76FF01204B2E700BF2F
:10FDBC000404022074EE0100F40302200804022063
:10FDCC0044040220ADF90000A1FA00002404022032
:10FDDC00334F02204C4E0220042830B410D80A4A6B
:10FDEC000A4B02EBC00253F820401279636820469C
:10FDFC005D68B1FA81F3AC4630BC5B090021604709
:10FE0C006FF0150030BC704794EE010058040220CE
:10FE1C0070B5104C054623684BB90F490F48212388
:10FE2C000F4A0CF0C3FF21210D480CF0F1FF2368A1
:10FE3C005B684BB90B4909482223094A0CF0B6FF01
:10FE4C00222107480CF0E4FF23682846BDE87040E7
:10FE5C005B6818478401022017F7010022F70100A4
:10FE6C00EEF60100C7F6010007B5019018B1D0F805
:10FE7C00983A0C30984701A9024809F0DDFA03B012
:10FE8C005DF804FBA4C502202DE9F34107460D469D
:10FE9C000DF0ACFC1E4C1F4B80461E6823684BB902
:10FEAC001D491E487E231E4A0CF080FF7E211C48F3
:10FEBC000CF0AEFF2368DB6A4BB91A4917487F2355
:10FECC00174A0CF073FF7F2115480CF0A1FF236833
:10FEDC004246DC6A394600233046A04701300FD138
:10FEEC0009F002F903685B42009301238DF804309A
:10FEFC0015B19DF804302B70009802B0BDE8F0816C
:10FF0C004FF0FF326946084809F0A8FCF0E700BF43
:10FF1C00840102207004022017F7010022F701006F
:10FF2C00EEF601005101020044C6022010B5164C39
:10FF3C0023684BB9154916481923164A0CF036FF9D
:10FF4C00192114480CF064FF23681B684BB9124943
:10FF5C000F481A230F4A0CF029FF1A210D480CF0F8
:10FF6C0057FF236840F201221B6800216620984746
:10FF7C000A4B1860013004D109F0B6F80068404211
:10FF8C0010BD0020FCE700BF8401022017F7010020
:10FF9C0022F70100EEF60100A3F601007004022026
:10FFAC0010B586B0FFF7C2FF044668B90A23CDE945
:10FFBC000400CDE90203CDE90000054B4FF480624B
:10FFCC00044905480BF0D6FA204606B010BD00BF18
:10FFDC00E9FF000088640220840402202DE9FF4719
:10FFEC00774EDFF8248237464FF0FF3201A94046A6
:04FFFC0009F0BEF951
:020000021000EC
:100000000023019D724CC5F8983A02938DF80C308C
:100010002368D6F800900C354BB96E496E486923B9
:100020006E4A0CF0C9FE69216C480CF0F7FE23689B
:100030005B6A4BB96A4968486A23684A0CF0BCFE9F
:100040006A2166480CF0EAFE236840F68C225C6A5E
:10005000294600234846A04700282EDA3868FFF7D3
:10006000DDFE20BBFFF768FF08BB01238DF80C30D5
:1000700009F040F803685B4202930199D1F8983A7D
:10008000002B7AD101A9404609F0DCF9554B9B6859
:10009000002BAFD19DF80C20042AABD0524A13603C
:1000A0004FF0FF3202A9514809F03EFBA2E7386841
:1000B000FFF7B4FE04B0BDE8F08740F68C23984209
:1000C00007D0DDF80490484490F80BA0BAF1000F77
:1000D00002D06FF03603CFE7042309F10C04444942
:1000E00020468DF80C300DF04FFB0546E8B18DF839
:1000F0000CA0CDF808A000232A1B01322B709DF81C
:100100000C300199042B4ED03A4D2B68002B52D065
:10011000394C206800284ED093422AD90C310DF07A
:100120009DFB00232B602360A7E7344920460DF098
:100130002BFB054640B1022309F117008DF80C3066
:100140000DF00DFA0290D6E72D4920460DF01CFB6C
:10015000054608B10323EFE72A4920460DF014FBBA
:10016000054668B301238DF80C306FF00703029346
:10017000C1E76FF023030293D3E7234B00224B60C8
:100180000B460A6043F8082FD3E8EF2F42F0010036
:10019000C3E8E40F002CF7D1D3073FF577AF1B4836
:1001A0000EF034FB72E7002A3FF467AF184B1B6870
:1001B000C1F8983A61E7002A3FF45FAF0A4BF6E7CF
:1001C00020460DF019FB421C99E700BF7004022085
:1001D0008401022017F7010022F70100EEF601006A
:1001E00062010200DCC502207404022044C6022021
:1001F00073010200800402207C04022076010200C8
:10020000820102008E01020075FE00004C4E0220A9
:1002100078040220A4C502202DE9F0410546884655
:1002200017461E460A4C4FF0FF3120460BF076F879
:10023000084B3146C3F80080074B28461F60FFF784
:1002400029FE054620460BF01FF82846BDE8F08140
:10025000DCC502207C0402208004022038B505465B
:10026000064C4FF0FF3120460BF058F8044B1D6050
:100270002046BDE838400BF007B800BFDCC50220BF
:10028000780402200B4B70B51B6853B100251C4647
:100290001B6866688E4206D1A668964203D1234643
:1002A0000560184670BD002BFBD025461C461B6818
:1002B000EFE700BF3405022010B50024034B0448CB
:1002C000C3E90044FFF7CAFF204610BD34050220F1
:1002D000E1020100014809F051BC00BF08C602203C
:1002E00038B505464FF0FF31094809F069FB094B65
:1002F0001B681BB9BDE83840FFF7ECBF1C689A6863
:10030000294658689047002CF4D023462468F6E725
:1003100008C602203405022073B506460D4659B3BF
:100320004FF0FF31164809F04BFB2A46314601A831
:10033000FFF7A8FF044620B1FFF7CCFF002002B072
:1003400070BD0C2009F0D4F9019020B9FFF7C2FF6D
:100350006FF03600F3E70C2221460DF0A9FA019B5D
:10036000084A1C605168C3E9016511B9C2E900334C
:10037000E2E70B605360DFE76FF01500DFE700BFD7
:1003800008C602203405022037B505460C4629B3BD
:10039000002301934FF0FF31124809F011FB224670
:1003A000294601A8FFF76EFF20B9FFF793FF002051
:1003B00003B030BD019A01680B4B4AB95A68196005
:1003C000904200D15960002303600EF0ECF9ECE795
:1003D00011605968884208BF5A60F4E76FF0150051
:1003E000E6E700BF08C60220340502202DE9F043ED
:1003F0000568A3B000952B7880460F461646002B63
:1004000000F0C180614B1C78052C10D16B1C00934F
:10041000009A10780EF072F830B9531B2A4639460C
:1004200030460EF0FFF81BE001320092F0E7062C98
:1004300024D168460EF054F8009A10780EF05EF859
:10044000A8B9531B39462A4630460EF0EBF8009BFC
:100450001A783D2A0ED15A783F2A01D102330093EF
:100460000020009BC8F8003023B0BDE8F0830132C3
:100470000092E1E73F2AF3D10133F0E7072C03D1E3
:1004800010460EF0A6F8EBE7022C12D1009A107875
:10049000222803D010B10EF01AF838B1531B394698
:1004A0002A4630460EF0BEF8009BE5E70132009286
:1004B000ECE7012C3CD128460A2201A90DF0EBF80B
:1004C000019B334D0290009300980378292B28D08C
:1004D0003BB32C3BDBB20130112B009003D825FA43
:1004E00003F3DB0708D4A14604E0019BB9F1200F18
:1004F000009315D04C46E7E70A2201A90DF0CBF88E
:1005000022AB04F1010903EB840444F8800C009849
:100510000DF072F9044601980DF06EF98442E4D1B1
:100520004C46A30002AA394630460EF0A1F8BBE7BC
:10053000032C15D10A2202A928460DF0ACF8029B23
:10054000B0F5803F0246009305D282B2394630466C
:100550000EF02AF884E7394630460EF04EF87FE771
:10056000042C7FF47DAF009B1A78A2F13001092999
:1005700006D942F02002613A052A01D95B1B4DE7FA
:1005800001330093EFE74FF0FF306DE7344F022067
:100590000140020070B5046800290546227844D164
:1005A0002B2A2A4E01D0252A04D10523337000209E
:1005B0002C6070BD20460DF0ADFFA0B30623F5E71B
:1005C00047F6E57121FA03F3D9070AD503221F4B39
:1005D0001A70ECE7282A04D101221C4B14441A702B
:1005E000E5E710460DF073FF70B11849087803284D
:1005F00008D114F8010F0DF06AFF0028F9D1042387
:100600000B70D4E70728D2D02C3AD2B2112A07D8DF
:100610000F4B23FA02F2D30702D50C4B0722D7E780
:100620004FF0FF30C5E70223C0E703DD2B2AF7D0E8
:10063000252AF5D0A2F12B03DBB20E2BC0D9222A3A
:10064000C8D10222014B01341A70B0E7344F0220A6
:10065000014002002DE9F347884616461F4604462E
:1006600000287CD0002A7AD05368002B77D0002550
:10067000104600F0E7F832680194974228BF174609
:100680002C46384BDFF8E0901D70019A1378002B50
:100690004BD0A74249D9202B02D0093B042B01D8CB
:1006A00001320192214601A8FFF774FF421C3CD0A1
:1006B0003246214601A8FFF799FE431C35D0019B25
:1006C0001A782C3AD2B2112A1AD829FA02F2D10792
:1006D00016D558780DF0FBFE78B10134BC4239D004
:1006E000214601A8FFF756FF421C1ED03246214684
:1006F00001A8FFF77BFE431C17D0019B0133019338
:10070000019A10780DF0E3FEF8B1013211789246AB
:10071000084601320DF0DBFE0028F7D119B12B2974
:1007200001D0252911D1CDF804A0019BA5B91A78D3
:10073000002A0CBF00206FF00A00B8F1000F01D0B2
:10074000C8F8003002B0BDE8F0870134BC4208BFF1
:1007500001259AE70546E8E76FF00600EDE76FF040
:100760001500EFE7344F02200140020038B50C4677
:10077000054660B90A492B230A4A0B480CF01CFBBA
:100780000A480CF019FB2B2106480CF047FB2B689C
:10079000A34285BF0C236868002003FB040038BD1A
:1007A00001020200C501020022F701001502020049
:1007B00010B5044660B90E4939230E4A0E480CF0B4
:1007C000FBFA0E480CF0F8FA39210A480CF026FB27
:1007D0002378012B06D0022B06D0033B012B05D832
:1007E000606810BD0220FCE70420FAE70020F8E76B
:1007F00094010200C501020022F70100A9010200D4
:1008000010B5044660B90B491D230B4A0B480CF088
:10081000D3FA0B480CF0D0FA1D2107480CF0FEFA71
:100820002378033B012B02D8A0680DF0BCFF002306
:10083000A36010BD94010200C501020022F701006F
:10084000A90102002DE9F843064650B1436843B1BF
:100850000025134FDFF85080DFF8509033689D4239
:1008600001D3BDE8F8830C24736804FB05342046EB
:10087000FFF7C6FF64B9414614233A4648460CF0D8
:100880009BFA08480CF098FA142138460CF0C6FA86
:100890000C22002120460DF00BF80135DEE700BFE9
:1008A000C5010200A90102009401020022F7010023
:1008B00008B500230B481A461946FFF7ADFC03465E
:1008C00060B9024601460848FFF7A6FC034628B96E
:1008D000024601460548FFF79FFC08B16FF004008F
:1008E00008BD00BF9202020036020200410202006F
:1008F0000023F0B587B00293CDE90433CDF80B3077
:1009000007230D46174601930646002836D00029D6
:1009100034D00A2104A80DF026FE044630BB01465F
:100920000A2304AA3046FFF795FE0446D8B90146CB
:1009300001AB02AA04A80DF0D8FE044698B9114AEA
:10094000019902A80DF0F8FE68B16A46394604A87C
:100950000DF0B4FE044630B9009B082B02D008DC31
:10096000052B08D82B7004A80DF010FE204607B008
:10097000F0BD5A2BF6D06FF00404F4E76FF01504C5
:10098000F4E700BFB302020007B5084671B10122C7
:100990000DF10701FFF7ACFF40B99DF8073003F0F8
:1009A000FB03012B02D103480AF06EFC03B05DF893
:1009B00004FB00BF3C0502202DE9F8430122002181
:1009C0001F480DF06CFF1F490020FFF7A5FC0446EF
:1009D00078BB02251C4C1D4FDFF87C80DFF860904F
:1009E000002320461A461946FFF716FC0346D0B9E5
:1009F000024601463846FFF70FFC064698B94146C5
:100A000048460AF08BFC10F10B0F04460DD1012D66
:100A100012D03346324631460D48FFF7FDFB0D4CF0
:100A200001250028DCD06FF0040406490020FFF700
:100A3000ABFC2046BDE8F8836FF03B04F5E700BF50
:100A40003C050220890901009202020071020200A5
:100A5000A90202007B020200C027090038B500236A
:100A6000074D084C1A46984214BF2846204619469E
:100A7000FFF7D2FB002818BF6FF0040038BD00BF9D
:100A8000C4020200BA020200F0B500249DB006467E
:100A90000D465022214608A8CDE903440CF008FF7A
:100AA0000823CDE905448DF81C4001940293002EE3
:100AB0006FD0002D6DD02346224621463648FFF7E1
:100AC000ABFB044670BB0346502208A93348FFF72E
:100AD000A3FB044630BB0A2103A80DF044FD0446E5
:100AE00000BB01460A2303AA08A8FFF7B3FD04468A
:100AF000A8B902AB05AA092103A80DF0F6FD04462A
:100B000068B9032205A901A80CF0A8FE022221461B
:100B100001A80CF0C0FD072807D96FF0150403A841
:100B20000DF034FD20461DB0F0BD1D4B022253F8E0
:100B3000207021460DF117000CF0ADFD1FB3784376
:100B4000306002AB05AA082103A80DF0CEFD0446D3
:100B50000028E4D1032205A901A80CF07FFE02229F
:100B6000214601A80CF097FD0728D6D80D4B02228C
:100B700053F8206021460DF117000CF08CFD2EB1CA
:100B800070432860CBE74FF0FF30D9E74FF0FF30DC
:100B9000F7E76FF01504C5E75C0202006702020088
:100BA000D4EE0100B4EE01002DE9F04300261E4C06
:100BB00085B054F8049C1D4F01ADB14503D8002009
:100BC00005B0BDE8F083636A97E80700D3F80080BA
:100BD00085E807000C22294640460CF02FFEA0B9FC
:100BE000B8F1000F11D0636A21691B681A6991423C
:100BF0000BD19A69A169914207D8E169914204D960
:100C000062695B6932EA030307D0236A4BB1404053
:100C100080F311884FF0040002DFE36801361C44C2
:100C2000CBE7626A1360F8E73CC2000058ED0100B0
:100C300020B150F8081B090C00F052B8704700BFF3
:100C4000014806F025BB00BFF4EE0100002310B5FB
:100C500082B0019361B970B1044601AA092006F07F
:100C60004FFD18B9019B0BB10833236002B010BDD2
:100C70000F2002B010BD0E2002B010BD01F4704371
:100C8000B3F5E04F0BD160B1034630F8082C0920D2
:100C900042EA014143F8081D194606F019BD0F202C
:100CA00070470E20704700BF20B1A0F10801092055
:100CB00006F058BD0E20704718B10146092006F015
:100CC00063BE0E20704700BF10B504460068FFF7F2
:100CD000F3FFA06818B1BDE8104001F00FB910BDD6
:100CE00030B53B4B85B01D68002D4CD048F2020357
:100CF000994253D01CD948F2030399425AD049F281
:100D00000103994247D1002443680268CDE90244B7
:100D1000CDE90023E869694603685B6898470130BC
:100D20004ED020462B6843F480332B6005B030BD95
:100D300048F2010399422ED1C368002B35D12868AF
:100D400010F480003ED02B689BB2012B05D12B689C
:100D50001B0C1B0443F002032B601E4B1A7802F09D
:100D6000FF01002A31D01C4A117809B90121117004
:100D7000002018702B6823F480032B602B6843F449
:100D800000032B60D2E700680028CFD0FFF794FF64
:100D9000284605B030BD002005B030BD2B6813F4E7
:100DA00080030BD0C0680028E4D00E2300206B60C5
:100DB00005B030BDC368012BA5D1F6E71846B5E7ED
:100DC0000220B3E70E236B60B0E7034A1170CFE750
:100DD00058050220354F0220364F0220002310B55F
:100DE0000749084A084C0948237003600B701360D8
:100DF000FFF726FF003018BF0120404210BD00BFA2
:100E0000354F022054050220364F0220580502209B
:100E100000232DE9F047662882B0009372D10229A1
:100E200089466FD140F205239A4292466AD1484FD3
:100E30003D68002D7CD18046464A684605F0D8FFC3
:100E4000009B0646002B7DD02946042242483B6089
:100E50000CF02EFD009C2946C4E90389C4F814A0B7
:100E600001A8FFF7F3FE00283CD101220421019BD9
:100E70003A4D58739873D87358729872D872197221
:100E80002A701A732268184642F48002226047F2E0
:100E90000101FFF7F3FE38BB4FF400024FF0FF33C0
:100EA0001146304606F050F8044610B3009A002E62
:100EB000136843F400331360009A136823F480032B
:100EC0001360009A136823F40003136036DA0023DA
:100ED00020463B604FF0FF36FEF7E6FB304602B09F
:100EE000BDE8F0870C24E1E70198FFF7DDFE05245B
:100EF000DCE7304606F09CF850B1446844B100236A
:100F00004360D3E71620FEF7CFFB4FF0FF36E5E74F
:100F1000009A136843F400331360009A136823F4B3
:100F200080031360009A136823F400031360D5E76D
:100F30000120FEF7B9FB4FF0FF36CFE7304605F052
:100F4000B5FFC4E71820FEF7AFFB4FF0FF36C5E74B
:100F500058050220C90C010054050220354F02201B
:100F60002DE9F04385B000295ED0002A16465BDDEE
:100F70001F4680460D4606F05BF80446002859D00F
:100F8000C069BA070368DB6824D5984701303BD0B5
:100F90002368E06913F4803338D0002123683A468F
:100FA00023F480332360CDE90211CDE900560368B4
:100FB00069469B6898470546E0690368DB6898477F
:100FC000013003D0236843F480332360284605B002
:100FD000BDE8F083226812F08059D6D19847431CAF
:100FE000D6D14FF48032236A1146002B08BF034646
:100FF000404605F0A9FF58B14FF0FF35FEF754FB0E
:10100000284605B0BDE8F0832320F5E71D46D4E768
:10101000404606F00DF803460028B9D04068002885
:10102000B6D0C3F80490E7E71620FEF73DFB4FF07B
:10103000FF35CBE70920FEF737FB4FF0FF35C5E75B
:101040002DE9F04182B000295BD0042A59D11E4617
:1010500007460D4605F0ECFF0446002867D0B007B0
:1010600026D523689B035ED500262368002123F440
:101070000033236001A8D5F80080FFF7E7FDF8B939
:101080000425019B47F20301C3F80C805872987243
:10109000D8721D721846FFF7F1FD804640BBCEB9ED
:1010A0002846236843F40033236002B0BDE8F08192
:1010B0002368D900D5D423689A0336D50126D4E70E
:1010C0000C20236843F400332360FEF7EDFA4FF061
:1010D000FF30EAE74FF480324FF0FF3311463846D5
:1010E00005F032FF98B1236843F400332360ECE746
:1010F0000198FFF7D9FD2368052043F400332360EE
:10110000E3E71620FEF7D0FA4FF0FF30CDE7384680
:1011100005F08EFF03460028C2D040680028BFD0EB
:10112000C3F80480DFE77320CFE70920CDE709206B
:10113000FEF7BAFA4FF0FF30B7E700BFF0B501296C
:1011400085B068D01E4640F20523994240F0958054
:101150000746154605F06CFF0446002800F0B280F3
:10116000012D19D0022D10D02A25036823F4800305
:1011700023602368284623F400032360FEF794FAD3
:101180004FF0FF35284605B0F0BD16B10A9B012B84
:1011900049D023681625E9E7002EFAD00A9B042BD4
:1011A000F7D1002103A8FFF751FD054600286AD1B9
:1011B0000398082229460C300CF07AFB039831463C
:1011C0000A9A0C300CF04AFB0823039847F20201FC
:1011D000037245728572C572236843F480032360ED
:1011E000FFF74CFD002851D14FF400024FF0FF33C0
:1011F0001146384605F0A8FE054600283BD1384682
:1012000005F016FF00284FD04368002B4CD0002279
:101210001D4642602FE00A9C009405F031FF054610
:10122000284605B0F0BD002103A83578FFF70EFD74
:1012300048BB012D08BF264B4FF0040208BF1D70AC
:101240000023039847F201014372C5608372C372A1
:101250000272236843F480032360FFF70FFD064604
:10126000A0B94FF400024FF0FF331146384605F0A5
:101270006BFE054680B1236878E72A20FEF714FA52
:101280004FF0FF357EE723680C256FE70398FFF7E3
:101290000BFD0525236869E7384605F0C9FE40B116
:1012A000456835B14660E6E73146042209480CF04E
:1012B000D5FA236823F480032360236823F4000312
:1012C00023605FE70920FEF7EFF94FF0FF3559E79C
:1012D000354F022054050220F0B5012983B0089E45
:1012E00030D01F4640F20523994234D1154605F00F
:1012F0009FFE002837D0012D15D0022D0BD187B3CA
:10130000336873B30023012218461A4909783970EB
:10131000326003B0F0BD0920FEF7C6F94FF0FF338D
:10132000184603B0F0BDE7B13368032B19D938462E
:10133000042211490CF092FA00230422184632606C
:1013400003B0F0BD009605F0D1FE03460028E3D1BE
:10135000184603B0F0BD2A20FEF7A6F94FF0FF3380
:10136000DEE71620D8E70920FEF79EF94FF0FF339D
:10137000D6E700BF364F02205405022010B50446C0
:1013800005F056FE38B1204605F090FD0023054AD1
:101390001846136010BD0920FEF786F94FF0FF30A4
:1013A00010BD00BF58050220006804F0DFB900BF7F
:1013B000F0B583B00F461546064605F039FE002805
:1013C00047D0036804469B0343D50368294623F4AA
:1013D00000330360036801A843F40013236004F0A2
:1013E0009BF9A0BB0422019B1A7258729872D872A2
:1013F000DE6085B91846012104F0A2F9D0B94FF496
:101400000032304611464FF0FF3305F09DFDA8B97C
:10141000284603B0F0BD394618682A460CF01EFA7B
:101420000121019804F08CF90028E8D0019B18688C
:1014300004F09CF9019804F091F92320236843F407
:1014400000332360FEF730F94FF0FF30E1E70C2066
:10145000F4E71620F6E700BF04F058B92DE9F04193
:10146000002582B002AB43F8085D80460F4618465F
:10147000164602211D4A05F0BBFC009B04460BB337
:10148000C3E903875E61294601A804F045F9E8B97C
:101490000422019B052158729872D8721A72DC607E
:1014A000184604F04DF9D8B902224FF0FF33114627
:1014B000204605F049FD054648B9009A136843F4F3
:1014C00000331360204602B0BDE8F0810C252046B1
:1014D00005F0ECFC2846FEF7E7F84FF0FF34F1E7A3
:1014E000019804F03BF92325F1E700BFA91301009F
:1014F000F0B583B0064605F09BFD00283DD00D23D6
:1015000007680360036804469B031FD4002101A8F9
:1015100004F002F920BB0422019B06215872987244
:10152000D8721A72DE60184604F00AF9D0B90E2299
:101530004FF0FF331146304605F006FD0546A8B9C9
:10154000304605F0B3FC284603B0F0BD0368002127
:1015500023F40033036001A804F0DEF80028DAD099
:101560000C2503E0019804F0F9F8232527602846AC
:10157000FEF79AF84FF0FF35E5E71625F7E700BFCD
:101580002DE9F04184B0884615461E46074605F011
:101590004FFD002849D00023CDE9008516F0020553
:1015A0000446CDE902330ED01EE0002D33D14FF4B6
:1015B0008032236A1146002B08BF4FF0FF333846B4
:1015C00005F0C2FC05462368E06923F480332360FC
:1015D000036832469B6869469847B0F10008E4DB2F
:1015E000404604B0BDE8F0810368C06923F480334D
:1015F0002360036832469B6869469847B0F100084B
:10160000EEDAB8F1FF3FEBD12320FEF74DF840466C
:1016100004B0BDE8F081B8F1FF3FE1D12846FEF704
:1016200043F8404604B0BDE8F0811620FEF73CF8D0
:101630004FF0FF38D4E700BF05F058BD05F020BDDE
:1016400070B5064684B0C0680D4605F0F1FC04464E
:1016500048B303689BB2012B1FD003689BB20D2BCC
:1016600029D003689BB2022B2DD0033D012D17D842
:10167000002573683268CDE90255CDE90023E069A1
:10168000694603685B689847013019D0284623688B
:1016900043F48033236004B070BD022DE5D10560B2
:1016A000002004B070BD30680028F9D004F05EF866
:1016B000204604B070BD022DD7D10E230360EFE7A2
:1016C000022004B070BD03689B02CED5022DCCD1A0
:1016D000036823F400130360036843F400330360DA
:1016E000DEE700BF50F8081B090C01F02FB900BF5E
:1016F000014805F0CDBD00BF04EF0100002310B587
:1017000082B0019358B1044601AA062005F0F8FF03
:1017100018B9019B0BB10833236002B010BD07203C
:1017200002B010BD11F4704F0BD160B1034630F818
:10173000082C062042EA014143F8081D194605F02D
:10174000C7BF0F2070470720704700BF20B1A0F12E
:101750000801062006F006B80720704718B10146B8
:10176000062006F011B90720704700BF2DE9F04FA1
:10177000DFF8CCC083B000900CF13C0BDCF80830F3
:101780002BB1DCF80020009C1078A04206D00CF1B0
:101790000C0CE345F2D103B0BDE8F08FDCF804A0F7
:1017A00003EB0A08C245F2D25368CDF804C0D6460E
:1017B0009C46D2F810909789AEEB0A00DFB3B9F8D7
:1017C000022090421CD36546002409F1040303E083
:1017D0005A880433824215D833F8046C0134A74286
:1017E00002FB0655A0EB02001E46F1D1002081420B
:1017F0000DD00EF1010EF045DED1DDF804C0C6E7D4
:1018000065464E46338800FB03508142F1D1BEF558
:10181000007FDDF804C0BAD00123084A4FEA5E1108
:1018200052F821000EF01F0E03FA0EFE4EEA0000E1
:1018300042F82100AFE73846D9E700BF5C05022037
:10184000A0050220002850D06D4BD3F8882090428C
:101850004BD82DE9F04FD3F88CB083B0BBF1000F1B
:1018600054D00BF1FF32914600264FF01208654F1D
:1018700001920BF1110E06EB090253F838400132C8
:10188000520804EB440C02F1120153F8315057F89E
:101890002CA053F83E4003EBC80CDCF804C005EB69
:1018A000450504EB4404DAF810A057F8255057F822
:1018B00024403AF82CA003EBC10103EBCE0C49689D
:1018C0002D692469DCF804C0504535F8215034F8FE
:1018D0002C1015D9884211D2A84208D9561CB145FE
:1018E000C0F0878002F11308C5E70020704702F1BD
:1018F000FF394E457DD802F1110EBCE709F1010612
:10190000B34507D0102E01D0B34508D8002003B04E
:10191000BDE8F08F019A102A18BF1646F6D0DFF8FE
:10192000E8C003EBC608D8E9242402EB420257F8CA
:10193000223007EB8202D2F804E01D69002C56D059
:101940002A467046A40005EB0409518804329145EB
:101950000844FAD12919B1F802A08244824518D965
:1019600041095CF8212000F01F0422FA04F919F063
:10197000010F07D013E05CF8212022FA04F919F0D6
:10198000010F0CD1013082454FEA501100F01F04C5
:10199000F1D101365E4508F10808C4D3B6E7012647
:1019A00006FA04F49E8922EA0402A0EB0E004CF829
:1019B00021205C68002EA9D06A88824211D80021BB
:1019C0002B1D03E05A88043382420AD833F8045CA2
:1019D00001318E4202FB0544A0EB02001D46F1D10D
:1019E00094E72B8800FB034003B0BDE8F08F7046FE
:1019F000B0E7BBF1100F08BF0F2690D086E700BFFD
:101A0000DC050220A00502205C05022000284CD045
:101A10006B4B1A68904248D82DE9F04F5F6883B04D
:101A20000097002F51D07A1E964600214FF0010CEE
:101A3000644C019201EB0E02013253F83C50520803
:101A400002F1010805EB450553F8379054F825A03D
:101A500053F8386009EB490503EBCC09D9F8049039
:101A600006EB4606DAF810A054F8266054F8255024
:101A70003AF829A003EBC80B03EBC7093669DBF87A
:101A800004B02D69D9F80490504536F82B6035F82C
:101A9000295013D9A84210D2B04208D9C6454146B0
:101AA000C0F0878008F1010CC4E70020704702F104
:101AB000FF3E71457DD81746BCE73946009A8A42F9
:101AC00007D0102901D08A4208D8002003B0BDE811
